:020000040000FA
:0400000007EF00F016
:0A000800108292ED03F05EEF04F0A9
:100600000000030E0A6EED0E096E000EEFEC03F013
:10061000050E0A6EDC0E096E010EEFEC03F0050EFE
:100620000A6EDC0E096E020EEFEC03F0030E0A6E8A
:10063000ED0E096E030EEFEC03F0150E0C6E490E75
:10064000E82EFED70C2EFCD700D0030E0A6EED0E5E
:10065000096E000EEFEC03F0070E0A6ED00E096E65
:10066000010EEFEC03F0070E0A6ED00E096E020EBB
:10067000EFEC03F0030E0A6EED0E096E030EEFECC5
:1006800003F0150E0C6E490EE82EFED70C2EFCD78B
:1006900000D0050E0A6EDC0E096E000EEFEC03F0C2
:1006A000070E0A6ED00E096E010EEFEC03F0070E76
:1006B0000A6ED00E096E020EEFEC03F0050E0A6E04
:1006C000DC0E096E030EEFEC03F0150E0C6E490EF6
:1006D000E82EFED70C2EFCD700D0050E0A6EDC0EDD
:1006E000096E000EEFEC03F0050E0A6EDC0E096ECB
:1006F000010EEFEC03F0050E0A6EDC0E096E020E21
:10070000EFEC03F0050E0A6EDC0E096E030EEFEC43
:1007100003F0150E0C6E490EE82EFED70C2EFCD7FA
:1007200000D012000600F2A498EF03F09AEF03F055
:10073000EDEF03F0F294D768930ED66EF40E0E260A
:10074000010E0F220E50015C0F500258D8A0ABEFE3
:1007500003F0ADEF03F0B0EF03F08A82B1EF03F0E6
:100760008A920E50035C0F500458D8A0BAEF03F0E1
:10077000BCEF03F0BFEF03F08A84C0EF03F08A946C
:100780000E50055C0F500658D8A0C9EF03F0CBEF10
:1007900003F0CEEF03F08A86CFEF03F08A960E5077
:1007A000075C0F500858D8A0D8EF03F0DAEF03F039
:1007B000DDEF03F08A88DEEF03F08A98200E0E5CEE
:1007C0004E0E0F58D8A0E7EF03F0E9EF03F0EDEF7E
:1007D00003F0000E0F6E000E0E6E109211000B6EE5
:1007E000040E0B60F6EF03F0F8EF03F018EF04F0DF
:1007F000F40E095C010E0A58D8A001EF04F003EFD3
:1008000004F018EF04F0C50E095C090E0A58D8B0C0
:100810000CEF04F00EEF04F018EF04F00B50020D93
:10082000F350010FD96EDA6A09C0DEFF0AC0DDFF9E
:100830001200010E936E8A6A75EC04F041EC04F02C
:10084000210E0D6E760EE82EFED70D2EFCD700D0B1
:1008500081B02DEF04F02FEF04F031EF04F035EF0D
:1008600004F001EC03F028EF04F0210E0D6E760E7B
:10087000E82EFED70D2EFCD700D01EEF04F007EFB8
:1008800000F0050E0A6EDC0E096E000EEFEC03F0B0
:10089000050E0A6EDC0E096E010EEFEC03F0050E7C
:1008A0000A6EDC0E096E020EEFEC03F0050E0A6E06
:1008B000DC0E096E030EEFEC03F01200FC0EF66E78
:1008C000080EF76E000EF86E00EE01F010EE08F064
:1008D0000900F5CFEEFFE550E150FAE10F6A0E6A2C
:1008E00010901092000119EF04F0880ED56ED768B1
:1008F000C10ED66EF28AF28EF28C1200DC05DC0597
:04090000DC05DC0531
:020000040020DA
:08000000FFFFFFFFFFFFFFFF00
:020000040030CA
:0E000000FF081B1EFF8181FF0FC00FE00F40A5
:00000001FF
