:020000040000FA
:0400000075EF00F0A8
:060008001B82A1ED05F0D2
:100018001B80D8CF08F0E8CF09F0E0CF0AF0F2A4AF
:1000280018EF00F01AEF00F06DEF00F0F294D768C7
:10003800C10ED66EF40E1926010E1A2219500F5C45
:100048001A501058D8A02BEF00F02DEF00F030EF29
:1000580000F08A8231EF00F08A921950115C1A5030
:100068001258D8A03AEF00F03CEF00F03FEF00F054
:100078008A8440EF00F08A941950135C1A5014587F
:10008800D8A049EF00F04BEF00F04EEF00F08A8661
:100098004FEF00F08A961950155C1A501658D8A0E0
:1000A80058EF00F05AEF00F05DEF00F08A885EEF3D
:1000B80000F08A98200E195C4E0E1A58D8A067EFE7
:1000C80000F069EF00F06DEF00F0000E1A6E000E00
:1000D800196E0AC0E0FF09C0E8FF08C0D8FF1B90EE
:1000E80010001DEF06F0070E0C6ED00E0B6E000E02
:1000F80077EC05F0050E0C6EDC0E0B6E010E77EC3E
:1001080005F0050E0C6EDC0E0B6E020E77EC05F09A
:10011800030E0C6EED0E0B6E030E77EC05F0050E5C
:100128000E6EDE0EE82EFED70E2EFCD7030E171825
:100138001810D8B4A2EF00F0A4EF00F0A6EF00F07A
:10014800E3EF01F0070E0C6ED00E0B6E000E77EC8D
:1001580005F0070E0C6ED00E0B6E010E77EC05F055
:10016800030E0C6EED0E0B6E020E77EC05F0030E0F
:100178000C6EED0E0B6E030E77EC05F0050E0E6E91
:10018800DE0EE82EFED70E2EFCD7030E1718181019
:10019800D8B4D1EF00F0D3EF00F0D5EF00F0E3EFE3
:1001A80001F0050E0C6EDC0E0B6E000E77EC05F000
:1001B800070E0C6ED00E0B6E010E77EC05F0030ED9
:1001C8000C6EED0E0B6E020E77EC05F0050E0C6E44
:1001D800DC0E0B6E030E77EC05F0050E0E6EDE0ED0
:1001E800E82EFED70E2EFCD7030E17181810D8B419
:1001F80000EF01F002EF01F004EF01F0E3EF01F08E
:10020800050E0C6EDC0E0B6E000E77EC05F0050E7D
:100218000C6EDC0E0B6E010E77EC05F0050E0C6E05
:10022800DC0E0B6E020E77EC05F0050E0C6EDC0E84
:100238000B6E030E77EC05F0050E0E6EDE0EE82E43
:10024800FED70E2EFCD7030E17181810D8B42FEFB0
:1002580001F031EF01F033EF01F0E3EF01F0050EAB
:100268000C6EDC0E0B6E000E77EC05F0030E0C6EB8
:10027800ED0E0B6E010E77EC05F0070E0C6ED00E2E
:100288000B6E020E77EC05F0050E0C6EDC0E0B6E95
:10029800030E77EC05F0050E0E6EDE0EE82EFED787
:1002A8000E2EFCD7030E17181810D8B45EEF01F005
:1002B80060EF01F062EF01F0E3EF01F0030E0C6E66
:1002C800ED0E0B6E000E77EC05F0030E0C6EED0EC6
:1002D8000B6E010E77EC05F0070E0C6ED00E0B6E50
:1002E800020E77EC05F0070E0C6ED00E0B6E030EA7
:1002F80077EC05F0050E0E6EDE0EE82EFED70E2EFC
:10030800FCD7030E17181810D8B48DEF01F08FEF33
:1003180001F091EF01F0E3EF01F0030E0C6EED0E2A
:100328000B6E000E77EC05F0050E0C6EDC0E0B6EF6
:10033800010E77EC05F0050E0C6EDC0E0B6E020E4E
:1003480077EC05F0070E0C6ED00E0B6E030E77ECF3
:1003580005F0050E0E6EDE0EE82EFED70E2EFCD72B
:10036800030E17181810D8B4BCEF01F0BEEF01F057
:10037800C0EF01F0E3EF01F0050E0C6EDC0E0B6E22
:10038800000E77EC05F0050E0C6EDC0E0B6E010E00
:1003980077EC05F0050E0C6EDC0E0B6E020E77EC9A
:1003A80005F0050E0C6EDC0E0B6E030E77EC05F0F7
:1003B800050E0E6EDE0EE82EFED70E2EFCD71200AE
:1003C800050E0C6EDC0E0B6E000E77EC05F0050EBC
:1003D8000C6EDC0E0B6E010E77EC05F0050E0C6E44
:1003E800DC0E0B6E020E77EC05F0050E0C6EDC0EC3
:1003F8000B6E030E77EC05F0050E0E6EDE0EE82E82
:10040800FED70E2EFCD7040E17181810D8B40FEF0D
:1004180002F011EF02F013EF02F050EF03F0030EB9
:100428000C6EED0E0B6E000E77EC05F0050E0C6EE3
:10043800DC0E0B6E010E77EC05F0050E0C6EDC0E73
:100448000B6E020E77EC05F0070E0C6ED00E0B6EDD
:10045800030E77EC05F0050E0E6EDE0EE82EFED7C5
:100468000E2EFCD7040E17181810D8B43EEF02F061
:1004780040EF02F042EF02F050EF03F0030E0C6E73
:10048800ED0E0B6E000E77EC05F0030E0C6EED0E04
:100498000B6E010E77EC05F0070E0C6ED00E0B6E8E
:1004A800020E77EC05F0070E0C6ED00E0B6E030EE5
:1004B80077EC05F0050E0E6EDE0EE82EFED70E2E3A
:1004C800FCD7040E17181810D8B46DEF02F06FEFB0
:1004D80002F071EF02F050EF03F0050E0C6EDC0E27
:1004E8000B6E000E77EC05F0030E0C6EED0E0B6E26
:1004F800010E77EC05F0070E0C6ED00E0B6E020E97
:1005080077EC05F0050E0C6EDC0E0B6E030E77EC27
:1005180005F0050E0E6EDE0EE82EFED70E2EFCD769
:10052800040E17181810D8B49CEF02F09EEF02F0D2
:10053800A0EF02F050EF03F0050E0C6EDC0E0B6E10
:10054800000E77EC05F0050E0C6EDC0E0B6E010E3E
:1005580077EC05F0050E0C6EDC0E0B6E020E77ECD8
:1005680005F0050E0C6EDC0E0B6E030E77EC05F035
:10057800050E0E6EDE0EE82EFED70E2EFCD7040EEC
:1005880017181810D8B4CBEF02F0CDEF02F0CFEF68
:1005980002F050EF03F0050E0C6EDC0E0B6E000E31
:1005A80077EC05F0070E0C6ED00E0B6E010E77EC93
:1005B80005F0030E0C6EED0E0B6E020E77EC05F0D7
:1005C800050E0C6EDC0E0B6E030E77EC05F0050EB7
:1005D8000E6EDE0EE82EFED70E2EFCD7040E171870
:1005E8001810D8B4FAEF02F0FCEF02F0FEEF02F0B8
:1005F80050EF03F0070E0C6ED00E0B6E000E77EC6A
:1006080005F0070E0C6ED00E0B6E010E77EC05F0A0
:10061800030E0C6EED0E0B6E020E77EC05F0030E5A
:100628000C6EED0E0B6E030E77EC05F0050E0E6EDC
:10063800DE0EE82EFED70E2EFCD7040E1718181063
:10064800D8B429EF03F02BEF03F02DEF03F050EFB0
:1006580003F0070E0C6ED00E0B6E000E77EC05F053
:10066800050E0C6EDC0E0B6E010E77EC05F0050E18
:100678000C6EDC0E0B6E020E77EC05F0030E0C6EA2
:10068800ED0E0B6E030E77EC05F0050E0E6EDE0E0A
:10069800E82EFED70E2EFCD71200030E0C6EED0EC0
:1006A8000B6E000E77EC05F0050E0C6EDC0E0B6E73
:1006B800010E77EC05F0050E0C6EDC0E0B6E020ECB
:1006C80077EC05F0030E0C6EED0E0B6E030E77EC57
:1006D80005F0050E0E6EDE0EE82EFED70E2EFCD7A8
:1006E800050E17181810D8B47CEF03F07EEF03F04E
:1006F80080EF03F001EF04F0030E0C6EED0E0B6EAD
:10070800000E77EC05F0070E0C6ED00E0B6E010E86
:1007180077EC05F0070E0C6ED00E0B6E020E77EC20
:1007280005F0030E0C6EED0E0B6E030E77EC05F064
:10073800050E0E6EDE0EE82EFED70E2EFCD7050E29
:1007480017181810D8B4ABEF03F0ADEF03F0AFEF04
:1007580003F001EF04F0050E0C6EDC0E0B6E000EBC
:1007680077EC05F0070E0C6ED00E0B6E010E77ECD1
:1007780005F0070E0C6ED00E0B6E020E77EC05F02E
:10078800050E0C6EDC0E0B6E030E77EC05F0050EF5
:100798000E6EDE0EE82EFED70E2EFCD7050E1718AD
:1007A8001810D8B4DAEF03F0DCEF03F0DEEF03F053
:1007B80001EF04F0050E0C6EDC0E0B6E000E77ECEC
:1007C80005F0050E0C6EDC0E0B6E010E77EC05F0D5
:1007D800050E0C6EDC0E0B6E020E77EC05F0050EA6
:1007E8000C6EDC0E0B6E030E77EC05F0050E0E6E2C
:1007F800DE0EE82EFED70E2EFCD71200050E0C6E6C
:10080800DC0E0B6E000E77EC05F0070E0C6ED00EAA
:100818000B6E010E77EC05F0070E0C6ED00E0B6E0A
:10082800020E77EC05F0050E0C6EDC0E0B6E030E57
:1008380077EC05F0050E0E6EDE0EE82EFED70E2EB6
:10084800FCD7060E17181810D8B42DEF04F02FEFA8
:1008580004F031EF04F0B2EF04F0030E0C6EED0E6D
:100868000B6E000E77EC05F0070E0C6ED00E0B6EBB
:10087800010E77EC05F0070E0C6ED00E0B6E020E13
:1008880077EC05F0030E0C6EED0E0B6E030E77EC95
:1008980005F0050E0E6EDE0EE82EFED70E2EFCD7E6
:1008A800060E17181810D8B45CEF04F05EEF04F0C9
:1008B80060EF04F0B2EF04F0030E0C6EED0E0B6E59
:1008C800000E77EC05F0050E0C6EDC0E0B6E010EBB
:1008D80077EC05F0050E0C6EDC0E0B6E020E77EC55
:1008E80005F0030E0C6EED0E0B6E030E77EC05F0A3
:1008F800050E0E6EDE0EE82EFED70E2EFCD7060E67
:1009080017181810D8B48BEF04F08DEF04F08FEFA0
:1009180004F0B2EF04F0050E0C6EDC0E0B6E000E48
:1009280077EC05F0050E0C6EDC0E0B6E010E77EC05
:1009380005F0050E0C6EDC0E0B6E020E77EC05F062
:10094800050E0C6EDC0E0B6E030E77EC05F0050E33
:100958000E6EDE0EE82EFED70E2EFCD7120038ECF7
:1009680006F043EC06F0010E936E926A896A8A6A71
:1009780017501810D8A4C3EF04F0C5EF04F0C9EF5E
:1009880004F0C6EC05F0BCEF04F017041810D8A466
:10099800D0EF04F0D2EF04F0D6EF04F0E3EC05F06A
:1009A800BCEF04F0020E17181810D8A4DEEF04F0FC
:1009B800E0EF04F0E4EF04F000EC06F0BCEF04F024
:1009C800030E17181810D8A4ECEF04F0EEEF04F09B
:1009D800F2EF04F077EC00F0BCEF04F0040E171807
:1009E8001810D8A4FAEF04F0FCEF04F000EF05F0BB
:1009F800E4EC01F0BCEF04F0050E17181810D8A4A9
:100A080008EF05F00AEF05F00EEF05F051EC03F0E2
:100A1800BCEF04F0060E17181810D8A416EF05F04E
:100A280018EF05F01CEF05F002EC04F0BCEF04F041
:100A3800BCEF04F075EF00F0066A02BE28EF05F07F
:100A480026EF05F02EEF05F0016C021ED8B0022A41
:100A5800010E066E04BE35EF05F033EF05F039EFF1
:100A680005F0036C041ED8B0042A03500410D8B44F
:100A780040EF05F042EF05F066EF05F0010E056E58
:100A88004AEF05F0D89003360436052A04AE4FEF36
:100A980005F051EF05F046EF05F00350015C0450F6
:100AA8000258D8A05AEF05F05CEF05F060EF05F0AA
:100AB8000350015E0450025AD89004320332052EC6
:100AC80051EF05F00650D8B46CEF05F06EEF05F065
:100AD80072EF05F0016C021ED8B0022A01C001F0C5
:100AE80002C002F012000D6E040E0D607EEF05F0DC
:100AF80080EF05F0A0EF05F0F40E0B5C010E0C582A
:100B0800D8A089EF05F08BEF05F0A0EF05F0C50E32
:100B18000B5C090E0C58D8B094EF05F096EF05F071
:100B2800A0EF05F00D50020DF3500F0FD96EDA6AE1
:100B38000BC0DEFF0CC0DDFF12000600F2A2A7EF1B
:100B480005F0A9EF05F0C4EF05F0010E896E010E5E
:100B58001724016E000E1820026E000E046E070E98
:100B6800036E20EC05F001C017F002C018F0F292F5
:100B7800040E076E3E0EE82EFED7072EFCD7896AB4
:100B88001B921100050E0C6EDC0E0B6E000E77EC3E
:100B980005F0050E0C6EDC0E0B6E010E77EC05F001
:100BA800050E0C6EDC0E0B6E020E77EC05F0050ED2
:100BB8000C6EDC0E0B6E030E77EC05F01200050EC2
:100BC8000C6EDC0E0B6E000E77EC05F0050E0C6E4D
:100BD800DC0E0B6E010E77EC05F0090E0C6EC40EE0
:100BE8000B6E020E77EC05F0010E0C6EF40E0B6E18
:100BF800030E77EC05F01200090E0C6EC40E0B6E96
:100C0800000E77EC05F0010E0C6EF40E0B6E010E63
:100C180077EC05F0010E0C6EF40E0B6E020E77ECFD
:100C280005F0090E0C6EC40E0B6E030E77EC05F082
:100C38001200940EF66E0C0EF76E000EF86E00EEB3
:100C48000FF010EE08F00900F5CFEEFFE550E15087
:100C5800FAE11A6A196A186A176A1B901B92000E41
:100C6800F86E0001B3EF04F0880ED56ED768C10E98
:100C7800D66EF28AF28EF28CF194D08E1200F29235
:100C8800F28EF288F18C0F0EC16E1200DC05DC05C5
:040C9800DC05DC0596
:104BFE0000000000000000000000000000000000A7
:104C0E000000000000000000000000000000000096
:104C1E000000000000000307070F0F1F3F3F7E7CC0
:104C2E00FCF8F8F0F0E0C0C0E0F8FCFCFC38000046
:104C3E000000000000000000008080C0C0E0F0F026
:104C4E00F8F8FC7C7E3E3F1F1F0F07070303010091
:104C5E000000000000000000000000000000000046
:104C6E000000000000000000000000000000000036
:104C7E000000000000000000000000000000000026
:104C8E000000000000000000000000000000008096
:104C9E0000008080E02000C080E0F090004080C0E6
:104CAE00C0C081030307070F0F0F0F07010000009D
:104CBE000000000000000000070F0F0F070703831E
:104CCE00810000000000C0C0F07878F8F0C0C8FC89
:104CDE00FC0C0800000000000000000000000000B6
:104CEE0000000000000000000000000000000000B6
:104CFE0000000000000000000000000000000000A6
:104D0E0000000000000000000000004070FC3F3F6B
:104D1E00F2F0E3FFF9F9FCFCFFF9F9FFCECE07073D
:104D2E000F030370F0FEF2F2F0BC00000000000072
:104D3E000000000000000000C0E00000000600E1DE
:104D4E00FFFFFCF0F0E0F0F9F9FE7EFFFF9F9FEF12
:104D5E00D9E0E0F9FFFEFC8E80F0FC800000000040
:104D6E000000000000000000000000000000000035
:104D7E000000000000000000000000000000000025
:104D8E00000000000000000000001CF8F8FFFFFF0C
:104D9E00FFFFFFFFFFFFFFFFFFFFFFFFFFFFFFFF15
:104DAE00FEFEFEFEFFFF3F070400000000000000B5
:104DBE000000000000000000010F1F3EFEFFFFFF7D
:104DCE00FFFFFFFFFFFFFFFFFFFFFFFFFFFFFFFFE5
:104DDE00FFFFFFFFFFFFFFFF3F1F1F0F0000000041
:104DEE0000000000000000000000000000000000B5
:104DFE0000000000000000000000000000000000A5
:104E0E000000000000000000000000030F0F3FFF35
:104E1E00FFFFFFFFFFFFFFFFFFFFFFFFFFFFFFFF94
:104E2E00FFFFFF3F0F030000000000000000000026
:104E3E00000000000000000000000000010F1F1F16
:104E4E007FFFFFFFFFFFFFFFFFFFFFFFFFFFFFFFE4
:104E5E00FFFFFFFFFF7F1F070000000000000000A4
:104E6E000000000000000000000000000000000034
:104E7E000000000000000000000000000000000024
:104E8E000000000000000000000000000000000113
:104E9E00030707070F0F1F1F1F1F1F1F0F0F0707E8
:104EAE000703010000000000008080808080808069
:104EBE00C0C0C0C0C0C0C0C0C08080000000000024
:104ECE00000103070F1F3F3F3F3F3F3F3F3F3F3F25
:104EDE001F0F07030100000000000000000000008B
:104EEE0000000000000000000000000000000000B4
:104EFE0000000000000000000000000000000000A4
:104F0E000000000000000000000000000000000093
:104F1E0000000000000000000000000000001C3E29
:104F2E007EFEFEFFFFFFDFDFDFDFCF8F8F8F8F8FE6
:104F3E0087878787870707071F1FBFFFFEF8F8F0D1
:104F4E0080000000000000000000000000000000D3
:104F5E000000000000000000000000000000000043
:104F6E000000000000000000000000000000000033
:104F7E000000000000000000000000000000000023
:104F8E000000000000000000000000000000000013
:104F9E000000000000000000000000000000000003
:104FAE0000000103030707070707070F0F0F0F0F77
:104FBE000F0F0F0F0F1F1F1F1F1F1F1F0F0F070793
:104FCE0003000000000000000000000000000000D0
:104FDE0000000000000000000000000000000000C3
:104FEE0000000000000000000000000000000000B3
:104FFE0000000000000000000000000000000000A3
:10500E000000000000000000000000000000000092
:10501E000000000000000307070F0F1F3F3F7E7CBC
:10502E00FCF8F8F0F0E0C0C0E0F8FCFCFC38000042
:10503E000000000000000000008080C0C0E0F0F022
:10504E00F8F8FC7C7E3E3F1F1F0F0707030301008D
:10505E000000000000000000000000000000000042
:10506E000000000000000000000000000000000032
:10507E000000000000000000000000000000000022
:10508E000000000000000000000000000000008092
:10509E0000008080E020008080E0F0900040000062
:1050AE00000001030307070F0F0F0F070100000099
:1050BE000000000000000000070F0F0F070703039A
:1050CE00010000000000C0C080C0C0C0E040000071
:1050DE0000000000000000000000000000000000C2
:1050EE0000000000000000000000000000000000B2
:1050FE0000000000000000000000000000000000A2
:10510E000000000000000000000000C0F0FCFF9F47
:10511E00923023C7F7F9F9FFFF9F93F3E280E0F097
:10512E00600080F0F0FEF2F2F0BC00000000000023
:10513E00000000000000000000000080C0C0C09011
:10514E009E18080CF8E060C9C12307CFFC9898E0C0
:10515E00D8E0E0F9FFFEE08090E0000000000000E3
:10516E000000000000000000000000000000000031
:10517E000000000000000000000000000000000021
:10518E00000000000000000000001FFFFFFFFFFFF7
:10519E00FFFFFFFFFFFFFFFFFFFFFFFFFFFFFFFF11
:1051AE00FEFEFFFFFFFF3F070400000000000000AF
:1051BE0000000000000000000000002FFFFFFFFFB6
:1051CE00FFFEFCFCFFFFFFFFFFFFFFFFFFFFFFFFE8
:1051DE00FFFFFFFFFFFFFFFF3F000000000000008A
:1051EE0000000000000000000000000000000000B1
:1051FE0000000000000000000000000000000000A1
:10520E000000000000000000000000030F0F3FFF31
:10521E00FFFFFFFFFFFFFFFFFFFFFFFFFFFFFFFF90
:10522E00FFFFFF3F0F030000000000000000000022
:10523E00000000000000000000000000010F1F1F12
:10524E007FFFFFFFFFFFFFFFFFFFFFFFFFFFFFFFE0
:10525E00FFFFFFFFFF7F1F070000000000000000A0
:10526E000000000000000000000000000000000030
:10527E000000000000000000000000000000000020
:10528E00000000000000000000000000000000010F
:10529E00030707070F0F1F1F1F1F1F1F0F0F0707E4
:1052AE000703010000000000008080808080808065
:1052BE00C0C0C0C0C0C0C0C0C08080000000000020
:1052CE00000103070F1F3F3F3F3F3F3F3F3F3F3F21
:1052DE001F0F070301000000000000000000000087
:1052EE0000000000000000000000000000000000B0
:1052FE0000000000000000000000000000000000A0
:10530E00000000000000000000000000000000008F
:10531E0000000000000000000000000000001C3E25
:10532E007EFEFEFFFFFFDFDFDFDFCF8F8F8F8F8FE2
:10533E0087878787870707071F1FBFFFFEF8F8F0CD
:10534E0080000000000000000000000000000000CF
:10535E00000000000000000000000000000000003F
:10536E00000000000000000000000000000000002F
:10537E00000000000000000000000000000000001F
:10538E00000000000000000000000000000000000F
:10539E0000000000000000000000000000000000FF
:1053AE0000000103030707070707070F0F0F0F0F73
:1053BE000F0F0F0F0F1F1F1F1F1F1F1F0F0F07078F
:1053CE0003000000000000000000000000000000CC
:1053DE0000000000000000000000000000000000BF
:1053EE0000000000000000000000000000000000AF
:1053FE00000000000000000000000000000000009F
:10540E00000000000000000000000000000000008E
:10541E000000000000000307070F0F1F3F3F7E7CB8
:10542E00FCF8F8F0F0E0C0C0E0F8FCFCFC3800003E
:10543E000000000000000000008080C0C0E0F0F01E
:10544E00F8F8FC7C7E3E3F1F1F0F07070303010089
:10545E00000000000000000000000000000000003E
:10546E00000000000000000000000000000000002E
:10547E00000000000000000000000000000000001E
:10548E00000000000000000000000000000000808E
:10549E00000000000000008080E0F090004000005E
:1054AE00000001030307070F0F0F0F070100000095
:1054BE000000000000000000070F0F0F0707030396
:1054CE00010000000000C0C080000080000000004D
:1054DE0000000000000000000000000000000000BE
:1054EE0000000000000000000000000000000000AE
:1054FE00000000000000000000000000000000009E
:10550E000000000000000000000000C0F0FCFFFFE3
:10551E00FEF0E0C0F0FCFFFFFFFFFFFFE280E0F0D7
:10552E00600080F0F0F2FE040000000000000000B9
:10553E00000000000000000000000000C08000001D
:10554E00800070F8F8F870C9C1E3C7CFFFFEF8E02D
:10555E00D8E0E0F9FFFEE0C000000000000000000F
:10556E00000000000000000000000000000000002D
:10557E00000000000000000000000000000000001D
:10558E00000000000000000000001FFFFFFFFFFFF3
:10559E00FFFFFFFFFFFFFFFFFFFFFFFFFFFFFFFF0D
:1055AE00FEFEFFFFFFFF3F000000000000000000B6
:1055BE00000000000000000000000020FFFFFCFCC7
:1055CE00FFFEFCFCFFFFFFFFFFFFFFFFFFFFFFFFE4
:1055DE00FFFFFFFFFFFFFFFF3E0000000000000087
:1055EE0000000000000000000000000000000000AD
:1055FE00000000000000000000000000000000009D
:10560E000000000000000000000000030F0F3FFF2D
:10561E00FFFFFFFFFFFFFFFFFFFFFFFFFFFFFFFF8C
:10562E00FFFFFF3F0F03000000000000000000001E
:10563E00000000000000000000000000010F1F1F0E
:10564E007FFFFFFFFFFFFFFFFFFFFFFFFFFFFFFFDC
:10565E00FFFFFFFFFF7F1F0700000000000000009C
:10566E00000000000000000000000000000000002C
:10567E00000000000000000000000000000000001C
:10568E00000000000000000000000000000000010B
:10569E00030707070F0F1F1F1F1F1F1F0F0F0707E0
:1056AE000703010000000000008080808080808061
:1056BE00C0C0C0C0C0C0C0C0C0808000000000001C
:1056CE00000103070F1F3F3F3F3F3F3F3F3F3F3F1D
:1056DE001F0F070301000000000000000000000083
:1056EE0000000000000000000000000000000000AC
:1056FE00000000000000000000000000000000009C
:10570E00000000000000000000000000000000008B
:10571E0000000000000000000000000000001C3E21
:10572E007EFEFEFFFFFFDFDFDFDFCF8F8F8F8F8FDE
:10573E0087878787870707071F1FBFFFFEF8F8F0C9
:10574E0080000000000000000000000000000000CB
:10575E00000000000000000000000000000000003B
:10576E00000000000000000000000000000000002B
:10577E00000000000000000000000000000000001B
:10578E00000000000000000000000000000000000B
:10579E0000000000000000000000000000000000FB
:1057AE0000000103030707070707070F0F0F0F0F6F
:1057BE000F0F0F0F0F1F1F1F1F1F1F1F0F0F07078B
:1057CE0003000000000000000000000000000000C8
:1057DE0000000000000000000000000000000000BB
:1057EE0000000000000000000000000000000000AB
:1057FE00000000000000000000000000000000009B
:10580E00000000000000000000000000000000008A
:10581E00000000000000000000F0F0F0F0F0F0F0EA
:10582E00F0F000000000000000000000000000008A
:10583E00000000000000000000000000000000F06A
:10584E00F0F0F0F0F0F0F0F00000000000000000CA
:10585E00000000000000000000000000000000003A
:10586E00000000000000000000000000000000002A
:10587E00000000000000000000000000000000001A
:10588E00000000000000000000000000000000F812
:10589E00F8F8F8FEFEFEFEFEFEFFFFFFFFFFFFFF25
:1058AE00FFFF0000000000000000000000000000EC
:1058BE00000000000000000000000000000000FFDB
:1058CE00FFFFFFFFFFFFFFFFF8F8F8F8F8C0C0C0BA
:1058DE00C0000000000000000000000000000000FA
:1058EE0000000000000000000000000000000000AA
:1058FE00000000000000000000000000000000009A
:10590E00000000000000000000000000808080FF0A
:10591E00FFFFFFFFFFFFFFFFFFFFFFFFFFFFFFFF89
:10592E00FFFF00000000000000000000000000006B
:10593E00000000000000000000000000000000FF5A
:10594E00FFFFFFFFFFFFFFFFFFFFFFFFFFFFFFFF59
:10595E00FFF0F0000000000000000000000000005A
:10596E000000000000000000000000000000000029
:10597E000000000000000000000000000000000019
:10598E00000000000000000000808080FFFFFFFF8D
:10599E00FFFFFFFFFFFFFFFFFFFFFFFFFFFFFFFF09
:1059AE00FFFF0000000000000000000000000000EB
:1059BE00000000000000000000000000000000FFDA
:1059CE00FFFFFFFFFFFFFFFFFFFFFFFFFFFFFFFFD9
:1059DE00FFFFFFFEFE8080808000000000000000C0
:1059EE0000000000000000000000000000000000A9
:1059FE000000000000000000000000000000000099
:105A0E000000000070FCFEFFFFDF8F8F8F8F8FDF97
:105A1E00FFFFFFFFFF0F0F0F0F0F0F0F0F0F0F0FD8
:105A2E000F0F00000000000000000000000000004A
:105A3E000000000000000000000000000000000F49
:105A4E000F0F0F0F0F0F0F0F0F0F0F0F0F7FFFFF08
:105A5E00FFFFDF8F8F8F8F8FDFFFFFFEFCF80000C1
:105A6E000000000000000000000000000000000028
:105A7E000000000000000000000000000000000018
:105A8E000000000000010307070F0F0F0F0F0F0F8D
:105A9E0007070301000000000000000000000000E6
:105AAE0000000000000000000000000000000000E8
:105ABE0000000000000000000000000000000000D8
:105ACE0000000000000000000000000000000103C4
:105ADE0007070F0F0F0F0F0F0F070703818080802F
:105AEE0000000000000000000000000000000000A8
:105AFE000000000000000000000000000000000098
:105B0E00000078FCCCCCFC78000000000000000007
:105B1E00000000000000000000C0E0E0E0F0F0F83F
:105B2E007CFCFCF8F0E0F0F0F87C7C7CF8F8F0E01F
:105B3E00E0E0F0FCFE7E3E7C78F8F0F0E0E0E0E0A5
:105B4E00F0FC7C3CFCFCF8F0E0C000000000000023
:105B5E0000000000000000000000000E3F11113F89
:105B6E001F00000000000000000000000000000008
:105B7E00000000000000000000000000000020787F
:105B8E0058787000000000000000000000000000C7
:105B9E0000000000000000000001030303010100EB
:105BAE0000000103030301010000000000000103D7
:105BBE0003030100000000000000000101030303C5
:105BCE0001000000000103030301000000000000BB
:105BDE000000000000000000000000000000081E91
:105BEE00161E1C0000000000000000000000000057
:105BFE000000000000000000000000000000000097
:105C0E000000000000000000000000000000000086
:105C1E000000000000000000808080F0F0F0F0F046
:105C2E00F0F0000000000000000000000000000086
:105C3E00000000000000000000000000000000F066
:105C4E00F0F0F0F0C0C00000000000000000000006
:105C5E000000000000000000000000000000000036
:105C6E000000000000000000000000000000000026
:105C7E000000000000000000000000000000000016
:105C8E000000000000000000000000000000000006
:105C9E000000F8F8FEFEFEFEFFFFFFFFFFFFFFFF16
:105CAE00FFFF0000000000000000000000000000E8
:105CBE00000000000000000000000000000000FFD7
:105CCE00FFFFFFFFFFFFFEFEFEFEFCFCFC80808060
:105CDE008000000000000000000000000000000036
:105CEE0000000000000000000000000000000000A6
:105CFE000000000000000000000000000000000096
:105D0E00000000000000000000000000000000FC89
:105D1E00FCFEFFFFFFFFFFFFFFFFFFFFFFFFFFFF89
:105D2E00FFFF000000000000000000000000000067
:105D3E00000000000000000000000000000000FF56
:105D4E00FFFFFFFFFFFFFFFFFFFFFFFFFFFFFFFF55
:105D5E00FFFEC00000000000000000000000000078
:105D6E000000000000000000000000000000000025
:105D7E000000000000000000000000000000000015
:105D8E00000000000000000000808080E0FEFFFFA9
:105D9E00FFFFFFFFFFFFFFFFFFFFFFFFFFFFFFFF05
:105DAE00FFFF0000000000000000000000000000E7
:105DBE00000000000000000000000000000000FFD6
:105DCE00FFFFFFFFFFFFFFFFFFFFFFFFFFFFFFFFD5
:105DDE00FFFFFFF8F88080808000000000000000C8
:105DEE0000000000000000000000000000000000A5
:105DFE000000000000000000000000000000000095
:105E0E000000000070FCFEFFFFDF8F8F8F8F8FDF93
:105E1E00FFFFFFFFFF0F0F0F0F0F0F0F0F0F0F0FD4
:105E2E000F0F000000000000000000000000000046
:105E3E000000000000000000000000000000000F45
:105E4E000F0F0F0F0F0F0F0F0F0F0F0F0F7FFFFF04
:105E5E00FFFFDF8F8F8F8F8FDFFFFFFEFCF80000BD
:105E6E000000000000000000000000000000000024
:105E7E000000000000000000000000000000000014
:105E8E00000080C0E0616367E7EFCF0F0F0F0F0FC9
:105E9E0007070301000000000000000000000000E2
:105EAE0000000000000000000000000000000000E4
:105EBE0000000000000000000000000000000000D4
:105ECE0000000000000000000000000000000103C0
:105EDE0007070F0F0F0F0F0F0F07E7F3F1303030DB
:105EEE00F0E0C00000000000000000000000000014
:105EFE000000000000000000000000000000004054
:105F0E00F0B0B1F3E7060606070703000000000035
:105F1E0000000000000000000000000080C0E0F063
:105F2E00F8FCFC7CFCFCF8F0C0E0F8FCFEFE7EFC0D
:105F3E00F8F8F0E0F0F0F8FCFE7E7E7CFCF8F8F06D
:105F4E00F0E0E0C0C0800000000000000000000093
:105F5E0000000000000000000000010303037B7F2F
:105F6E006D6D7C10000000000000000000000000BD
:105F7E000000000000000000000000000000000013
:105F8E000000000000000000000000000000000003
:105F9E0000000000000000000000000003070707DB
:105FAE0003010000010307070707070301000001B3
:105FBE0003070707030301000000000000000101B2
:105FCE0003030707070300000000000000000000A5
:105FDE0000000000000000000000000000000000B3
:105FEE0000000000000000000000000000000000A3
:105FFE000000000000000000000000000000000093
:10600E000000000000000000000000000000000082
:10601E0000000000000000000080808080F0F0F0A2
:10602E00F0F0000000000000000000000000000082
:10603E00000000000000000000000000000000F062
:10604E00F0F0F0F000000000000000000000000082
:10605E000000000000000000000000000000000032
:10606E000000000000000000000000000000000022
:10607E000000000000000000000000000000000012
:10608E000000000000000000000000000000000002
:10609E00000000000000FEFEFEFFFFFFFFFFFFFFFF
:1060AE00FFFF0000000000000000000000000000E4
:1060BE00000000000000000000000000000000FFD3
:1060CE00FFFFFFFFFFFFFFFFF0F0F0F0000000000A
:1060DE0000000000000000000000000000000000B2
:1060EE0000000000000000000000000000000000A2
:1060FE000000000000000000000000000000000092
:10610E00000000000000000000000000000000F091
:10611E00F0F0F0FFFFFFFFFFFFFFFFFFFFFFFFFFAE
:10612E00FFFF000000000000000000000000000063
:10613E00000000000000000000000000000000FF52
:10614E00FFFFFFFFFFFFFFFFFFFFFFFFF8F8F8F86D
:10615E00F880808080000000000000000000000039
:10616E000000000000000000000000000000000021
:10617E000000000000000000000000000000000011
:10618E00000000000000000000808080F0F0F0FFB2
:10619E00FFFFFFFFFFFFFFFFFFFFFFFFFFFFFFFF01
:1061AE00FFFF0000000000000000000000000000E3
:1061BE00000000000000000000000000000000FFD2
:1061CE00FFFFFFFFFFFFFFFFFFFFFFFFFFFFFFFFD1
:1061DE00FFFFFFFFFF8080808000000000000000B6
:1061EE0000000000000000000000000000000000A1
:1061FE000000000000000000000000000000000091
:10620E000000000070FCFEFFFFDF8F8F8F8F8FDF8F
:10621E00FFFFFFFFFF0F0F0F0F0F0F0F0F0F0F0FD0
:10622E000F0F000000000000000000000000000042
:10623E000000000000000000000000000000000F41
:10624E000F0F0F0F0F0F0F0F0F0F0F0F0F7FFFFF00
:10625E00FFFFDF8F8F8F8F8FDFFFFFFEFCF80000B9
:10626E000000000000000000000000000000000020
:10627E000000000000000000000000000000000010
:10628E000000000000010307070F0F0F0F0F0F0F85
:10629E0007070301000000000000000000000000DE
:1062AE0000000000000000000000000000000000E0
:1062BE0000000000000000000000000000000000D0
:1062CE0000000000000000000000000000000103BC
:1062DE0007070F0F0F0F0F0F0F0707030100000027
:1062EE0000000000000000000000000000000000A0
:1062FE000000000000000000000000000000000090
:10630E00000000000000000000000000000000007F
:10631E0000000000000000000000000080C0E0F05F
:10632E00F8FCFCFCF8F0E0F0FCFEFE7EFCFCF8F065
:10633E00F0F8FCFC7C7CFCFCF8F0E0F0FCFEFEFED1
:10634E00FCF8F0C08000000000000000000000001B
:10635E00000000000000000000000000000000002F
:10636E00000000000000000000000000000000001F
:10637E00000000000000000000000000000000000F
:10638E0000000000000000000000000000000000FF
:10639E0000000000000000000000000003070707D7
:1063AE00030101030707070707030000010307079F
:1063BE000707030100000003070707070301000199
:1063CE0003070707030000000000000000000000A4
:1063DE0000000000000000000000000000000000AF
:1063EE00000000000000000000000000000000009F
:1063FE00000000000000000000000000000000008F
:10640E00000000000000000000000000000080807E
:10641E0080808080800000000000000000000000EE
:10642E00000000000000000000000000000000005E
:10643E00000000000000000000000000000000004E
:10644E00000000000000000000000000808080803E
:10645E0080808000000000000000000000000000AE
:10646E00000000000000000000000000000000001E
:10647E00000000000000000000000000000000000E
:10648E00000000000080C0F0FCFCFE7F7F3F3F1F3D
:10649E001F1F1F1F3F7F7FFEFCFCF0C0800000000F
:1064AE0000000000000000000000000000000000DE
:1064BE0000000000000000000000000000000000CE
:1064CE0000000080C0F0F8F8FC7E7E3E3F1F1F1FCC
:1064DE001F1F3F7E7EFCF8F8F0C080000000000019
:1064EE00000000000000000000000000000000009E
:1064FE00000000000000000000000000000000008E
:10650E0000000000FCFFFFFFFF0F01000000000075
:10651E00000000000000000103FFFFFFFFFE00006F
:10652E00000000000000000000000000000000005D
:10653E00000000000000000000000000000000004D
:10654E000000F8FFFFFFFF0F030000000000000037
:10655E0000000000000307FFFFFFFFFC000000002B
:10656E00000000000000000000000000000000001D
:10657E00000000000000000000000000000000000D
:10658E0000000000031F3FFFFFFEFCE0E0C0808024
:10659E0080808080C0E0E0FCFEFFFF3F1F03000014
:1065AE0000000000000000000000000000000000DD
:1065BE0000000000000000000000000000000000CD
:1065CE000000071F3FFFFFFCF8E0E0C080808080E6
:1065DE008080C0E0E0F8FCFFFF3F1F0700000000D6
:1065EE00000000000000000000000000000000009D
:1065FE00000000000000000000000000000000008D
:10660E0000000000000000000101070F0F1F1F1FF8
:10661E001F1F1F1F1F0F0F070101000000000000AA
:10662E000080E0F0F0F0E0C0C0808080808080804C
:10663E00C0C0C0C0C0E0E0E0E0E0C000000000006C
:10664E000000000000000303070F0F1F1F1F1F1F76
:10665E001F1F1F0F0F0703030000000000000000A4
:10666E00000000000000000000000000000000001C
:10667E00000000000000000000000000000000000C
:10668E0000000000000000000000000000000000FC
:10669E0000000000000000000000000000000000EC
:1066AE000007FFFFFFFFFF0F0F0F0F0F0F0F0F0F53
:1066BE00070707070707030FFFFFFFFFF0000000A4
:1066CE0000000000000000000000000000000000BC
:1066DE0000000000000000000000000000000000AC
:1066EE00000000000000000000000000000000009C
:1066FE00000000000000000000000000000000008C
:10670E00000000000000000000000000000000007B
:10671E0000000000000000000000000000000080EB
:10672E00C0E0F8FFFFFF7F0F000000000000000038
:10673E00000000000000000003FFFFFFFFFE00004E
:10674E00000000000000000000000000000000003B
:10675E00000000000000000000000000000000002B
:10676E00000000000000000000000000000000001B
:10677E00000000000000000000000000000000000B
:10678E0000000000000000000000000000000000FB
:10679E0000000000000000000000000000000307E1
:1067AE000F0F0F0F0F1F1F1F1F1F1F1F1F1F1F1F3B
:1067BE003E3E3E3E3E3F1F1F1F0F0F0F0F030000BA
:1067CE0000000000000000000000000000000000BB
:1067DE0000000000000000000000000000000000AB
:1067EE00000000000000000000000000000000009B
:1067FE00000000000000000000000000000000008B
:10680E00000000000000000000000000000080807A
:10681E0080808080800000000000000000000000EA
:10682E00000000000000000000000000000000005A
:10683E00000000000000000000000000000000004A
:10684E00000000000000000000000000808080803A
:10685E00808080000000001C3F3F3F1F0700031F89
:10686E007FFFFFFEF0E0F0F8FEFF7FBFFFFFFFFFB0
:10687E00FF0000000000000000000000000000000B
:10688E00000000000080C0F0FCFCFE7F7F3F3F1F39
:10689E001F1F1F1F3F7F7FFEFCFCF0C0800000000B
:1068AE0000000000000000000000000000000000DA
:1068BE0000000000000000000000000000000000CA
:1068CE0000000080C0F0F8F8FC7E7E3E3F1F1F1FC8
:1068DE001F1F3F7E7EFCF8F8F0C080000000000015
:1068EE0000010303030303030100F0FFFFFFFFDFBB
:1068FE00800000000000000000000000000000000A
:10690E0000000000FCFFFFFFFF0F01000000000071
:10691E00000000000000000103FFFFFFFFFE00006B
:10692E000000000000000000000000000000000059
:10693E000000000000000000000000000000000049
:10694E000000F8FFFFFFFF0F030000000000000033
:10695E0000000000000307FFFFFFFFFC0000000027
:10696E0000000000000000000000010303070F8F6D
:10697E00DF0000000000000000000000000000002A
:10698E0000000000031F3FFFFFFEFCE0E0C0808020
:10699E0080808080C0E0E0FCFEFFFF3F1F03000010
:1069AE0000000000000000000000000000000000D9
:1069BE0000000000000000000000000000000000C9
:1069CE000000071F3FFFFFFCF8E0E0C080808080E2
:1069DE008080C0E0E0F8FCFFFF3F1F0700000000D2
:1069EE000000000000000000C0E0F0F8FCFE7F3F59
:1069FE001F0000000000000000000000000000006A
:106A0E0000000000000000000101070F0F1F1F1FF4
:106A1E001F1F1F1F1F0F0F070101000000000000A6
:106A2E000080E0F0F0F0E0C0C08080808080808048
:106A3E00C0C0C0C0C0E0E0E0E0E0C0000000000068
:106A4E000000000000000303070F0F1F1F1F1F1F72
:106A5E001F1F1F0F0F0703030000000000000000A0
:106A6E00000000000000000001030303010000000D
:106A7E000000000000000000000000000000000008
:106A8E0000000000000000000000000000000000F8
:106A9E0000000000000000000000000000000000E8
:106AAE000007FFFFFFFFFF0F0F0F0F0F0F0F0F0F4F
:106ABE00070707070707030FFFFFFFFFF0000000A0
:106ACE0000000000000000000000000000000000B8
:106ADE0000000000000000000000000000000000A8
:106AEE000000000000000000000000000000000098
:106AFE000000000000000000000000000000000088
:106B0E000000000000000000000000000000000077
:106B1E0000000000000000000000000000000080E7
:106B2E00C0E0F8FFFFFF7F0F000000000000000034
:106B3E00000000000000000003FFFFFFFFFE00004A
:106B4E000000000000000000000000000000000037
:106B5E000000000000000000000000000000000027
:106B6E000000000000000000000000000000000017
:106B7E000000000000000000000000000000000007
:106B8E0000000000000000000000000000000000F7
:106B9E0000000000000000000000000000000307DD
:106BAE000F0F0F0F0F1F1F1F1F1F1F1F1F1F1F1F37
:106BBE003E3E3E3E3E3F1F1F1F0F0F0F0F030000B6
:106BCE0000000000000000000000000000000000B7
:106BDE0000000000000000000000000000000000A7
:106BEE000000000000000000000000000000000097
:106BFE000000000000000000000000000000000087
:106C0E000000000000000000000000000000000076
:106C1E000000000000000000000000000000000066
:106C2E000000000000000000000000000000000056
:106C3E000000000000000000000000000000000046
:106C4E000000000000000000000000000000000036
:106C5E0080C0C0C0C0C0C0C0C0C0C0C0C080000026
:106C6E000E1F9FDFFFFFFFFFFFFF7F7F3F1E000016
:106C7E000000000000000000000000000000000006
:106C8E0000000000000000000000000000000000F6
:106C9E0000000000000000000000000000000000E6
:106CAE0000000000000000000000000000000000D6
:106CBE0000000000000000000000000000000000C6
:106CCE000000000000000000000000000000008036
:106CDE00C3C7E7F7FFFFFFFFFFBF9F9F8F87808E22
:106CEE001F3F3F3F3F3F3F3F3F3E3E3E3E3E3E3ECD
:106CFE001C0000000000000000000000000000006A
:106D0E000000000000000000000000000000000075
:106D1E000000000000000000000000000000000065
:106D2E000000000000000000000000000000000055
:106D3E000000000000000000000000000000000045
:106D4E000000000000000000000000000000000332
:106D5E00070F0F0F0F0F0F0F0F0F0F0F0F0F0F0F3D
:106D6E00070000000000000000000000000000000E
:106D7E000000000000000000000000000000000005
:106D8E0000000000000000000000000000000000F5
:106D9E0000000000000000000000000000000000E5
:106DAE0000000000000000000000000000000000D5
:106DBE0000000000000000000000000000000000C5
:106DCE0000000000000000000000000000000000B5
:106DDE0000000000000000000000000000000000A5
:106DEE000000000000000000000000000000000095
:106DFE00000000000000000000000000000070F81D
:106E0E00F8F8F8F8F8F8F8F8F8F8F8F8F8F8F8F8F4
:106E1E00F8F8F8F8F8F8F8F8F8F8F8F8F8F8F8F8E4
:106E2E00F8700000000000000000000000000000EC
:106E3E000000000000000000000000000000000044
:106E4E00000070F8F8F8F8F8F8F8F8F8F8F8F8F82C
:106E5E00F8F8F8F8F8F8F8F8F8F8F8F8F8F8F8F8A4
:106E6E00F8F8F8F8F87000000000000000000000CC
:106E7E000000000000000000000000000000000004
:106E8E0000000000000000000000000000000000F4
:106E9E0000000000000000000000000000000000E4
:106EAE0000000000000000000000000000000000D4
:106EBE0000000000000000000000000000000000C4
:106ECE0000000000000000000000000000000000B4
:106EDE0000000000000000000000000000000000A4
:106EEE000000000000000000000000000000000094
:106EFE000000000000000000000000000000000084
:106F0E000000000000000000000000000000000073
:106F1E000000000000000000000000000000000063
:106F2E000070F8F8F8FC7C7C7C7E3E3E3E3F1F1FD6
:106F3E001F1F1F3F3E3E3E7EFCFCFCFCF8F8F87027
:106F4E000000000000000000000000000000000033
:106F5E000000000000000000000000000000000023
:106F6E000000000000000000000000000000000013
:106F7E000000000000000000000000000000000003
:106F8E0000000000000000000000000000000000F3
:106F9E0000000000000000000000000000000000E3
:106FAE0000000000000000000000000000000000D3
:106FBE000000000000000000070F0F0F0700000088
:106FCE0000000000000000000000000000000000B3
:106FDE0000000000000000000000000000000000A3
:106FEE000000000000000000000000000000000093
:106FFE000000000000000000000000000000000083
:10700E000000000000000000000000000000000072
:10701E000000000000000000000000000000000062
:10702E000000000000000000000000000000000052
:10703E000000000000000000000000000000000042
:10704E000000000000000000000000000000000032
:10705E0000000000000000000000000000001C3EC8
:10706E003EBEFEFEFEFEFEFEFEFE7E3C000000006C
:10707E000000000000000000000000000000000002
:10708E0000000000000000000000000000000000F2
:10709E0000000000000000000000000000000000E2
:1070AE0000000000000000000000000000000000D2
:1070BE0000000000000000000000000000000000C2
:1070CE000000000000000000000000387C7C7CFC0A
:1070DE00FCFCFCFCFCFCFCFC78000000001C3E7E72
:1070EE007F7F7F7F7F7F7F7D7C7C7C7C7C7C38007C
:1070FE000000000000000000000000000000000082
:10710E000000000000000000000000000000000071
:10711E000000000000000000000000000000000061
:10712E000000000000000000000000000000000051
:10713E000000000000000000000000000000000041
:10714E0000000000000000000000387CFCFEFFFF85
:10715E00FFFFFFFFFBF9F9F8F8F8F87000000000E8
:10716E000000000000000000000000000000000011
:10717E000000000000000000000000000000000001
:10718E0000000000000000000000000000000000F1
:10719E0000000000000000000000000000000000E1
:1071AE0000000000000000000000000000000000D1
:1071BE0000000000000000000000000000000000C1
:1071CE0000000000000000000000000000000000B1
:1071DE0000000000000000000000000000000000A1
:1071EE000000000000000000000000000000000091
:1071FE00000000000000000000000000000070F819
:10720E00F8F8F8F8F8F8F8F8F8F8F8F8F8F8F8F8F0
:10721E00F8F8F8F8F8F8F8F8F8F8F8F8F8F8F8F8E0
:10722E00F8700000000000000000000000000000E8
:10723E000000000000000000000000000000000040
:10724E00000070F8F8F8F8F8F8F8F8F8F8F8F8F828
:10725E00F8F8F8F8F8F8F8F8F8F8F8F8F8F8F8F8A0
:10726E00F8F8F8F8F87000000000000000000000C8
:10727E000000000000000000000000000000000000
:10728E0000000000000000000000000000000000F0
:10729E0000000000000000000000000000000000E0
:1072AE0000000000000000000000000000000000D0
:1072BE0000000000000000000000000000000000C0
:1072CE0000000000000000000000000000000000B0
:1072DE0000000000000000000000000000000000A0
:1072EE000000000000000000000000000000000090
:1072FE000000000000000000000000000000000080
:10730E00000000000000000000000000000000006F
:10731E00000000000000000000000000000000005F
:10732E000070F8F8F8FC7C7C7C7E3E3E3E3F1F1FD2
:10733E001F1F1F3F3E3E3E7EFCFCFCFCF8F8F87023
:10734E00000000000000000000000000000000002F
:10735E00000000000000000000000000000000001F
:10736E00000000000000000000000000000000000F
:10737E0000000000000000000000000000000000FF
:10738E0000000000000000000000000000000000EF
:10739E0000000000000000000000000000000000DF
:1073AE0000000000000000000000000000000000CF
:1073BE000000000000000000070F0F0F0700000084
:1073CE0000000000000000000000000000000000AF
:1073DE00000000000000000000000000000000009F
:1073EE00000000000000000000000000000000008F
:1073FE00000000000000000000000000000000007F
:10740E00000000000000000000000000000000006E
:10741E00000000000000000000000000000000005E
:10742E00000000000000000000000000000000004E
:10743E00000000000000000000000000000000003E
:10744E00000000000000000000000000000000002E
:10745E000000000000000000000000E0F0F0F0F07E
:10746E00F0F0F0F0F0F0F0F0E000000000000000AE
:10747E0000000000000000000000000000000000FE
:10748E0000000000000000000000000000000000EE
:10749E0000000000000000000000000000000000DE
:1074AE0000000000000000000000000000000000CE
:1074BE0000000000000000000000000000000000BE
:1074CE0000000000000000000000E0F0F0F0F0F01E
:1074DE00F0F0F0F0F0F0F0E00000E0F0F1F9FDFF78
:1074EE00FFFFFFFFEFE7E7E3E1E0E0C00000000091
:1074FE00000000000000000000000000000000007E
:10750E00000000000000000000000000000000006D
:10751E00000000000000000000000000000000005D
:10752E00000000000000000000000000000000004D
:10753E00000000000000000000000000000000003D
:10754E00000000000000000000E0F0F1F9FDFFFF78
:10755E00FFFFFFEFE7E7E3E1E0E0C0010303030312
:10756E0003030303030303030303030100000000EB
:10757E0000000000000000000000000000000000FD
:10758E0000000000000000000000000000000000ED
:10759E0000000000000000000000000000000000DD
:1075AE0000000000000000000000000000000000CD
:1075BE0000000000000000000000000000000000BD
:1075CE00000000000000000000000103030303039D
:1075DE00030303030303030303030100000000007E
:1075EE00000000000000000000000000000000008D
:1075FE00000000000000000000000000000070F815
:10760E00F8F8F8F8F8F8F8F8F8F8F8F8F8F8F8F8EC
:10761E00F8F8F8F8F8F8F8F8F8F8F8F8F8F8F8F8DC
:10762E00F8700000000000000000000000000000E4
:10763E00000000000000000000000000000000003C
:10764E00000070F8F8F8F8F8F8F8F8F8F8F8F8F824
:10765E00F8F8F8F8F8F8F8F8F8F8F8F8F8F8F8F89C
:10766E00F8F8F8F8F87000000000000000000000C4
:10767E0000000000000000000000000000000000FC
:10768E0000000000000000000000000000000000EC
:10769E0000000000000000000000000000000000DC
:1076AE0000000000000000000000000000000000CC
:1076BE0000000000000000000000000000000000BC
:1076CE0000000000000000000000000000000000AC
:1076DE00000000000000000000000000000000009C
:1076EE00000000000000000000000000000000008C
:1076FE00000000000000000000000000000000007C
:10770E00000000000000000000000000000000006B
:10771E00000000000000000000000000000000005B
:10772E000070F8F8F8FC7C7C7C7E3E3E3E3F1F1FCE
:10773E001F1F1F3F3E3E3E7EFCFCFCFCF8F8F8701F
:10774E00000000000000000000000000000000002B
:10775E00000000000000000000000000000000001B
:10776E00000000000000000000000000000000000B
:10777E0000000000000000000000000000000000FB
:10778E0000000000000000000000000000000000EB
:10779E0000000000000000000000000000000000DB
:1077AE0000000000000000000000000000000000CB
:1077BE000000000000000000070F0F0F0700000080
:1077CE0000000000000000000000000000000000AB
:1077DE00000000000000000000000000000000009B
:1077EE00000000000000000000000000000000008B
:1077FE00000000000000000000000000000000007B
:10780E00000000000000000000000000000000006A
:10781E00000000000000000000000000000000005A
:10782E00000000000000000000000000000000004A
:10783E00000000000000000000000000000000003A
:10784E00000000000000000000000000000000002A
:10785E00000000000000000000000000000000001A
:10786E00000000000000000000000000000000000A
:10787E0000000000000000000000000000000000FA
:10788E00000000E0F0F0F0E0E0C0808000000000BA
:10789E0000000000000000000000000000000000DA
:1078AE0000000000000000000000000000000000CA
:1078BE0000000000000000000000000000000000BA
:1078CE0000000000000000000000000000000000AA
:1078DE0000000000008080C0E0E0F0F0F0E000006A
:1078EE00000000000000000000000000000000008A
:1078FE00000000000000000000000000000000007A
:10790E000000000001010307070F0F1F3F3F7EFC21
:10791E00FCF8F8F0E0E0C0808000000000000000FD
:10792E000000000000000000000000000000000049
:10793E000000000000000000000000000000000039
:10794E0000000000000000008080C0E0E0F0F8F8C9
:10795E00FCFC7E3F3F1F0F0F0707030101000000D5
:10796E000000000000000000000000000000000009
:10797E0000000000000000000000000000000000F9
:10798E0000000000000000000000000000000000E9
:10799E000001010307878FCFFFFFFFFEFCFC78007D
:1079AE0000000000000000000000000000000000C9
:1079BE0000000000000000000000000000000000B9
:1079CE00000078FCFCFEFFFFFFCF8F87070301014D
:1079DE000000000000000000000000000000000099
:1079EE000000000000000000000000000000000089
:1079FE000000000000000000000000000000000079
:107A0E000000000000000000008080C0E0E0F0F800
:107A1E00F8FC7E7E3F1F1F0F0707030101000000C9
:107A2E000000000000000000000000000000000048
:107A3E000000000000000000000000000000000038
:107A4E000000000001010307070F1F1F3F7E7EFC91
:107A5E00F8F8F0E0E0C080800000000000000000B8
:107A6E000000000000000000000000000000000008
:107A7E0000000000000000000000000000000000F8
:107A8E00000070F8F8FC7E7E3F1F1F0F07070301F2
:107A9E0001000000000000000000000000000000D7
:107AAE000000001C3EFEFEFEFEFEFEBE3E3E3E3EC4
:107ABE003E3E3E3EBEFEFEFEFEFEFE3E1C000000B4
:107ACE0000000000000000000000000000000000A8
:107ADE0001010307070F1F1F3F7E7EFCF8F87000A1
:107AEE000000000000000000000000000000000088
:107AFE000000000000000000000000000000000078
:107B0E000000000000000000000000000000000067
:107B1E000000000000000000000000000000000057
:107B2E000000000000000103070F3F7FFFFEF8F08A
:107B3E00F0F8FEFF7F3F1F0703010000000000006A
:107B4E000000000000000000000000000000000027
:107B5E000000000000000000000000000000000017
:107B6E000000000000000000000000000000000007
:107B7E0000000000000000000000000000000000F7
:107B8E0000000000000000000000000000000000E7
:107B9E0000000000000000000000000000000000D7
:107BAE0000000000000000000000000000010707B8
:107BBE0007070300000000000000000000000000A6
:107BCE0000000000000000000000000000000000A7
:107BDE000000000000000000000000000000000097
:107BEE000000000000000000000000000000000087
:107BFE000000000000000000000000000000000077
:107C0E000000000000000000000000000000000066
:107C1E000000000000000000000000000000000056
:107C2E000000000000000000000000000000000046
:107C3E000000000000000000000000000000000036
:107C4E000000000000000000000000000000000026
:107C5E000000000000000000000000000000000016
:107C6E000000000000000000000000000000000006
:107C7E0000000000000000000000000000000000F6
:107C8E0000000000000000000000000000E0E0E046
:107C9E00E0E0E0E0E0E0E0E0E0E0E0E0E0E0E0E0D6
:107CAE00E0E0E0E0E0E0E0000000000000000000A6
:107CBE00000000000000000000000000E0E0E0E036
:107CCE00E0E0E0E0E0E0E0E0E0E0E0E0E0E0E0E0A6
:107CDE00E0E0E0E0E0E00000000000000000000056
:107CEE000000000000000000000000000000000086
:107CFE000000000000000000000000000000000076
:107D0E0000000000000000000000000000FFFFFF68
:107D1E00FFFFFFFFFFFFFFFFFFFFFFFFFFFFFFFF65
:107D2E00FFFFFFFFFFFFFF0000000000000000004C
:107D3E00000000000000000000000000FFFFFFFF39
:107D4E00FFFFFFFFFFFFFFFFFFFFFFFFFFFFFFFF35
:107D5E00FFFFFFFFFFFF000000000000000000001B
:107D6E000000000000000000000000000000000005
:107D7E0000000000000000000000000000000000F5
:107D8E0000000000000000000000000000FFFFFFE8
:107D9E00FFFFFFFFFFFFFFFFFFFFFFFFFFFFFFFFE5
:107DAE00FFFFFFFFFFFFFF000000000000000000CC
:107DBE00000000000000000000000000FFFFFFFFB9
:107DCE00FFFFFFFFFFFFFFFFFFFFFFFFFFFFFFFFB5
:107DDE00FFFFFFFFFFFF000000000000000000009B
:107DEE000000000000000000000000000000000085
:107DFE000000000000000000000000000000000075
:107E0E0000000000000000000000000000FFFFFF67
:107E1E00FFFFFFFFFFFFFFFFFFFFFFFFFFFFFFFF64
:107E2E00FFFFFFFFFFFFFF0000000000000000004B
:107E3E00000000000000000000000000FFFFFFFF38
:107E4E00FFFFFFFFFFFFFFFFFFFFFFFFFFFFFFFF34
:107E5E00FFFFFFFFFFFF000000000000000000001A
:107E6E000000000000000000000000000000000004
:107E7E0000000000000000000000000000000000F4
:107E8E0000000000000000000000000000FFFFFFE7
:107E9E00FFFFFFFFFFFFFFFFFFFFFFFFFFFFFFFFE4
:107EAE00FFFFFFFFFFFFFF000000000000000000CB
:107EBE00000000000000000000000000FFFFFFFFB8
:107ECE00FFFFFFFFFFFFFFFFFFFFFFFFFFFFFFFFB4
:107EDE00FFFFFFFFFFFF000000000000000000009A
:107EEE000000000000000000000000000000000084
:107EFE000000000000000000000000000000000074
:107F0E00000000000000000000000000003F3F3FA6
:107F1E003F3F3F3F3F3F3F3F3F3F3F3F3F3F3F3F63
:107F2E003F3F3F3F3F3F3F0000000000000000008A
:107F3E000000000000000000000000003F3F3F3F37
:107F4E003F3F3F3F3F3F3F3F3F3F3F3F3F3F3F3F33
:107F5E003F3F3F3F3F3F0000000000000000000099
:107F6E000000000000000000000000000000000003
:107F7E0000000000000000000000000000000000F3
:107F8E0000000000000000000000000000000000E3
:107F9E0000000000000000000000000000000000D3
:107FAE0000000000000000000000000000000000C3
:107FBE0000000000000000000000000000000000B3
:107FCE0000000000000000000000000000000000A3
:107FDE000000000000000000000000000000000093
:107FEE000000000000000000000000000000000083
:027FFE00000081
:020000040020DA
:08000000FFFFFFFFFFFFFFFF00
:020000040030CA
:0E000000FF081B1EFF8181FF0FC00FE00F40A5
:00000001FF
