:020000040000FA
:0400000076EF00F0A7
:060008002C82FCED09F062
:100018002C80D8CF04F0E8CF05F0E0CF06F0F2A4AA
:1000280018EF00F01AEF00F06EEF00F0F294FE0EF9
:10003800D76E0C0ED66EF40E2A26010E2B221E50F9
:100048002A5C1F502B58D8B02CEF00F02EEF00F090
:1000580031EF00F08A8232EF00F08A9220502A5C59
:1000680021502B58D8B03BEF00F03DEF00F040EFA7
:1000780000F08A8441EF00F08A9422502A5C2350D1
:100088002B58D8B04AEF00F04CEF00F04FEF00F0DB
:100098008A8650EF00F08A9624502A5C25502B5807
:1000A800D8B059EF00F05BEF00F05EEF00F08A88FF
:1000B8005FEF00F08A98200E2A5C4E0E2B58D8A0CD
:1000C80068EF00F06AEF00F06EEF00F0000E2B6EA4
:1000D800000E2A6E06C0E0FF05C0E8FF04C0D8FF86
:1000E8002C901000ADEF0BF0600ED36E0DEC0CF001
:1000F800010E936E8A6AE0EC0BF0800E146E1A0EF5
:10010800156E060E166E000E176EDCEC0AF0060E63
:100118001D6E130E1C6EAE0EE82EFED71C2EFCD7DD
:100128001D2EFAD7F3EC08F0030E1D6E8A0E1C6E16
:10013800560EE82EFED71C2EFCD71D2EFAD72828DF
:1001480006E12928D8A4ABEF00F0ADEF00F0B5EF39
:1001580000F0FF0E0A6E7B0E0B6EA1EC0AF0A3EF07
:1001680000F028502910D8B4BCEF00F0BEEF00F022
:10017800C8EF00F0650E28182910D8A4C6EF00F0C3
:10018800C8EF00F0E3EF00F08AEC08F0CEEF00F0E3
:1001980032EC0BF028502910D8B4D5EF00F0D7EF87
:1001A80000F0CCEF00F0650E28182910D8B4DFEF66
:1001B80000F0E1EF00F0CCEF00F0A3EF00F028042E
:1001C8002910D8B4EAEF00F0ECEF00F000EF01F0EE
:1001D800660E28182910D8A4F4EF00F0F6EF00F006
:1001E80015EF01F000EF01F0FF0E0A6E770E0B6EAF
:1001F800A1EC0AF05BEC0BF028042910D8B407EF47
:1002080001F009EF01F0F8EF00F0660E2818291048
:10021800D8B411EF01F013EF01F0F8EF00F0A3EFFD
:1002280000F0020E28182910D8B41DEF01F01FEFB6
:1002380001F029EF01F0670E28182910D8A427EF3C
:1002480001F029EF01F091EF01F084EC0BF07BEF66
:1002580001F0020E28182910D8B435EF01F037EF55
:1002680001F043EF01F0670E28182910D8B43FEFCA
:1002780001F041EF01F043EF01F0A3EF00F0FF0EB2
:100288000A6E730E0B6EA1EC0AF0040E1D6ECF0EF3
:100298001C6E020EE82EFED71C2EFCD71D2EFAD798
:1002A800020E28182910D8B45CEF01F05EEF01F0B7
:1002B8006AEF01F0670E28182910D8B466EF01F02C
:1002C80068EF01F06AEF01F0A3EF00F0FF0E0A6E8D
:1002D8006F0E0B6EA1EC0AF0040E1D6ECF0E1C6E95
:1002E800020EE82EFED71C2EFCD71D2EFAD7020EC2
:1002F80028182910D8B483EF01F085EF01F02DEF0D
:1003080001F0670E28182910D8B48DEF01F08FEF8F
:1003180001F02DEF01F0A3EF00F0030E28182910CB
:10032800D8B499EF01F09BEF01F0A5EF01F0610E51
:1003380028182910D8A4A3EF01F0A5EF01F0C5EF04
:1003480001F0FF0E0A6E670E0B6EA1EC0AF0AFEF1C
:1003580001F091EC02F0030E28182910D8B4B7EF79
:1003680001F0B9EF01F0ADEF01F0610E2818291086
:10037800D8B4C1EF01F0C3EF01F0ADEF01F0A3EF86
:1003880000F0040E28182910D8B4CDEF01F0CFEFF3
:1003980001F0D9EF01F0630E28182910D8A4D7EF7F
:1003A80001F0D9EF01F0F9EF01F0FF0E0A6E6B0EC4
:1003B8000B6EA1EC0AF0E3EF01F06CEC04F0040E14
:1003C80028182910D8B4EBEF01F0EDEF01F0E1EFB8
:1003D80001F0630E28182910D8B4F5EF01F0F7EFF3
:1003E80001F0E1EF01F0A3EF00F0050E2818291045
:1003F800D8B401EF02F003EF02F00DEF02F0620E45
:1004080028182910D8A40BEF02F00DEF02F029EFFD
:1004180002F0A5EC09F013EF02F047EC06F0050E28
:1004280028182910D8B41BEF02F01DEF02F011EFC5
:1004380002F0620E28182910D8B425EF02F027EF31
:1004480002F011EF02F0A3EF00F0060E28182910B1
:10045800D8B431EF02F033EF02F03DEF02F0640E52
:1004680028182910D8A43BEF02F03DEF02F059EF0D
:1004780002F04EEC09F043EF02F02AEC07F0060E0A
:1004880028182910D8B44BEF02F04DEF02F041EFD5
:1004980002F0640E28182910D8B455EF02F057EF6F
:1004A80002F041EF02F0A3EF00F0070E2818291020
:1004B800D8B461EF02F063EF02F06DEF02F0680E5E
:1004C80028182910D8A46BEF02F06DEF02F08DEF19
:1004D80002F0FF0E0A6E770E0B6EA1EC0AF077EFB2
:1004E80002F00DEC08F0070E28182910D8B47FEF99
:1004F80002F081EF02F075EF02F0680E281829105B
:10050800D8B489EF02F08BEF02F075EF02F0A3EF99
:1005180000F0A3EF00F076EF00F0070E086ED00EA3
:10052800076E000E08EC0BF0050E086EDC0E076E69
:10053800010E08EC0BF0050E086EDC0E076E020EBD
:1005480008EC0BF0030E086EE80E076E030E08ECBD
:100558000BF0030E0B6E080E0A6E770EE82EFED710
:100568000A2EFCD70B2EFAD70000030E28182910E4
:10057800D8B4C1EF02F0C3EF02F0CFEF02F0610E82
:1005880028182910D8B4CBEF02F0CDEF02F0CFEF46
:1005980002F06BEF04F0070E086ED00E076E000E27
:1005A80008EC0BF0070E086ED00E076E010E08EC73
:1005B8000BF0030E086EE80E076E020E08EC0BF047
:1005C800030E086EE80E076E030E08EC0BF0030E20
:1005D8000B6E080E0A6E770EE82EFED70A2EFCD791
:1005E8000B2EFAD70000030E28182910D8B4FFEFF5
:1005F80002F001EF03F00DEF03F0610E2818291047
:10060800D8B409EF03F00BEF03F00DEF03F06BEF35
:1006180004F0050E086EDC0E076E000E08EC0BF0F9
:10062800070E086ED00E076E010E08EC0BF0030ED5
:10063800086EE80E076E020E08EC0BF0050E086E49
:10064800DC0E076E030E08EC0BF0030E0B6E080EA3
:100658000A6E770EE82EFED70A2EFCD70B2EFAD795
:100668000000030E28182910D8B43DEF03F03FEF1F
:1006780003F04BEF03F0610E28182910D8B447EFA8
:1006880003F049EF03F04BEF03F06BEF04F0050EB6
:10069800086EDC0E076E000E08EC0BF0050E086EF7
:1006A800DC0E076E010E08EC0BF0050E086EDC0E72
:1006B800076E020E08EC0BF0050E086EDC0E076ED6
:1006C800030E08EC0BF0030E0B6E080E0A6E770E85
:1006D800E82EFED70A2EFCD70B2EFAD70000030E01
:1006E80028182910D8B47BEF03F07DEF03F089EFC9
:1006F80003F0610E28182910D8B485EF03F087EFAE
:1007080003F089EF03F06BEF04F0050E086EDC0EC2
:10071800076E000E08EC0BF0030E086EE80E076E6D
:10072800010E08EC0BF0070E086ED00E076E020ED5
:1007380008EC0BF0050E086EDC0E076E030E08ECD5
:100748000BF0030E0B6E080E0A6E770EE82EFED71E
:100758000A2EFCD70B2EFAD70000030E28182910F2
:10076800D8B4B9EF03F0BBEF03F0C7EF03F0610EA5
:1007780028182910D8B4C3EF03F0C5EF03F0C7EF6A
:1007880003F06BEF04F0030E086EE80E076E000E20
:1007980008EC0BF0030E086EE80E076E010E08EC6D
:1007A8000BF0070E086ED00E076E020E08EC0BF069
:1007B800070E086ED00E076E030E08EC0BF0030E42
:1007C8000B6E080E0A6E770EE82EFED70A2EFCD79F
:1007D8000B2EFAD70000030E28182910D8B4F7EF0B
:1007E80003F0F9EF03F005EF04F0610E2818291063
:1007F800D8B401EF04F003EF04F005EF04F06BEF59
:1008080004F0030E086EE80E076E000E08EC0BF0FD
:10081800050E086EDC0E076E010E08EC0BF0050ED7
:10082800086EDC0E076E020E08EC0BF0070E086E61
:10083800D00E076E030E08EC0BF0030E0B6E080EBD
:100848000A6E770EE82EFED70A2EFCD70B2EFAD7A3
:100858000000030E28182910D8B435EF04F037EF3C
:1008680004F043EF04F0610E28182910D8B43FEFC4
:1008780004F041EF04F043EF04F06BEF04F0050ED1
:10088800086EDC0E076E000E08EC0BF0050E086E05
:10089800DC0E076E010E08EC0BF0050E086EDC0E80
:1008A800076E020E08EC0BF0050E086EDC0E076EE4
:1008B800030E08EC0BF0030E0B6E080E0A6E770E93
:1008C800E82EFED70A2EFCD70B2EFAD7000012000E
:1008D800050E086EDC0E076E000E08EC0BF0050E18
:1008E800086EDC0E076E010E08EC0BF0050E086EA4
:1008F800DC0E076E020E08EC0BF0050E086EDC0E1F
:10090800076E030E08EC0BF0030E0B6E080E0A6E52
:10091800770EE82EFED70A2EFCD70B2EFAD700004A
:10092800040E28182910D8B49CEF04F09EEF04F0A8
:10093800AAEF04F0630E28182910D8B4A6EF04F023
:10094800A8EF04F0AAEF04F046EF06F0030E086ED5
:10095800E80E076E000E08EC0BF0050E086EDC0EB4
:10096800076E010E08EC0BF0050E086EDC0E076E24
:10097800020E08EC0BF0070E086ED00E076E030E81
:1009880008EC0BF0030E0B6E080E0A6E770EE82EBD
:10099800FED70A2EFCD70B2EFAD70000040E281813
:1009A8002910D8B4DAEF04F0DCEF04F0E8EF04F033
:1009B800630E28182910D8B4E4EF04F0E6EF04F029
:1009C800E8EF04F046EF06F0030E086EE80E076E37
:1009D800000E08EC0BF0030E086EE80E076E010E11
:1009E80008EC0BF0070E086ED00E076E020E08EC2E
:1009F8000BF0070E086ED00E076E030E08EC0BF016
:100A0800030E0B6E080E0A6E770EE82EFED70A2E1E
:100A1800FCD70B2EFAD70000040E28182910D8B4DA
:100A280018EF05F01AEF05F026EF05F0630E281809
:100A38002910D8B422EF05F024EF05F026EF05F0D1
:100A480046EF06F0050E086EDC0E076E000E08EC89
:100A58000BF0030E086EE80E076E010E08EC0BF0A3
:100A6800070E086ED00E076E020E08EC0BF0050E8E
:100A7800086EDC0E076E030E08EC0BF0030E0B6E0F
:100A8800080E0A6E770EE82EFED70A2EFCD70B2E1C
:100A9800FAD70000040E28182910D8B456EF05F02C
:100AA80058EF05F064EF05F0630E28182910D8B444
:100AB80060EF05F062EF05F064EF05F046EF06F031
:100AC800050E086EDC0E076E000E08EC0BF0050E26
:100AD800086EDC0E076E010E08EC0BF0050E086EB2
:100AE800DC0E076E020E08EC0BF0050E086EDC0E2D
:100AF800076E030E08EC0BF0030E0B6E080E0A6E61
:100B0800770EE82EFED70A2EFCD70B2EFAD7000058
:100B1800040E28182910D8B494EF05F096EF05F0C4
:100B2800A2EF05F0630E28182910D8B49EEF05F03F
:100B3800A0EF05F0A2EF05F046EF06F0050E086EEF
:100B4800DC0E076E000E08EC0BF0070E086ED00ED8
:100B5800076E010E08EC0BF0030E086EE80E076E28
:100B6800020E08EC0BF0050E086EDC0E076E030E85
:100B780008EC0BF0030E0B6E080E0A6E770EE82ECB
:100B8800FED70A2EFCD70B2EFAD70000040E281821
:100B98002910D8B4D2EF05F0D4EF05F0E0EF05F056
:100BA800630E28182910D8B4DCEF05F0DEEF05F045
:100BB800E0EF05F046EF06F0070E086ED00E076E60
:100BC800000E08EC0BF0070E086ED00E076E010E33
:100BD80008EC0BF0030E086EE80E076E020E08EC28
:100BE8000BF0030E086EE80E076E030E08EC0BF010
:100BF800030E0B6E080E0A6E770EE82EFED70A2E2D
:100C0800FCD70B2EFAD70000040E28182910D8B4E8
:100C180010EF06F012EF06F01EEF06F0630E28182C
:100C28002910D8B41AEF06F01CEF06F01EEF06F0F4
:100C380046EF06F0070E086ED00E076E000E08ECA1
:100C48000BF0050E086EDC0E076E010E08EC0BF0BB
:100C5800050E086EDC0E076E020E08EC0BF0030E94
:100C6800086EE80E076E030E08EC0BF0030E0B6E11
:100C7800080E0A6E770EE82EFED70A2EFCD70B2E2A
:100C8800FAD700001200030E086EE80E076E000E79
:100C980008EC0BF0050E086EDC0E076E010E08EC72
:100CA8000BF0050E086EDC0E076E020E08EC0BF05A
:100CB800030E086EE80E076E030E08EC0BF0030E29
:100CC8000B6E080E0A6E770EE82EFED70A2EFCD79A
:100CD8000B2EFAD70000050E28182910D8B477EF84
:100CE80006F079EF06F085EF06F0620E2818291055
:100CF800D8B481EF06F083EF06F085EF06F029EF10
:100D080007F0030E086EE80E076E000E08EC0BF0F5
:100D1800070E086ED00E076E010E08EC0BF0070EDA
:100D2800086ED00E076E020E08EC0BF0030E086E6C
:100D3800E80E076E030E08EC0BF0030E0B6E080EA0
:100D48000A6E770EE82EFED70A2EFCD70B2EFAD79E
:100D58000000050E28182910D8B4B5EF06F0B7EF33
:100D680006F0C3EF06F0620E28182910D8B4BFEFBA
:100D780006F0C1EF06F0C3EF06F029EF07F0050E05
:100D8800086EDC0E076E000E08EC0BF0070E086EFE
:100D9800D00E076E010E08EC0BF0070E086ED00E91
:100DA800076E020E08EC0BF0050E086EDC0E076EDF
:100DB800030E08EC0BF0030E0B6E080E0A6E770E8E
:100DC800E82EFED70A2EFCD70B2EFAD70000050E08
:100DD80028182910D8B4F3EF06F0F5EF06F001EF64
:100DE80007F0620E28182910D8B4FDEF06F0FFEFBF
:100DF80006F001EF07F029EF07F0050E086EDC0E8C
:100E0800076E000E08EC0BF0050E086EDC0E076E80
:100E1800010E08EC0BF0050E086EDC0E076E020ED4
:100E280008EC0BF0050E086EDC0E076E030E08ECDE
:100E38000BF0030E0B6E080E0A6E770EE82EFED727
:100E48000A2EFCD70B2EFAD700001200050E086EEA
:100E5800DC0E076E000E08EC0BF0070E086ED00EC5
:100E6800076E010E08EC0BF0070E086ED00E076E29
:100E7800020E08EC0BF0050E086EDC0E076E030E72
:100E880008EC0BF0030E0B6E080E0A6E770EE82EB8
:100E9800FED70A2EFCD70B2EFAD70000060E28180C
:100EA8002910D8B45AEF07F05CEF07F068EF07F0A5
:100EB800640E28182910D8B464EF07F066EF07F01D
:100EC80068EF07F00CEF08F0030E086EE80E076EE7
:100ED800000E08EC0BF0070E086ED00E076E010E20
:100EE80008EC0BF0070E086ED00E076E020E08EC29
:100EF8000BF0030E086EE80E076E030E08EC0BF0FD
:100F0800030E0B6E080E0A6E770EE82EFED70A2E19
:100F1800FCD70B2EFAD70000060E28182910D8B4D3
:100F280098EF07F09AEF07F0A6EF07F0640E28187D
:100F38002910D8B4A2EF07F0A4EF07F0A6EF07F046
:100F48000CEF08F0030E086EE80E076E000E08ECB2
:100F58000BF0050E086EDC0E076E010E08EC0BF0A8
:100F6800050E086EDC0E076E020E08EC0BF0030E81
:100F7800086EE80E076E030E08EC0BF0030E0B6EFE
:100F8800080E0A6E770EE82EFED70A2EFCD70B2E17
:100F9800FAD70000060E28182910D8B4D6EF07F0A3
:100FA800D8EF07F0E4EF07F0640E28182910D8B43A
:100FB800E0EF07F0E2EF07F0E4EF07F00CEF08F0DE
:100FC800050E086EDC0E076E000E08EC0BF0050E21
:100FD800086EDC0E076E010E08EC0BF0050E086EAD
:100FE800DC0E076E020E08EC0BF0050E086EDC0E28
:100FF800076E030E08EC0BF0030E0B6E080E0A6E5C
:10100800770EE82EFED70A2EFCD70B2EFAD7000053
:101018001200070E086ED00E076E020E08EC0BF0D9
:10102800030E086EE80E076E030E08EC0BF0030EB5
:101038000B6E080E0A6E770EE82EFED70A2EFCD726
:101048000B2EFAD70000050E086EDC0E076E000E98
:1010580008EC0BF0050E086EDC0E076E010E08ECAE
:101068000BF0030E0B6E080E0A6E770EE82EFED7F5
:101078000A2EFCD70B2EFAD7000075EF08F0090EE0
:10108800086EC40E076E000E08EC0BF0030E0B6E14
:10109800080E0A6E770EE82EFED70A2EFCD70B2E06
:1010A800FAD70000070E28182910D8B45EEF08F008
:1010B80060EF08F06CEF08F0680E28182910D8B413
:1010C80068EF08F06AEF08F06CEF08F089EF08F0B5
:1010D800050E086EDC0E076E000E08EC0BF035EFFF
:1010E80008F0070E28182910D8B47DEF08F07FEF14
:1010F80008F043EF08F0680E28182910D8B487EFD5
:1011080008F089EF08F043EF08F012002DEC0CF01E
:10111800780ECAEC0BF0400ECAEC0BF00A6A0A50C3
:10112800B00FFEEC0BF0000EFEEC0BF0100EFEEC18
:101138000BF02DEC0CF0780ECAEC0BF0400ECAEC5C
:101148000BF00B6A010E0A64ACEF08F0AEEF08F082
:10115800DBEF08F0070E0A60B4EF08F0B6EF08F00E
:10116800DBEF08F01D0E0B64BCEF08F0BEEF08F0D3
:10117800C6EF08F0320E0B64C4EF08F0C6EF08F0B3
:10118800D6EF08F04F0E0B64CCEF08F0CEEF08F066
:10119800DBEF08F0650E0B60D4EF08F0D6EF08F02F
:1011A800DBEF08F0FF0ECAEC0BF0DEEF08F0000EE4
:1011B800CAEC0BF00B2A7F0E0B64E5EF08F0E7EFA3
:1011C80008F0A6EF08F024EC0CF00A2A070E0A64CF
:1011D800F0EF08F0F2EF08F093EF08F01200820E3B
:1011E8000A6EDE0EE82EFED70A2EFCD7AE0EFEECF7
:1011F8000BF0100EE82EFED700D0D50EFEEC0BF04B
:10120800100EE82EFED700D0800EFEEC0BF0A80ED4
:10121800FEEC0BF03F0EFEEC0BF0D30EFEEC0BF0E9
:10122800000EFEEC0BF0400EFEEC0BF08D0EFEEC0B
:101238000BF0140EFEEC0BF0200EFEEC0BF0000E83
:10124800FEEC0BF0A10EFEEC0BF0C80EFEEC0BF062
:10125800DA0EFEEC0BF0120EFEEC0BF0810EFEEC3B
:101268000BF07F0EFEEC0BF0D90EFEEC0BF0F10E3E
:10127800FEEC0BF0DB0EFEEC0BF0400EFEEC0BF080
:10128800A40EFEEC0BF0A60EFEEC0BF0AF0EFEEC7F
:101298000BF012000A6A0A50B00FFEEC0BF0000EB9
:1012A800FEEC0BF0100EFEEC0BF00B6A010E0A645C
:1012B80060EF09F062EF09F08FEF09F0070E0A609E
:1012C80068EF09F06AEF09F08FEF09F0310E0B644F
:1012D80070EF09F072EF09F07AEF09F0460E0B642F
:1012E80078EF09F07AEF09F08AEF09F0630E0B64E2
:1012F80080EF09F082EF09F08FEF09F0790E0B60AB
:1013080088EF09F08AEF09F08FEF09F0FF0EEFEC94
:101318000BF092EF09F0000EEFEC0BF00B2A7F0EAA
:101328000B6499EF09F09BEF09F05AEF09F00A2ACC
:10133800070E0A64A2EF09F0A4EF09F04FEF09F0D5
:1013480012000A6A0A50B00FFEEC0BF0000EFEEC19
:101358000BF0100EFEEC0BF00B6A010E0A64B7EFEF
:1013680009F0B9EF09F0E6EF09F0070E0A60BFEFE0
:1013780009F0C1EF09F0E6EF09F0090E0B64C7EFB9
:1013880009F0C9EF09F0D1EF09F01E0E0B64CFEF99
:1013980009F0D1EF09F0E1EF09F03B0E0B64D7EF4C
:1013A80009F0D9EF09F0E6EF09F0510E0B60DFEF15
:1013B80009F0E1EF09F0E6EF09F0FF0EEFEC0BF0B2
:1013C800E9EF09F0000EEFEC0BF00B2A7F0E0B642F
:1013D800F0EF09F0F2EF09F0B1EF09F00A2A070E71
:1013E8000A64F9EF09F0FBEF09F0A6EF09F0120023
:1013F80006009EAA02EF0AF004EF0AF04DEF0AF089
:10140800AECF02F0036A035009E1300E025CD8A0A7
:1014180010EF0AF012EF0AF023EF0AF0035007E189
:10142800380E025CD8B01BEF0AF01DEF0AF023EF6C
:101438000AF0D00E0224286EFF0E0320296E0350F6
:1014480009E1610E025CD8A02CEF0AF02EEF0AF039
:101458003DEF0AF0035007E1690E025CD8B037EFA0
:101468000AF039EF0AF03DEF0AF002C028F003C095
:1014780029F002500310D8A444EF0AF046EF0AF00E
:101488004AEF0AF0000E296E000E286E025019EC81
:101498000CF02C921100000E0F6E000E106E000E54
:1014A800116E000E126E0B500C100D100E10D8B4E9
:1014B80060EF0AF062EF0AF098EF0AF0010E136E7F
:1014C8006CEF0AF0D8900B360C360D360E36132A10
:1014D8000EAE71EF0AF073EF0AF066EF0AF0D890DB
:1014E8000F361036113612360B50075C0C50085860
:1014F8000D5009580E500A58D8A085EF0AF087EF0A
:101508000AF090EF0AF00B50075E0C50085A0D5085
:10151800095A0E500A5A0F80D8900E320D320C32EA
:101528000B32132E73EF0AF00FC007F010C008F04B
:1015380011C009F012C00AF01200116A1150B00F60
:10154800FEEC0BF0000EFEEC0BF0100EFEEC0BF0B8
:10155800106A1150800DF3CF0CF0F4CF0DF00C5041
:101568000A240E6E0D500B200F6E10500E26000E22
:101578000F220EC0F6FF0FC0F7FF0800F550EFEC82
:101588000BF0102A7F0E1064CCEF0AF0CEEF0AF0B1
:10159800ADEF0AF0100EE82EFED700D0112A070E84
:1015A8001164D9EF0AF0DBEF0AF0A2EF0AF012009B
:1015B800280EC66EC56A000E076E090E086E3D0E2F
:1015C800096E000E0A6E14C018F015C019F016C086
:1015D8001AF017C01BF0020ED890183619361A36B2
:1015E8001B36E82EF0EF0AF018C00BF019C00CF00B
:1015F8001AC00DF01BC00EF04FEC0AF00704C86EBD
:10160800C76A948694881200096E040E09600FEF69
:101618000BF011EF0BF031EF0BF0F40E075C010E3D
:101628000858D8A01AEF0BF01CEF0BF031EF0BF0B5
:10163800C50E075C090E0858D8B025EF0BF027EF48
:101648000BF031EF0BF00950020DF3501E0FD96E5D
:10165800DA6A07C0DEFF08C0DDFF1200050E086E5B
:10166800DC0E076E000E08EC0BF0050E086EDC0EA3
:10167800076E010E08EC0BF0030E0B6E080E0A6ED7
:10168800770EE82EFED70A2EFCD70B2EFAD70000CD
:10169800050E086EDC0E076E020E08EC0BF0050E48
:1016A800086EDC0E076E030E08EC0BF01200070E36
:1016B800086ED00E076E020E08EC0BF0030E086ED3
:1016C800E80E076E030E08EC0BF0030E0B6E080E07
:1016D8000A6E770EE82EFED70A2EFCD70B2EFAD705
:1016E8000000050E086EDC0E076E000E08EC0BF00D
:1016F800050E086EDC0E076E010E08EC0BF01200EA
:10170800070E086ED00E076E000E08EC0BF0030EE5
:10171800086EE80E076E010E08EC0BF0030E0B6E58
:10172800080E0A6E770EE82EFED70A2EFCD70B2E6F
:10173800FAD70000030E086EE80E076E020E08ECDA
:101748000BF0070E086ED00E076E030E08EC0BF0B8
:1017580012006C0EF66E180EF76E000EF86E00EEA4
:101768001EF010EE08F00900F5CFEEFFE550E1504D
:10177800FAE12B6A2A6A296A286A276A266A2C905B
:101788002C92000EF86E000178EF00F0086E08C089
:10179800C9FFC7B0D2EF0BF0D4EF0BF0CDEF0BF0D1
:1017A800C5CF07F01F0E0716D8A4DDEF0BF0DFEF4B
:1017B8000BF0D4EF0BF01200948C948EAB8EAC8AA5
:1017C800AB889E889E8AAC98B896AC84190EAF6E8A
:1017D8009D8A9F8A1200096E2DEC0CF0780ECAECD7
:1017E8000BF0400ECAEC0BF00950CAEC0BF024ECDD
:1017F8000CF01200096E2DEC0CF0780ECAEC0BF010
:10180800000ECAEC0BF00950CAEC0BF024EC0CF0FB
:101818001200880ED56EFE0ED76E0C0ED66EF28AAA
:10182800F28EF28CF194D08E1200016EACA21FEFF2
:101838000CF021EF0CF01AEF0CF001C0ADFF120014
:10184800C584C5B42AEF0CF02CEF0CF025EF0CF092
:101858001200C580C5B033EF0CF035EF0CF02EEF59
:0C1868000CF01200DC05DC05DC05DC05E2
:104BFE0000000000000000000000000000000000A7
:104C0E000000000000000000000000000000000096
:104C1E0000000000000000000080808080F0F0F0B6
:104C2E00F0F0000000000000000000000000000096
:104C3E00000000000000000000000000000000F076
:104C4E00F0F0F0F000000000000000000000000096
:104C5E000000000000000000000000000000000046
:104C6E000000000000000000000000000000000036
:104C7E000000000000000000000000000000000026
:104C8E000000000000000000000000000000000016
:104C9E00000000000000FEFEFEFFFFFFFFFFFFFF13
:104CAE00FFFF0000000000000000000000000000F8
:104CBE00000000000000000000000000000000FFE7
:104CCE00FFFFFFFFFFFFFFFFF0F0F0F0000000001E
:104CDE0000000000000000000000000000000000C6
:104CEE0000000000000000000000000000000000B6
:104CFE0000000000000000000000000000000000A6
:104D0E00000000000000000000000000000000F0A5
:104D1E00F0F0F0FFFFFFFFFFFFFFFFFFFFFFFFFFC2
:104D2E00FFFF000000000000000000000000000077
:104D3E00000000000000000000000000000000FF66
:104D4E00FFFFFFFFFFFFFFFFFFFFFFFFF8F8F8F881
:104D5E00F88080808000000000000000000000004D
:104D6E000000000000000000000000000000000035
:104D7E000000000000000000000000000000000025
:104D8E00000000000000000000808080F0F0F0FFC6
:104D9E00FFFFFFFFFFFFFFFFFFFFFFFFFFFFFFFF15
:104DAE00FFFF0000000000000000000000000000F7
:104DBE00000000000000000000000000000000FFE6
:104DCE00FFFFFFFFFFFFFFFFFFFFFFFFFFFFFFFFE5
:104DDE00FFFFFFFFFF8080808000000000000000CA
:104DEE0000000000000000000000000000000000B5
:104DFE0000000000000000000000000000000000A5
:104E0E000000000070FCFEFFFFDF8F8F8F8F8FDFA3
:104E1E00FFFFFFFFFF0F0F0F0F0F0F0F0F0F0F0FE4
:104E2E000F0F000000000000000000000000000056
:104E3E000000000000000000000000000000000F55
:104E4E000F0F0F0F0F0F0F0F0F0F0F0F0F7FFFFF14
:104E5E00FFFFDF8F8F8F8F8FDFFFFFFEFCF80000CD
:104E6E000000000000000000000000000000000034
:104E7E000000000000000000000000000000000024
:104E8E000000000000010307070F0F0F0F0F0F0F99
:104E9E0007070301000000000000000000000000F2
:104EAE0000000000000000000000000000000000F4
:104EBE0000000000000000000000000000000000E4
:104ECE0000000000000000000000000000000103D0
:104EDE0007070F0F0F0F0F0F0F070703010000003B
:104EEE0000000000000000000000000000000000B4
:104EFE0000000000000000000000000000000000A4
:104F0E000000000000000000000000000000000093
:104F1E0000000000000000000000000080C0E0F073
:104F2E00F8FCFCFCF8F0E0F0FCFEFE7EFCFCF8F079
:104F3E00F0F8FCFC7C7CFCFCF8F0E0F0FCFEFEFEE5
:104F4E00FCF8F0C08000000000000000000000002F
:104F5E000000000000000000000000000000000043
:104F6E000000000000000000000000000000000033
:104F7E000000000000000000000000000000000023
:104F8E000000000000000000000000000000000013
:104F9E0000000000000000000000000003070707EB
:104FAE0003010103070707070703000001030707B3
:104FBE0007070301000000030707070703010001AD
:104FCE0003070707030000000000000000000000B8
:104FDE0000000000000000000000000000000000C3
:104FEE0000000000000000000000000000000000B3
:104FFE0000000000000000000000000000000000A3
:10500E000000000000000000000000000000808092
:10501E008080808080000000000000000000000002
:10502E000000000000000000000000000000000072
:10503E000000000000000000000000000000000062
:10504E000000000000000000000000008080808052
:10505E0080808000000000000000000000000000C2
:10506E000000000000000000000000000000000032
:10507E000000000000000000000000000000000022
:10508E00000000000080C0F0FCFCFE7F7F3F3F1F51
:10509E001F1F1F1F3F7F7FFEFCFCF0C08000000023
:1050AE0000000000000000000000000000000000F2
:1050BE0000000000000000000000000000000000E2
:1050CE0000000080C0F0F8F8FC7E7E3E3F1F1F1FE0
:1050DE001F1F3F7E7EFCF8F8F0C08000000000002D
:1050EE0000000000000000000000000000000000B2
:1050FE0000000000000000000000000000000000A2
:10510E0000000000FCFFFFFFFF0F01000000000089
:10511E00000000000000000103FFFFFFFFFE000083
:10512E000000000000000000000000000000000071
:10513E000000000000000000000000000000000061
:10514E000000F8FFFFFFFF0F03000000000000004B
:10515E0000000000000307FFFFFFFFFC000000003F
:10516E000000000000000000000000000000000031
:10517E000000000000000000000000000000000021
:10518E0000000000031F3FFFFFFEFCE0E0C0808038
:10519E0080808080C0E0E0FCFEFFFF3F1F03000028
:1051AE0000000000000000000000000000000000F1
:1051BE0000000000000000000000000000000000E1
:1051CE000000071F3FFFFFFCF8E0E0C080808080FA
:1051DE008080C0E0E0F8FCFFFF3F1F0700000000EA
:1051EE0000000000000000000000000000000000B1
:1051FE0000000000000000000000000000000000A1
:10520E0000000000000000000101070F0F1F1F1F0C
:10521E001F1F1F1F1F0F0F070101000000000000BE
:10522E000080E0F0F0F0E0C0C08080808080808060
:10523E00C0C0C0C0C0E0E0E0E0E0C0000000000080
:10524E000000000000000303070F0F1F1F1F1F1F8A
:10525E001F1F1F0F0F0703030000000000000000B8
:10526E000000000000000000000000000000000030
:10527E000000000000000000000000000000000020
:10528E000000000000000000000000000000000010
:10529E000000000000000000000000000000000000
:1052AE000007FFFFFFFFFF0F0F0F0F0F0F0F0F0F67
:1052BE00070707070707030FFFFFFFFFF0000000B8
:1052CE0000000000000000000000000000000000D0
:1052DE0000000000000000000000000000000000C0
:1052EE0000000000000000000000000000000000B0
:1052FE0000000000000000000000000000000000A0
:10530E00000000000000000000000000000000008F
:10531E0000000000000000000000000000000080FF
:10532E00C0E0F8FFFFFF7F0F00000000000000004C
:10533E00000000000000000003FFFFFFFFFE000062
:10534E00000000000000000000000000000000004F
:10535E00000000000000000000000000000000003F
:10536E00000000000000000000000000000000002F
:10537E00000000000000000000000000000000001F
:10538E00000000000000000000000000000000000F
:10539E0000000000000000000000000000000307F5
:1053AE000F0F0F0F0F1F1F1F1F1F1F1F1F1F1F1F4F
:1053BE003E3E3E3E3E3F1F1F1F0F0F0F0F030000CE
:1053CE0000000000000000000000000000000000CF
:1053DE0000000000000000000000000000000000BF
:1053EE0000000000000000000000000000000000AF
:1053FE00000000000000000000000000000000009F
:10540E00000000000000000000000000000000008E
:10541E00000000000000000000000000000000007E
:10542E00000000000000000000000000000000006E
:10543E00000000000000000000000000000000005E
:10544E00000000000000000000000000000000004E
:10545E000000000000000000000000E0F0F0F0F09E
:10546E00F0F0F0F0F0F0F0F0E000000000000000CE
:10547E00000000000000000000000000000000001E
:10548E00000000000000000000000000000000000E
:10549E0000000000000000000000000000000000FE
:1054AE0000000000000000000000000000000000EE
:1054BE0000000000000000000000000000000000DE
:1054CE0000000000000000000000E0F0F0F0F0F03E
:1054DE00F0F0F0F0F0F0F0E00000E0F0F1F9FDFF98
:1054EE00FFFFFFFFEFE7E7E3E1E0E0C000000000B1
:1054FE00000000000000000000000000000000009E
:10550E00000000000000000000000000000000008D
:10551E00000000000000000000000000000000007D
:10552E00000000000000000000000000000000006D
:10553E00000000000000000000000000000000005D
:10554E00000000000000000000E0F0F1F9FDFFFF98
:10555E00FFFFFFEFE7E7E3E1E0E0C0010303030332
:10556E00030303030303030303030301000000000B
:10557E00000000000000000000000000000000001D
:10558E00000000000000000000000000000000000D
:10559E0000000000000000000000000000000000FD
:1055AE0000000000000000000000000000000000ED
:1055BE0000000000000000000000000000000000DD
:1055CE0000000000000000000000010303030303BD
:1055DE00030303030303030303030100000000009E
:1055EE0000000000000000000000000000000000AD
:1055FE00000000000000000000000000000070F835
:10560E00F8F8F8F8F8F8F8F8F8F8F8F8F8F8F8F80C
:10561E00F8F8F8F8F8F8F8F8F8F8F8F8F8F8F8F8FC
:10562E00F870000000000000000000000000000004
:10563E00000000000000000000000000000000005C
:10564E00000070F8F8F8F8F8F8F8F8F8F8F8F8F844
:10565E00F8F8F8F8F8F8F8F8F8F8F8F8F8F8F8F8BC
:10566E00F8F8F8F8F87000000000000000000000E4
:10567E00000000000000000000000000000000001C
:10568E00000000000000000000000000000000000C
:10569E0000000000000000000000000000000000FC
:1056AE0000000000000000000000000000000000EC
:1056BE0000000000000000000000000000000000DC
:1056CE0000000000000000000000000000000000CC
:1056DE0000000000000000000000000000000000BC
:1056EE0000000000000000000000000000000000AC
:1056FE00000000000000000000000000000000009C
:10570E00000000000000000000000000000000008B
:10571E00000000000000000000000000000000007B
:10572E000070F8F8F8FC7C7C7C7E3E3E3E3F1F1FEE
:10573E001F1F1F3F3E3E3E7EFCFCFCFCF8F8F8703F
:10574E00000000000000000000000000000000004B
:10575E00000000000000000000000000000000003B
:10576E00000000000000000000000000000000002B
:10577E00000000000000000000000000000000001B
:10578E00000000000000000000000000000000000B
:10579E0000000000000000000000000000000000FB
:1057AE0000000000000000000000000000000000EB
:1057BE000000000000000000070F0F0F07000000A0
:1057CE0000000000000000000000000000000000CB
:1057DE0000000000000000000000000000000000BB
:1057EE0000000000000000000000000000000000AB
:1057FE00000000000000000000000000000000009B
:10580E00000000000000000000000000000000008A
:10581E00000000000000000000000000000000007A
:10582E00000000000000000000000000000000006A
:10583E00000000000000000000000000000000005A
:10584E00000000000000000000000000000000004A
:10585E00000000000000000000000000000000003A
:10586E00000000000000000000000000000000002A
:10587E00000000000000000000000000000000001A
:10588E00000000000000000000000000000000000A
:10589E00000000000000000000E0E0E0E0E0E0E0DA
:1058AE00E0E0E0E0E0E0E0E0E0E0E0E0E0E0E0E0EA
:1058BE00E0E0E0000000000000000000000000003A
:1058CE000000000000000000E0E0E0E0E0E0E0E0CA
:1058DE00E0E0E0E0E0E0E0E0E0E0E0E0E0E0E0E0BA
:1058EE00E0E00000000000000000000000000000EA
:1058FE00000000000000000000000000000000009A
:10590E000000000000000000000000000000000089
:10591E00000000000000000000FFFFFFFFFFFFFF80
:10592E00FFFFFFFFFFFFFFFFFFFFFFFFFFFFFFFF79
:10593E00FFFFFF000000000000000000000000005C
:10594E000000000000000000FFFFFFFFFFFFFFFF51
:10595E00FFFFFFFFFFFFFFFFFFFFFFFFFFFFFFFF49
:10596E00FFFF00000000000000000000000000002B
:10597E000000000000000000000000000000000019
:10598E000000000000000000000000000000000009
:10599E00000000000000000000FFFFFFFFFFFFFF00
:1059AE00FFFFFFFFFFFFFFFFFFFFFFFFFFFFFFFFF9
:1059BE00FFFFFF00000000000000000000000000DC
:1059CE000000000000000000FFFFFFFFFFFFFFFFD1
:1059DE00FFFFFFFFFFFFFFFFFFFFFFFFFFFFFFFFC9
:1059EE00FFFF0000000000000000000000000000AB
:1059FE000000000000000000000000000000000099
:105A0E000000000000000000000000000000000088
:105A1E00000000000000000000FFFFFFFFFFFFFF7F
:105A2E00FFFFFFFFFFFFFFFFFFFFFFFFFFFFFFFF78
:105A3E00FFFFFF000000000000000000000000005B
:105A4E000000000000000000FFFFFFFFFFFFFFFF50
:105A5E00FFFFFFFFFFFFFFFFFFFFFFFFFFFFFFFF48
:105A6E00FFFF00000000000000000000000000002A
:105A7E000000000000000000000000000000000018
:105A8E000000000000000000000000000000000008
:105A9E00000000000000000000FFFFFFFFFFFFFFFF
:105AAE00FFFFFFFFFFFFFFFFFFFFFFFFFFFFFFFFF8
:105ABE00FFFFFF00000000000000000000000000DB
:105ACE000000000000000000FFFFFFFFFFFFFFFFD0
:105ADE00FFFFFFFFFFFFFFFFFFFFFFFFFFFFFFFFC8
:105AEE00FFFF0000000000000000000000000000AA
:105AFE000000000000000000000000000000000098
:105B0E000000000000000000000000000000000087
:105B1E000000000000000000003F3F3F3F3F3F3FBE
:105B2E003F3F3F3F3F3F3F3F3F3F3F3F3F3F3F3F77
:105B3E003F3F3F000000000000000000000000009A
:105B4E0000000000000000003F3F3F3F3F3F3F3F4F
:105B5E003F3F3F3F3F3F3F3F3F3F3F3F3F3F3F3F47
:105B6E003F3F0000000000000000000000000000A9
:105B7E000000000000000000000000000000000017
:105B8E000000000000000000000000000000000007
:105B9E0000000000000000000000000000000000F7
:105BAE0000000000000000000000000000000000E7
:105BBE0000000000000000000000000000000000D7
:105BCE0000000000000000000000000000000000C7
:105BDE0000000000000000000000000000000000B7
:105BEE0000000000000000000000000000000000A7
:105BFE000000000000000000000000000000000097
:105C0E000000000000000000000000000000000086
:105C1E000000000000000000000000000000000076
:105C2E000000000000000000000000000000000066
:105C3E000000000000000000000000000000000056
:105C4E000000000000000000000000000000000046
:105C5E000000000000000000000000000000000036
:105C6E000000000000000000000000000000000026
:105C7E000000000000000000000000000000000016
:105C8E000000000000000000000000000000000006
:105C9E000000E0E0E0E0E0E0E0E0E0E0E0E0E0E0B6
:105CAE00E0E0E0E0E0E0E0E0E0E0E0E00000000066
:105CBE0000000000000000000000000000000000D6
:105CCE0000E0E0E0E0E0E0E0E0E0E0E0E0E0E0E0A6
:105CDE00E0E0E0E0E0E0E0E0E0E0E0000000000016
:105CEE0000000000000000000000000000000000A6
:105CFE000000000000000000000000000000000096
:105D0E000000000000000000000000000000000085
:105D1E000000FFFFFFFFFFFFFFFFFFFFFFFFFFFF83
:105D2E00FFFFFFFFFFFFFFFFFFFFFFFF0000000071
:105D3E000000000000000000000000000000000055
:105D4E0000FFFFFFFFFFFFFFFFFFFFFFFFFFFFFF54
:105D5E00FFFFFFFFFFFFFFFFFFFFFF000000000040
:105D6E000000000000000000000000000000000025
:105D7E000000000000000000000000000000000015
:105D8E000000000000000000000000000000000005
:105D9E000000FFFFFFFFFFFFFFFFFFFFFFFFFFFF03
:105DAE00FFFFFFFFFFFFFFFFFFFFFFFF00000000F1
:105DBE0000000000000000000000000000000000D5
:105DCE0000FFFFFFFFFFFFFFFFFFFFFFFFFFFFFFD4
:105DDE00FFFFFFFFFFFFFFFFFFFFFF0000000000C0
:105DEE0000000000000000000000000000000000A5
:105DFE000000000000000000000000000000000095
:105E0E000000000000000000000000000000000084
:105E1E000000FFFFFFFFFFFFFFFFFFFFFFFFFFFF82
:105E2E00FFFFFFFFFFFFFFFFFFFFFFFF0000000070
:105E3E000000000000000000000000000000000054
:105E4E0000FFFFFFFFFFFFFFFFFFFFFFFFFFFFFF53
:105E5E00FFFFFFFFFFFFFFFFFFFFFF00000000003F
:105E6E000000000000000000000000000000000024
:105E7E000000000000000000000000000000000014
:105E8E000000000000000000000000000000000004
:105E9E000000FFFFFFFFFFFFFFFFFFFFFFFFFFFF02
:105EAE00FFFFFFFFFFFFFFFFFFFFFFFF00000000F0
:105EBE0000000000000000000000000000000000D4
:105ECE0000FFFFFFFFFFFFFFFFFFFFFFFFFFFFFFD3
:105EDE00FFFFFFFFFFFFFFFFFFFFFF0000000000BF
:105EEE0000000000000000000000000000000000A4
:105EFE000000000000000000000000000000000094
:105F0E000000000000000000000000000000000083
:105F1E0000003F3F3F3F3F3F3F3F3F3F3F3F3F3F01
:105F2E003F3F3F3F3F3F3F3F3F3F3F3F000000006F
:105F3E000000000000000000000000000000000053
:105F4E00003F3F3F3F3F3F3F3F3F3F3F3F3F3F3F92
:105F5E003F3F3F3F3F3F3F3F3F3F3F00000000007E
:105F6E000000000000000000000000000000000023
:105F7E000000000000000000000000000000000013
:105F8E000000000000000000000000000000000003
:105F9E0000000000000000000000000000000000F3
:105FAE0000000000000000000000000000000000E3
:105FBE0000000000000000000000000000000000D3
:105FCE0000000000000000000000000000000000C3
:105FDE0000000000000000000000000000000000B3
:105FEE0000000000000000000000000000000000A3
:105FFE000000000000000000000000000000000093
:10600E000000000000000000000000000000000082
:10601E000000000000000000000000000000000072
:10602E000000000000000000000000000000000062
:10603E000000000000000000000000000000000052
:10604E000000000000000000000000000000000042
:10605E000000000000000000000000000000000032
:10606E000000000000000000000000000000000022
:10607E000000000000000000000000000000000012
:10608E00E0E0E0E0E0E0E0E0E0E0E0E0E0E0E0E002
:10609E00E0E0E0E0E0E0E0E0E0E000000000000032
:1060AE00000000000000000000000000000000E002
:1060BE00E0E0E0E0E0E0E0E0E0E0E0E0E0E0E0E0D2
:1060CE00E0E0E0E0E0E0E0E0E000000000000000E2
:1060DE0000000000000000000000000000000000B2
:1060EE0000000000000000000000000000000000A2
:1060FE000000000000000000000000000000000092
:10610E00FFFFFFFFFFFFFFFFFFFFFFFFFFFFFFFF91
:10611E00FFFFFFFFFFFFFFFFFFFF0000000000007B
:10612E00000000000000000000000000000000FF62
:10613E00FFFFFFFFFFFFFFFFFFFFFFFFFFFFFFFF61
:10614E00FFFFFFFFFFFFFFFFFF000000000000004A
:10615E000000000000000000000000000000000031
:10616E000000000000000000000000000000000021
:10617E000000000000000000000000000000000011
:10618E00FFFFFFFFFFFFFFFFFFFFFFFFFFFFFFFF11
:10619E00FFFFFFFFFFFFFFFFFFFF000000000000FB
:1061AE00000000000000000000000000000000FFE2
:1061BE00FFFFFFFFFFFFFFFFFFFFFFFFFFFFFFFFE1
:1061CE00FFFFFFFFFFFFFFFFFF00000000000000CA
:1061DE0000000000000000000000000000000000B1
:1061EE0000000000000000000000000000000000A1
:1061FE000000000000000000000000000000000091
:10620E00FFFFFFFFFFFFFFFFFFFFFFFFFFFFFFFF90
:10621E00FFFFFFFFFFFFFFFFFFFF0000000000007A
:10622E00000000000000000000000000000000FF61
:10623E00FFFFFFFFFFFFFFFFFFFFFFFFFFFFFFFF60
:10624E00FFFFFFFFFFFFFFFFFF0000000000000049
:10625E000000000000000000000000000000000030
:10626E000000000000000000000000000000000020
:10627E000000000000000000000000000000000010
:10628E00FFFFFFFFFFFFFFFFFFFFFFFFFFFFFFFF10
:10629E00FFFFFFFFFFFFFFFFFFFF000000000000FA
:1062AE00000000000000000000000000000000FFE1
:1062BE00FFFFFFFFFFFFFFFFFFFFFFFFFFFFFFFFE0
:1062CE00FFFFFFFFFFFFFFFFFF00000000000000C9
:1062DE0000000000000000000000000000000000B0
:1062EE0000000000000000000000000000000000A0
:1062FE000000000000000000000000000000000090
:10630E003F3F3F3F3F3F3F3F3F3F3F3F3F3F3F3F8F
:10631E003F3F3F3F3F3F3F3F3F3F000000000000F9
:10632E000000000000000000000000000000003F20
:10633E003F3F3F3F3F3F3F3F3F3F3F3F3F3F3F3F5F
:10634E003F3F3F3F3F3F3F3F3F0000000000000008
:10635E00000000000000000000000000000000002F
:10636E00000000000000000000000000000000001F
:10637E00000000000000000000000000000000000F
:10638E0000000000000000000000000000000000FF
:10639E0000000000000000000000000000000000EF
:1063AE0000000000000000000000000000000000DF
:1063BE0000000000000000000000000000000000CF
:1063CE0000000000000000000000000000000000BF
:1063DE0000000000000000000000000000000000AF
:1063EE00000000000000000000000000000000009F
:1063FE00000000000000000000000000000000008F
:10640E00000000000000000000000000000000007E
:10641E00000000000000000000000000000000006E
:10642E00000000000000000000000000000000005E
:10643E00000000000000000000000000000000004E
:10644E00000000000000000000000000000000003E
:10645E00000000000000000000000000000000002E
:10646E00000000000000000000000000000000001E
:10647E00000000000000000000000000000000000E
:10648E00000000000000E0E0E0E0E0E0E0E0E0E03E
:10649E00E0E0E0E0E0E0E0E0E0E0E0E0E0E0E0E0EE
:1064AE0000000000000000000000000000000000DE
:1064BE000000000000E0E0E0E0E0E0E0E0E0E0E02E
:1064CE00E0E0E0E0E0E0E0E0E0E0E0E0E0E0E0009E
:1064DE0000000000000000000000000000000000AE
:1064EE00000000000000000000000000000000009E
:1064FE00000000000000000000000000000000008E
:10650E00000000000000FFFFFFFFFFFFFFFFFFFF87
:10651E00FFFFFFFFFFFFFFFFFFFFFFFFFFFFFFFF7D
:10652E00000000000000000000000000000000005D
:10653E000000000000FFFFFFFFFFFFFFFFFFFFFF58
:10654E00FFFFFFFFFFFFFFFFFFFFFFFFFFFFFF004C
:10655E00000000000000000000000000000000002D
:10656E00000000000000000000000000000000001D
:10657E00000000000000000000000000000000000D
:10658E00000000000000FFFFFFFFFFFFFFFFFFFF07
:10659E00FFFFFFFFFFFFFFFFFFFFFFFFFFFFFFFFFD
:1065AE0000000000000000000000000000000000DD
:1065BE000000000000FFFFFFFFFFFFFFFFFFFFFFD8
:1065CE00FFFFFFFFFFFFFFFFFFFFFFFFFFFFFF00CC
:1065DE0000000000000000000000000000000000AD
:1065EE00000000000000000000000000000000009D
:1065FE00000000000000000000000000000000008D
:10660E00000000000000FFFFFFFFFFFFFFFFFFFF86
:10661E00FFFFFFFFFFFFFFFFFFFFFFFFFFFFFFFF7C
:10662E00000000000000000000000000000000005C
:10663E000000000000FFFFFFFFFFFFFFFFFFFFFF57
:10664E00FFFFFFFFFFFFFFFFFFFFFFFFFFFFFF004B
:10665E00000000000000000000000000000000002C
:10666E00000000000000000000000000000000001C
:10667E00000000000000000000000000000000000C
:10668E00000000000000FFFFFFFFFFFFFFFFFFFF06
:10669E00FFFFFFFFFFFFFFFFFFFFFFFFFFFFFFFFFC
:1066AE0000000000000000000000000000000000DC
:1066BE000000000000FFFFFFFFFFFFFFFFFFFFFFD7
:1066CE00FFFFFFFFFFFFFFFFFFFFFFFFFFFFFF00CB
:1066DE0000000000000000000000000000000000AC
:1066EE00000000000000000000000000000000009C
:1066FE00000000000000000000000000000000008C
:10670E000000000000003F3F3F3F3F3F3F3F3F3F05
:10671E003F3F3F3F3F3F3F3F3F3F3F3F3F3F3F3F7B
:10672E00000000000000000000000000000000005B
:10673E0000000000003F3F3F3F3F3F3F3F3F3F3F96
:10674E003F3F3F3F3F3F3F3F3F3F3F3F3F3F3F008A
:10675E00000000000000000000000000000000002B
:10676E00000000000000000000000000000000001B
:10677E00000000000000000000000000000000000B
:10678E0000000000000000000000000000000000FB
:10679E0000000000000000000000000000000000EB
:1067AE0000000000000000000000000000000000DB
:1067BE0000000000000000000000000000000000CB
:1067CE0000000000000000000000000000000000BB
:1067DE0000000000000000000000000000000000AB
:1067EE00000000000000000000000000000000009B
:1067FE00000000000000000000000000000000008B
:10680E00000000000000000000000000000000007A
:10681E000000000000000307070F0F1F3F3F7E7CA4
:10682E00FCF8F8F0F0E0C0C0E0F8FCFCFC3800002A
:10683E000000000000000000008080C0C0E0F0F00A
:10684E00F8F8FC7C7E3E3F1F1F0F07070303010075
:10685E00000000000000000000000000000000002A
:10686E00000000000000000000000000000000001A
:10687E00000000000000000000000000000000000A
:10688E00000000000000000000000000000000807A
:10689E00000000000000008080E0F090004000004A
:1068AE00000001030307070F0F0F0F070100000081
:1068BE000000000000000000070F0F0F0707030382
:1068CE00010000000000C0C0800000800000000039
:1068DE0000000000000000000000000000000000AA
:1068EE00000000000000000000000000000000009A
:1068FE00000000000000000000000000000000008A
:10690E000000000000000000000000C0F0FCFFFFCF
:10691E00FEF0E0C0F0FCFFFFFFFFFFFFE280E0F0C3
:10692E00600080F0F0F2FE040000000000000000A5
:10693E00000000000000000000000000C080000009
:10694E00800070F8F8F870C9C1E3C7CFFFFEF8E019
:10695E00D8E0E0F9FFFEE0C00000000000000000FB
:10696E000000000000000000000000000000000019
:10697E000000000000000000000000000000000009
:10698E00000000000000000000001FFFFFFFFFFFDF
:10699E00FFFFFFFFFFFFFFFFFFFFFFFFFFFFFFFFF9
:1069AE00FEFEFFFFFFFF3F000000000000000000A2
:1069BE00000000000000000000000020FFFFFCFCB3
:1069CE00FFFEFCFCFFFFFFFFFFFFFFFFFFFFFFFFD0
:1069DE00FFFFFFFFFFFFFFFF3E0000000000000073
:1069EE000000000000000000000000000000000099
:1069FE000000000000000000000000000000000089
:106A0E000000000000000000000000030F0F3FFF19
:106A1E00FFFFFFFFFFFFFFFFFFFFFFFFFFFFFFFF78
:106A2E00FFFFFF3F0F03000000000000000000000A
:106A3E00000000000000000000000000010F1F1FFA
:106A4E007FFFFFFFFFFFFFFFFFFFFFFFFFFFFFFFC8
:106A5E00FFFFFFFFFF7F1F07000000000000000088
:106A6E000000000000000000000000000000000018
:106A7E000000000000000000000000000000000008
:106A8E0000000000000000000000000000000001F7
:106A9E00030707070F0F1F1F1F1F1F1F0F0F0707CC
:106AAE00070301000000000000808080808080804D
:106ABE00C0C0C0C0C0C0C0C0C08080000000000008
:106ACE00000103070F1F3F3F3F3F3F3F3F3F3F3F09
:106ADE001F0F07030100000000000000000000006F
:106AEE000000000000000000000000000000000098
:106AFE000000000000000000000000000000000088
:106B0E000000000000000000000000000000000077
:106B1E0000000000000000000000000000001C3E0D
:106B2E007EFEFEFFFFFFDFDFDFDFCF8F8F8F8F8FCA
:106B3E0087878787870707071F1FBFFFFEF8F8F0B5
:106B4E0080000000000000000000000000000000B7
:106B5E000000000000000000000000000000000027
:106B6E000000000000000000000000000000000017
:106B7E000000000000000000000000000000000007
:106B8E0000000000000000000000000000000000F7
:106B9E0000000000000000000000000000000000E7
:106BAE0000000103030707070707070F0F0F0F0F5B
:106BBE000F0F0F0F0F1F1F1F1F1F1F1F0F0F070777
:106BCE0003000000000000000000000000000000B4
:106BDE0000000000000000000000000000000000A7
:106BEE000000000000000000000000000000000097
:106BFE000000000000000000000000000000000087
:106C0E000000000000000000000000000000808076
:106C1E0080808080800000000000000000000000E6
:106C2E000000000000000000000000000000000056
:106C3E000000000000000000000000000000000046
:106C4E000000000000000000000000008080808036
:106C5E00808080000000001C3F3F3F1F0700031F85
:106C6E007FFFFFFEF0E0F0F8FEFF7FBFFFFFFFFFAC
:106C7E00FF00000000000000000000000000000007
:106C8E00000000000080C0F0FCFCFE7F7F3F3F1F35
:106C9E001F1F1F1F3F7F7FFEFCFCF0C08000000007
:106CAE0000000000000000000000000000000000D6
:106CBE0000000000000000000000000000000000C6
:106CCE0000000080C0F0F8F8FC7E7E3E3F1F1F1FC4
:106CDE001F1F3F7E7EFCF8F8F0C080000000000011
:106CEE0000010303030303030100F0FFFFFFFFDFB7
:106CFE008000000000000000000000000000000006
:106D0E0000000000FCFFFFFFFF0F0100000000006D
:106D1E00000000000000000103FFFFFFFFFE000067
:106D2E000000000000000000000000000000000055
:106D3E000000000000000000000000000000000045
:106D4E000000F8FFFFFFFF0F03000000000000002F
:106D5E0000000000000307FFFFFFFFFC0000000023
:106D6E0000000000000000000000010303070F8F69
:106D7E00DF00000000000000000000000000000026
:106D8E0000000000031F3FFFFFFEFCE0E0C080801C
:106D9E0080808080C0E0E0FCFEFFFF3F1F0300000C
:106DAE0000000000000000000000000000000000D5
:106DBE0000000000000000000000000000000000C5
:106DCE000000071F3FFFFFFCF8E0E0C080808080DE
:106DDE008080C0E0E0F8FCFFFF3F1F0700000000CE
:106DEE000000000000000000C0E0F0F8FCFE7F3F55
:106DFE001F00000000000000000000000000000066
:106E0E0000000000000000000101070F0F1F1F1FF0
:106E1E001F1F1F1F1F0F0F070101000000000000A2
:106E2E000080E0F0F0F0E0C0C08080808080808044
:106E3E00C0C0C0C0C0E0E0E0E0E0C0000000000064
:106E4E000000000000000303070F0F1F1F1F1F1F6E
:106E5E001F1F1F0F0F07030300000000000000009C
:106E6E000000000000000000010303030100000009
:106E7E000000000000000000000000000000000004
:106E8E0000000000000000000000000000000000F4
:106E9E0000000000000000000000000000000000E4
:106EAE000007FFFFFFFFFF0F0F0F0F0F0F0F0F0F4B
:106EBE00070707070707030FFFFFFFFFF00000009C
:106ECE0000000000000000000000000000000000B4
:106EDE0000000000000000000000000000000000A4
:106EEE000000000000000000000000000000000094
:106EFE000000000000000000000000000000000084
:106F0E000000000000000000000000000000000073
:106F1E0000000000000000000000000000000080E3
:106F2E00C0E0F8FFFFFF7F0F000000000000000030
:106F3E00000000000000000003FFFFFFFFFE000046
:106F4E000000000000000000000000000000000033
:106F5E000000000000000000000000000000000023
:106F6E000000000000000000000000000000000013
:106F7E000000000000000000000000000000000003
:106F8E0000000000000000000000000000000000F3
:106F9E0000000000000000000000000000000307D9
:106FAE000F0F0F0F0F1F1F1F1F1F1F1F1F1F1F1F33
:106FBE003E3E3E3E3E3F1F1F1F0F0F0F0F030000B2
:106FCE0000000000000000000000000000000000B3
:106FDE0000000000000000000000000000000000A3
:106FEE000000000000000000000000000000000093
:106FFE000000000000000000000000000000000083
:10700E000000000000000000000000000000000072
:10701E000000000000000000000000000000000062
:10702E000000000000000000000000000000000052
:10703E000000000000000000000000000000000042
:10704E000000000000000000000000000000000032
:10705E0080C0C0C0C0C0C0C0C0C0C0C0C080000022
:10706E000E1F9FDFFFFFFFFFFFFF7F7F3F1E000012
:10707E000000000000000000000000000000000002
:10708E0000000000000000000000000000000000F2
:10709E0000000000000000000000000000000000E2
:1070AE0000000000000000000000000000000000D2
:1070BE0000000000000000000000000000000000C2
:1070CE000000000000000000000000000000008032
:1070DE00C3C7E7F7FFFFFFFFFFBF9F9F8F87808E1E
:1070EE001F3F3F3F3F3F3F3F3F3E3E3E3E3E3E3EC9
:1070FE001C00000000000000000000000000000066
:10710E000000000000000000000000000000000071
:10711E000000000000000000000000000000000061
:10712E000000000000000000000000000000000051
:10713E000000000000000000000000000000000041
:10714E00000000000000000000000000000000032E
:10715E00070F0F0F0F0F0F0F0F0F0F0F0F0F0F0F39
:10716E00070000000000000000000000000000000A
:10717E000000000000000000000000000000000001
:10718E0000000000000000000000000000000000F1
:10719E0000000000000000000000000000000000E1
:1071AE0000000000000000000000000000000000D1
:1071BE0000000000000000000000000000000000C1
:1071CE0000000000000000000000000000000000B1
:1071DE0000000000000000000000000000000000A1
:1071EE000000000000000000000000000000000091
:1071FE00000000000000000000000000000070F819
:10720E00F8F8F8F8F8F8F8F8F8F8F8F8F8F8F8F8F0
:10721E00F8F8F8F8F8F8F8F8F8F8F8F8F8F8F8F8E0
:10722E00F8700000000000000000000000000000E8
:10723E000000000000000000000000000000000040
:10724E00000070F8F8F8F8F8F8F8F8F8F8F8F8F828
:10725E00F8F8F8F8F8F8F8F8F8F8F8F8F8F8F8F8A0
:10726E00F8F8F8F8F87000000000000000000000C8
:10727E000000000000000000000000000000000000
:10728E0000000000000000000000000000000000F0
:10729E0000000000000000000000000000000000E0
:1072AE0000000000000000000000000000000000D0
:1072BE0000000000000000000000000000000000C0
:1072CE0000000000000000000000000000000000B0
:1072DE0000000000000000000000000000000000A0
:1072EE000000000000000000000000000000000090
:1072FE000000000000000000000000000000000080
:10730E00000000000000000000000000000000006F
:10731E00000000000000000000000000000000005F
:10732E000070F8F8F8FC7C7C7C7E3E3E3E3F1F1FD2
:10733E001F1F1F3F3E3E3E7EFCFCFCFCF8F8F87023
:10734E00000000000000000000000000000000002F
:10735E00000000000000000000000000000000001F
:10736E00000000000000000000000000000000000F
:10737E0000000000000000000000000000000000FF
:10738E0000000000000000000000000000000000EF
:10739E0000000000000000000000000000000000DF
:1073AE0000000000000000000000000000000000CF
:1073BE000000000000000000070F0F0F0700000084
:1073CE0000000000000000000000000000000000AF
:1073DE00000000000000000000000000000000009F
:1073EE00000000000000000000000000000000008F
:1073FE00000000000000000000000000000000007F
:10740E00000000000000000000000000000000006E
:10741E00000000000000000000000000000000005E
:10742E00000000000000000000000000000000004E
:10743E00000000000000000000000000000000003E
:10744E00000000000000000000000000000000002E
:10745E0000000000000000000000000000001C3EC4
:10746E003EBEFEFEFEFEFEFEFEFE7E3C0000000068
:10747E0000000000000000000000000000000000FE
:10748E0000000000000000000000000000000000EE
:10749E0000000000000000000000000000000000DE
:1074AE0000000000000000000000000000000000CE
:1074BE0000000000000000000000000000000000BE
:1074CE000000000000000000000000387C7C7CFC06
:1074DE00FCFCFCFCFCFCFCFC78000000001C3E7E6E
:1074EE007F7F7F7F7F7F7F7D7C7C7C7C7C7C380078
:1074FE00000000000000000000000000000000007E
:10750E00000000000000000000000000000000006D
:10751E00000000000000000000000000000000005D
:10752E00000000000000000000000000000000004D
:10753E00000000000000000000000000000000003D
:10754E0000000000000000000000387CFCFEFFFF81
:10755E00FFFFFFFFFBF9F9F8F8F8F87000000000E4
:10756E00000000000000000000000000000000000D
:10757E0000000000000000000000000000000000FD
:10758E0000000000000000000000000000000000ED
:10759E0000000000000000000000000000000000DD
:1075AE0000000000000000000000000000000000CD
:1075BE0000000000000000000000000000000000BD
:1075CE0000000000000000000000000000000000AD
:1075DE00000000000000000000000000000000009D
:1075EE00000000000000000000000000000000008D
:1075FE00000000000000000000000000000070F815
:10760E00F8F8F8F8F8F8F8F8F8F8F8F8F8F8F8F8EC
:10761E00F8F8F8F8F8F8F8F8F8F8F8F8F8F8F8F8DC
:10762E00F8700000000000000000000000000000E4
:10763E00000000000000000000000000000000003C
:10764E00000070F8F8F8F8F8F8F8F8F8F8F8F8F824
:10765E00F8F8F8F8F8F8F8F8F8F8F8F8F8F8F8F89C
:10766E00F8F8F8F8F87000000000000000000000C4
:10767E0000000000000000000000000000000000FC
:10768E0000000000000000000000000000000000EC
:10769E0000000000000000000000000000000000DC
:1076AE0000000000000000000000000000000000CC
:1076BE0000000000000000000000000000000000BC
:1076CE0000000000000000000000000000000000AC
:1076DE00000000000000000000000000000000009C
:1076EE00000000000000000000000000000000008C
:1076FE00000000000000000000000000000000007C
:10770E00000000000000000000000000000000006B
:10771E00000000000000000000000000000000005B
:10772E000070F8F8F8FC7C7C7C7E3E3E3E3F1F1FCE
:10773E001F1F1F3F3E3E3E7EFCFCFCFCF8F8F8701F
:10774E00000000000000000000000000000000002B
:10775E00000000000000000000000000000000001B
:10776E00000000000000000000000000000000000B
:10777E0000000000000000000000000000000000FB
:10778E0000000000000000000000000000000000EB
:10779E0000000000000000000000000000000000DB
:1077AE0000000000000000000000000000000000CB
:1077BE000000000000000000070F0F0F0700000080
:1077CE0000000000000000000000000000000000AB
:1077DE00000000000000000000000000000000009B
:1077EE00000000000000000000000000000000008B
:1077FE00000000000000000000000000000000007B
:10780E00000000000000000000000000000000006A
:10781E00000000000000000000000000000000005A
:10782E00000000000000000000000000000000004A
:10783E00000000000000000000000000000000003A
:10784E00000000000000000000000000000000002A
:10785E00000000000000000000000000000000001A
:10786E00000000000000000000000000000000000A
:10787E0000000000000000000000000000000000FA
:10788E00000000E0F0F0F0E0E0C0808000000000BA
:10789E0000000000000000000000000000000000DA
:1078AE0000000000000000000000000000000000CA
:1078BE0000000000000000000000000000000000BA
:1078CE0000000000000000000000000000000000AA
:1078DE0000000000008080C0E0E0F0F0F0E000006A
:1078EE00000000000000000000000000000000008A
:1078FE00000000000000000000000000000000007A
:10790E000000000001010307070F0F1F3F3F7EFC21
:10791E00FCF8F8F0E0E0C0808000000000000000FD
:10792E000000000000000000000000000000000049
:10793E000000000000000000000000000000000039
:10794E0000000000000000008080C0E0E0F0F8F8C9
:10795E00FCFC7E3F3F1F0F0F0707030101000000D5
:10796E000000000000000000000000000000000009
:10797E0000000000000000000000000000000000F9
:10798E0000000000000000000000000000000000E9
:10799E000001010307878FCFFFFFFFFEFCFC78007D
:1079AE0000000000000000000000000000000000C9
:1079BE0000000000000000000000000000000000B9
:1079CE00000078FCFCFEFFFFFFCF8F87070301014D
:1079DE000000000000000000000000000000000099
:1079EE000000000000000000000000000000000089
:1079FE000000000000000000000000000000000079
:107A0E000000000000000000008080C0E0E0F0F800
:107A1E00F8FC7E7E3F1F1F0F0707030101000000C9
:107A2E000000000000000000000000000000000048
:107A3E000000000000000000000000000000000038
:107A4E000000000001010307070F1F1F3F7E7EFC91
:107A5E00F8F8F0E0E0C080800000000000000000B8
:107A6E000000000000000000000000000000000008
:107A7E0000000000000000000000000000000000F8
:107A8E00000070F8F8FC7E7E3F1F1F0F07070301F2
:107A9E0001000000000000000000000000000000D7
:107AAE000000001C3EFEFEFEFEFEFEBE3E3E3E3EC4
:107ABE003E3E3E3EBEFEFEFEFEFEFE3E1C000000B4
:107ACE0000000000000000000000000000000000A8
:107ADE0001010307070F1F1F3F7E7EFCF8F87000A1
:107AEE000000000000000000000000000000000088
:107AFE000000000000000000000000000000000078
:107B0E000000000000000000000000000000000067
:107B1E000000000000000000000000000000000057
:107B2E000000000000000103070F3F7FFFFEF8F08A
:107B3E00F0F8FEFF7F3F1F0703010000000000006A
:107B4E000000000000000000000000000000000027
:107B5E000000000000000000000000000000000017
:107B6E000000000000000000000000000000000007
:107B7E0000000000000000000000000000000000F7
:107B8E0000000000000000000000000000000000E7
:107B9E0000000000000000000000000000000000D7
:107BAE0000000000000000000000000000010707B8
:107BBE0007070300000000000000000000000000A6
:107BCE0000000000000000000000000000000000A7
:107BDE000000000000000000000000000000000097
:107BEE000000000000000000000000000000000087
:107BFE000000000000000000000000000000000077
:107C0E000000000000000000000000000000000066
:107C1E000000000000000000000000000000000056
:107C2E000000000000000000000000000000000046
:107C3E000000000000000000000000000000000036
:107C4E000000000000000000000000000000000026
:107C5E000000000000000000000000000000000016
:107C6E000000000000000000000000000000000006
:107C7E0000000000000000000000000000000000F6
:107C8E0000000000000000000000000000E0E0E046
:107C9E00E0E0E0E0E0E0E0E0E0E0E0E0E0E0E0E0D6
:107CAE00E0E0E0E0E0E0E0000000000000000000A6
:107CBE00000000000000000000000000E0E0E0E036
:107CCE00E0E0E0E0E0E0E0E0E0E0E0E0E0E0E0E0A6
:107CDE00E0E0E0E0E0E00000000000000000000056
:107CEE000000000000000000000000000000000086
:107CFE000000000000000000000000000000000076
:107D0E0000000000000000000000000000FFFFFF68
:107D1E00FFFFFFFFFFFFFFFFFFFFFFFFFFFFFFFF65
:107D2E00FFFFFFFFFFFFFF0000000000000000004C
:107D3E00000000000000000000000000FFFFFFFF39
:107D4E00FFFFFFFFFFFFFFFFFFFFFFFFFFFFFFFF35
:107D5E00FFFFFFFFFFFF000000000000000000001B
:107D6E000000000000000000000000000000000005
:107D7E0000000000000000000000000000000000F5
:107D8E0000000000000000000000000000FFFFFFE8
:107D9E00FFFFFFFFFFFFFFFFFFFFFFFFFFFFFFFFE5
:107DAE00FFFFFFFFFFFFFF000000000000000000CC
:107DBE00000000000000000000000000FFFFFFFFB9
:107DCE00FFFFFFFFFFFFFFFFFFFFFFFFFFFFFFFFB5
:107DDE00FFFFFFFFFFFF000000000000000000009B
:107DEE000000000000000000000000000000000085
:107DFE000000000000000000000000000000000075
:107E0E0000000000000000000000000000FFFFFF67
:107E1E00FFFFFFFFFFFFFFFFFFFFFFFFFFFFFFFF64
:107E2E00FFFFFFFFFFFFFF0000000000000000004B
:107E3E00000000000000000000000000FFFFFFFF38
:107E4E00FFFFFFFFFFFFFFFFFFFFFFFFFFFFFFFF34
:107E5E00FFFFFFFFFFFF000000000000000000001A
:107E6E000000000000000000000000000000000004
:107E7E0000000000000000000000000000000000F4
:107E8E0000000000000000000000000000FFFFFFE7
:107E9E00FFFFFFFFFFFFFFFFFFFFFFFFFFFFFFFFE4
:107EAE00FFFFFFFFFFFFFF000000000000000000CB
:107EBE00000000000000000000000000FFFFFFFFB8
:107ECE00FFFFFFFFFFFFFFFFFFFFFFFFFFFFFFFFB4
:107EDE00FFFFFFFFFFFF000000000000000000009A
:107EEE000000000000000000000000000000000084
:107EFE000000000000000000000000000000000074
:107F0E00000000000000000000000000003F3F3FA6
:107F1E003F3F3F3F3F3F3F3F3F3F3F3F3F3F3F3F63
:107F2E003F3F3F3F3F3F3F0000000000000000008A
:107F3E000000000000000000000000003F3F3F3F37
:107F4E003F3F3F3F3F3F3F3F3F3F3F3F3F3F3F3F33
:107F5E003F3F3F3F3F3F0000000000000000000099
:107F6E000000000000000000000000000000000003
:107F7E0000000000000000000000000000000000F3
:107F8E0000000000000000000000000000000000E3
:107F9E0000000000000000000000000000000000D3
:107FAE0000000000000000000000000000000000C3
:107FBE0000000000000000000000000000000000B3
:107FCE0000000000000000000000000000000000A3
:107FDE000000000000000000000000000000000093
:107FEE000000000000000000000000000000000083
:027FFE00000081
:020000040020DA
:08000000FFFFFFFFFFFFFFFF00
:020000040030CA
:0E000000FF081B1EFF8181FF0FC00FE00F40A5
:00000001FF
