:020000040000FA
:0400000076EF00F0A7
:060008002C824BED09F013
:100018002C80D8CF04F0E8CF05F0E0CF06F0F2A4AA
:1000280018EF00F01AEF00F06EEF00F0F294FE0EF9
:10003800D76E0C0ED66EF40E2A26010E2B221E50F9
:100048002A5C1F502B58D8B02CEF00F02EEF00F090
:1000580031EF00F08A8232EF00F08A9220502A5C59
:1000680021502B58D8B03BEF00F03DEF00F040EFA7
:1000780000F08A8441EF00F08A9422502A5C2350D1
:100088002B58D8B04AEF00F04CEF00F04FEF00F0DB
:100098008A8650EF00F08A9624502A5C25502B5807
:1000A800D8B059EF00F05BEF00F05EEF00F08A88FF
:1000B8005FEF00F08A98200E2A5C4E0E2B58D8A0CD
:1000C80068EF00F06AEF00F06EEF00F0000E2B6EA4
:1000D800000E2A6E06C0E0FF05C0E8FF04C0D8FF86
:1000E8002C901000FCEF0AF0600ED36E5CEC0BF065
:1000F800010E936E8A6A2FEC0BF0800E146E1A0EA6
:10010800156E060E166E000E176E2BEC0AF0060E14
:100118001D6E130E1C6EAE0EE82EFED71C2EFCD7DD
:100128001D2EFAD742EC08F0030E1D6E8A0E1C6EC7
:10013800560EE82EFED71C2EFCD71D2EFAD72828DF
:1001480006E12928D8A4ABEF00F0ADEF00F0B5EF39
:1001580000F0FF0E0A6E7B0E0B6EF0EC09F0A3EFB9
:1001680000F028502910D8B4BCEF00F0BEEF00F022
:10017800C8EF00F0650E28182910D8A4C6EF00F0C3
:10018800C8EF00F0E3EF00F0D9EC07F0CEEF00F095
:1001980081EC0AF028502910D8B4D5EF00F0D7EF39
:1001A80000F0CCEF00F0650E28182910D8B4DFEF66
:1001B80000F0E1EF00F0CCEF00F0A3EF00F028042E
:1001C8002910D8B4EAEF00F0ECEF00F000EF01F0EE
:1001D800660E28182910D8A4F4EF00F0F6EF00F006
:1001E80015EF01F000EF01F0FF0E0A6E770E0B6EAF
:1001F800F0EC09F0AAEC0AF028042910D8B407EFAB
:1002080001F009EF01F0F8EF00F0660E2818291048
:10021800D8B411EF01F013EF01F0F8EF00F0A3EFFD
:1002280000F0020E28182910D8B41DEF01F01FEFB6
:1002380001F029EF01F0670E28182910D8A427EF3C
:1002480001F029EF01F091EF01F0D3EC0AF07BEF18
:1002580001F0020E28182910D8B435EF01F037EF55
:1002680001F043EF01F0670E28182910D8B43FEFCA
:1002780001F041EF01F043EF01F0A3EF00F0FF0EB2
:100288000A6E730E0B6EF0EC09F0040E1D6ECF0EA5
:100298001C6E020EE82EFED71C2EFCD71D2EFAD798
:1002A800020E28182910D8B45CEF01F05EEF01F0B7
:1002B8006AEF01F0670E28182910D8B466EF01F02C
:1002C80068EF01F06AEF01F0A3EF00F0FF0E0A6E8D
:1002D8006F0E0B6EF0EC09F0040E1D6ECF0E1C6E47
:1002E800020EE82EFED71C2EFCD71D2EFAD7020EC2
:1002F80028182910D8B483EF01F085EF01F02DEF0D
:1003080001F0670E28182910D8B48DEF01F08FEF8F
:1003180001F02DEF01F0A3EF00F0030E28182910CB
:10032800D8B499EF01F09BEF01F0A5EF01F0610E51
:1003380028182910D8A4A3EF01F0A5EF01F0C5EF04
:1003480001F0FF0E0A6E670E0B6EF0EC09F0AFEFCE
:1003580001F05DEC02F0030E28182910D8B4B7EFAD
:1003680001F0B9EF01F0ADEF01F0610E2818291086
:10037800D8B4C1EF01F0C3EF01F0ADEF01F0A3EF86
:1003880000F0040E28182910D8B4CDEF01F0CFEFF3
:1003980001F0D9EF01F0630E28182910D8A4D7EF7F
:1003A80001F0D9EF01F0F9EF01F0FF0E0A6E6B0EC4
:1003B8000B6EF0EC09F0E3EF01F038EC04F0040EFA
:1003C80028182910D8B4EBEF01F0EDEF01F0E1EFB8
:1003D80001F0630E28182910D8B4F5EF01F0F7EFF3
:1003E80001F0E1EF01F0A3EF00F0050E2818291045
:1003F800D8B401EF02F003EF02F00DEF02F0620E45
:1004080028182910D8A40BEF02F00DEF02F029EFFD
:1004180002F0F4EC08F013EF02F013EC06F0050E0E
:1004280028182910D8B41BEF02F01DEF02F011EFC5
:1004380002F0620E28182910D8B425EF02F027EF31
:1004480002F011EF02F0A3EF00F0060E28182910B1
:10045800D8B431EF02F033EF02F03DEF02F0640E52
:1004680028182910D8A43BEF02F03DEF02F059EF0D
:1004780002F09DEC08F043EF02F0F6EC06F0060EF1
:1004880028182910D8B44BEF02F04DEF02F041EFD5
:1004980002F0640E28182910D8B455EF02F057EF6F
:1004A80002F041EF02F0A3EF00F0A3EF00F076EFC7
:1004B80000F0070E086ED00E076E000E57EC0AF01B
:1004C800050E086EDC0E076E010E57EC0AF0050EDD
:1004D800086EDC0E076E020E57EC0AF0030E086E6B
:1004E800E80E076E030E57EC0AF0030E0B6E080EAB
:1004F8000A6E770EE82EFED70A2EFCD70B2EFAD7F7
:100508000000030E28182910D8B48DEF02F08FEFE1
:1005180002F09BEF02F0610E28182910D8B497EF6B
:1005280002F099EF02F09BEF02F037EF04F0070EAC
:10053800086ED00E076E000E57EC0AF0070E086E14
:10054800D00E076E010E57EC0AF0030E086EE80E87
:10055800076E020E57EC0AF0030E086EE80E076EDF
:10056800030E57EC0AF0030E0B6E080E0A6E770E98
:10057800E82EFED70A2EFCD70B2EFAD70000030E62
:1005880028182910D8B4CBEF02F0CDEF02F0D9EF3C
:1005980002F0610E28182910D8B4D5EF02F0D7EF71
:1005A80002F0D9EF02F037EF04F0050E086EDC0E0A
:1005B800076E000E57EC0AF0070E086ED00E076E95
:1005C800010E57EC0AF0030E086EE80E076E020ED5
:1005D80057EC0AF0050E086EDC0E076E030E57EC9A
:1005E8000AF0030E0B6E080E0A6E770EE82EFED781
:1005F8000A2EFCD70B2EFAD70000030E2818291054
:10060800D8B409EF03F00BEF03F017EF03F0610E16
:1006180028182910D8B413EF03F015EF03F017EFDB
:1006280003F037EF04F0050E086EDC0E076E000EBF
:1006380057EC0AF0050E086EDC0E076E010E57EC3B
:100648000AF0050E086EDC0E076E020E57EC0AF073
:10065800050E086EDC0E076E030E57EC0AF0030E4B
:100668000B6E080E0A6E770EE82EFED70A2EFCD700
:100678000B2EFAD70000030E28182910D8B447EF1C
:1006880003F049EF03F055EF03F0610E2818291025
:10069800D8B451EF03F053EF03F055EF03F037EF01
:1006A80004F0050E086EDC0E076E000E57EC0AF01B
:1006B800030E086EE80E076E010E57EC0AF0070EDF
:1006C800086ED00E076E020E57EC0AF0050E086E83
:1006D800DC0E076E030E57EC0AF0030E0B6E080EC5
:1006E8000A6E770EE82EFED70A2EFCD70B2EFAD705
:1006F8000000030E28182910D8B485EF03F087EFFF
:1007080003F093EF03F0610E28182910D8B48FEF87
:1007180003F091EF03F093EF03F037EF04F0030ECB
:10072800086EE80E076E000E57EC0AF0030E086E0E
:10073800E80E076E010E57EC0AF0070E086ED00E91
:10074800076E020E57EC0AF0070E086ED00E076E01
:10075800030E57EC0AF0030E0B6E080E0A6E770EA6
:10076800E82EFED70A2EFCD70B2EFAD70000030E70
:1007780028182910D8B4C3EF03F0C5EF03F0D1EF60
:1007880003F0610E28182910D8B4CDEF03F0CFEF8D
:1007980003F0D1EF03F037EF04F0030E086EE80E14
:1007A800076E000E57EC0AF0050E086EDC0E076E99
:1007B800010E57EC0AF0050E086EDC0E076E020EED
:1007C80057EC0AF0070E086ED00E076E030E57ECB2
:1007D8000AF0030E0B6E080E0A6E770EE82EFED78F
:1007E8000A2EFCD70B2EFAD70000030E2818291062
:1007F800D8B401EF04F003EF04F00FEF04F0610E3A
:1008080028182910D8B40BEF04F00DEF04F00FEFFF
:1008180004F037EF04F0050E086EDC0E076E000ECC
:1008280057EC0AF0050E086EDC0E076E010E57EC49
:100838000AF0050E086EDC0E076E020E57EC0AF081
:10084800050E086EDC0E076E030E57EC0AF0030E59
:100858000B6E080E0A6E770EE82EFED70A2EFCD70E
:100868000B2EFAD700001200050E086EDC0E076E7C
:10087800000E57EC0AF0050E086EDC0E076E010E2E
:1008880057EC0AF0050E086EDC0E076E020E57ECE8
:100898000AF0050E086EDC0E076E030E57EC0AF020
:1008A800030E0B6E080E0A6E770EE82EFED70A2E80
:1008B800FCD70B2EFAD70000040E28182910D8B43C
:1008C80068EF04F06AEF04F076EF04F0630E28187E
:1008D8002910D8B472EF04F074EF04F076EF04F046
:1008E80012EF06F0030E086EE80E076E000E57ECC6
:1008F8000AF0050E086EDC0E076E010E57EC0AF0C2
:10090800050E086EDC0E076E020E57EC0AF0070E95
:10091800086ED00E076E030E57EC0AF0030E0B6E2E
:10092800080E0A6E770EE82EFED70A2EFCD70B2E7D
:10093800FAD70000040E28182910D8B4A6EF04F03E
:10094800A8EF04F0B4EF04F0630E28182910D8B407
:10095800B0EF04F0B2EF04F0B4EF04F012EF06F0D9
:10096800030E086EE80E076E000E57EC0AF0030E31
:10097800086EE80E076E010E57EC0AF0070E086EB7
:10098800D00E076E020E57EC0AF0070E086ED00E56
:10099800076E030E57EC0AF0030E0B6E080E0A6E74
:1009A800770EE82EFED70A2EFCD70B2EFAD70000BA
:1009B800040E28182910D8B4E4EF04F0E6EF04F088
:1009C800F2EF04F0630E28182910D8B4EEEF04F003
:1009D800F0EF04F0F2EF04F012EF06F0050E086EE7
:1009E800DC0E076E000E57EC0AF0030E086EE80ED8
:1009F800076E010E57EC0AF0070E086ED00E076E50
:100A0800020E57EC0AF0050E086EDC0E076E030E98
:100A180057EC0AF0030E0B6E080E0A6E770EE82EDE
:100A2800FED70A2EFCD70B2EFAD70000040E281882
:100A38002910D8B422EF05F024EF05F030EF05F0C7
:100A4800630E28182910D8B42CEF05F02EEF05F006
:100A580030EF05F012EF06F0050E086EDC0E076E9B
:100A6800000E57EC0AF0050E086EDC0E076E010E3C
:100A780057EC0AF0050E086EDC0E076E020E57ECF6
:100A88000AF0050E086EDC0E076E030E57EC0AF02E
:100A9800030E0B6E080E0A6E770EE82EFED70A2E8E
:100AA800FCD70B2EFAD70000040E28182910D8B44A
:100AB80060EF05F062EF05F06EEF05F0630E2818A1
:100AC8002910D8B46AEF05F06CEF05F06EEF05F069
:100AD80012EF06F0050E086EDC0E076E000E57ECDE
:100AE8000AF0070E086ED00E076E010E57EC0AF0DA
:100AF800030E086EE80E076E020E57EC0AF0050E9C
:100B0800086EDC0E076E030E57EC0AF0030E0B6E30
:100B1800080E0A6E770EE82EFED70A2EFCD70B2E8B
:100B2800FAD70000040E28182910D8B49EEF05F053
:100B3800A0EF05F0ACEF05F0630E28182910D8B423
:100B4800A8EF05F0AAEF05F0ACEF05F012EF06F0FC
:100B5800070E086ED00E076E000E57EC0AF0070E4F
:100B6800086ED00E076E010E57EC0AF0030E086EE1
:100B7800E80E076E020E57EC0AF0030E086EE80E38
:100B8800076E030E57EC0AF0030E0B6E080E0A6E82
:100B9800770EE82EFED70A2EFCD70B2EFAD70000C8
:100BA800040E28182910D8B4DCEF05F0DEEF05F0A4
:100BB800EAEF05F0630E28182910D8B4E6EF05F01F
:100BC800E8EF05F0EAEF05F012EF06F0070E086E01
:100BD800D00E076E000E57EC0AF0050E086EDC0EFC
:100BE800076E010E57EC0AF0050E086EDC0E076E54
:100BF800020E57EC0AF0030E086EE80E076E030E9D
:100C080057EC0AF0030E0B6E080E0A6E770EE82EEC
:100C1800FED70A2EFCD70B2EFAD700001200030EBF
:100C2800086EE80E076E000E57EC0AF0050E086E07
:100C3800DC0E076E010E57EC0AF0050E086EDC0E8E
:100C4800076E020E57EC0AF0030E086EE80E076EE8
:100C5800030E57EC0AF0030E0B6E080E0A6E770EA1
:100C6800E82EFED70A2EFCD70B2EFAD70000050E69
:100C780028182910D8B443EF06F045EF06F051EFD5
:100C880006F0620E28182910D8B44DEF06F04FEF81
:100C980006F051EF06F0F5EF06F0030E086EE80EC9
:100CA800076E000E57EC0AF0070E086ED00E076E9E
:100CB800010E57EC0AF0070E086ED00E076E020EF2
:100CC80057EC0AF0030E086EE80E076E030E57EC99
:100CD8000AF0030E0B6E080E0A6E770EE82EFED78A
:100CE8000A2EFCD70B2EFAD70000050E281829105B
:100CF800D8B481EF06F083EF06F08FEF06F0620EAE
:100D080028182910D8B48BEF06F08DEF06F08FEF76
:100D180006F0F5EF06F0050E086EDC0E076E000E05
:100D280057EC0AF0070E086ED00E076E010E57EC4E
:100D38000AF0070E086ED00E076E020E57EC0AF086
:100D4800050E086EDC0E076E030E57EC0AF0030E54
:100D58000B6E080E0A6E770EE82EFED70A2EFCD709
:100D68000B2EFAD70000050E28182910D8B4BFEFAB
:100D780006F0C1EF06F0CDEF06F0620E2818291034
:100D8800D8B4C9EF06F0CBEF06F0CDEF06F0F5EFDB
:100D980006F0050E086EDC0E076E000E57EC0AF022
:100DA800050E086EDC0E076E010E57EC0AF0050EF4
:100DB800086EDC0E076E020E57EC0AF0050E086E80
:100DC800DC0E076E030E57EC0AF0030E0B6E080ECE
:100DD8000A6E770EE82EFED70A2EFCD70B2EFAD70E
:100DE80000001200050E086EDC0E076E000E57ECB0
:100DF8000AF0070E086ED00E076E010E57EC0AF0C7
:100E0800070E086ED00E076E020E57EC0AF0050E9C
:100E1800086EDC0E076E030E57EC0AF0030E0B6E1D
:100E2800080E0A6E770EE82EFED70A2EFCD70B2E78
:100E3800FAD70000060E28182910D8B426EF07F0B4
:100E480028EF07F034EF07F0640E28182910D8B4FB
:100E580030EF07F032EF07F034EF07F0D8EF07F084
:100E6800030E086EE80E076E000E57EC0AF0070E28
:100E7800086ED00E076E010E57EC0AF0070E086ECA
:100E8800D00E076E020E57EC0AF0030E086EE80E3D
:100E9800076E030E57EC0AF0030E0B6E080E0A6E6F
:100EA800770EE82EFED70A2EFCD70B2EFAD70000B5
:100EB800060E28182910D8B464EF07F066EF07F07B
:100EC80072EF07F0640E28182910D8B46EEF07F0F7
:100ED80070EF07F072EF07F0D8EF07F0030E086E17
:100EE800E80E076E000E57EC0AF0050E086EDC0ED1
:100EF800076E010E57EC0AF0050E086EDC0E076E41
:100F0800020E57EC0AF0030E086EE80E076E030E89
:100F180057EC0AF0030E0B6E080E0A6E770EE82ED9
:100F2800FED70A2EFCD70B2EFAD70000060E28187B
:100F38002910D8B4A2EF07F0A4EF07F0B0EF07F03C
:100F4800640E28182910D8B4ACEF07F0AEEF07F0FC
:100F5800B0EF07F0D8EF07F0050E086EDC0E076E4D
:100F6800000E57EC0AF0050E086EDC0E076E010E37
:100F780057EC0AF0050E086EDC0E076E020E57ECF1
:100F88000AF0050E086EDC0E076E030E57EC0AF029
:100F9800030E0B6E080E0A6E770EE82EFED70A2E89
:100FA800FCD70B2EFAD7000012007CEC0BF0780E61
:100FB80019EC0BF0400E19EC0BF00A6A0A50B00F4E
:100FC8004DEC0BF0000E4DEC0BF0100E4DEC0BF051
:100FD8007CEC0BF0780E19EC0BF0400E19EC0BF0D2
:100FE8000B6A010E0A64FBEF07F0FDEF07F02AEF2A
:100FF80008F0070E0A6003EF08F005EF08F02AEF83
:1010080008F01D0E0B640BEF08F00DEF08F015EF5C
:1010180008F0320E0B6413EF08F015EF08F025EF17
:1010280008F04F0E0B641BEF08F01DEF08F02AEFD5
:1010380008F0650E0B6023EF08F025EF08F02AEFA3
:1010480008F0FF0E19EC0BF02DEF08F0000E19EC6C
:101058000BF00B2A7F0E0B6434EF08F036EF08F024
:10106800F5EF07F073EC0BF00A2A070E0A643FEF5E
:1010780008F041EF08F0E2EF07F01200820E0A6E66
:10108800DE0EE82EFED70A2EFCD7AE0E4DEC0BF086
:10109800100EE82EFED700D0D50E4DEC0BF0100E3A
:1010A800E82EFED700D0800E4DEC0BF0A80E4DECCC
:1010B8000BF03F0E4DEC0BF0D30E4DEC0BF0000E89
:1010C8004DEC0BF0400E4DEC0BF08D0E4DEC0BF093
:1010D800140E4DEC0BF0200E4DEC0BF0000E4DEC09
:1010E8000BF0A10E4DEC0BF0C80E4DEC0BF0DA0E28
:1010F8004DEC0BF0120E4DEC0BF0810E4DEC0BF09D
:101108007F0E4DEC0BF0D90E4DEC0BF0F10E4DECC3
:101118000BF0DB0E4DEC0BF0400E4DEC0BF0A40E7B
:101128004DEC0BF0A60E4DEC0BF0AF0E4DEC0BF0AA
:1011380012000A6A0A50B00F4DEC0BF0000E4DEC8D
:101148000BF0100E4DEC0BF00B6A010E0A64AFEFBA
:1011580008F0B1EF08F0DEEF08F0070E0A60B7EF0D
:1011680008F0B9EF08F0DEEF08F0310E0B64BFEFBE
:1011780008F0C1EF08F0C9EF08F0460E0B64C7EF9E
:1011880008F0C9EF08F0D9EF08F0630E0B64CFEF51
:1011980008F0D1EF08F0DEEF08F0790E0B60D7EF1A
:1011A80008F0D9EF08F0DEEF08F0FF0E3EEC0BF088
:1011B800E1EF08F0000E3EEC0BF00B2A7F0E0B64FB
:1011C800E8EF08F0EAEF08F0A9EF08F00A2A070E9E
:1011D8000A64F1EF08F0F3EF08F09EEF08F0120050
:1011E8000A6A0A50B00F4DEC0BF0000E4DEC0BF0F4
:1011F800100E4DEC0BF00B6A010E0A6406EF09F0B5
:1012080008EF09F035EF09F0070E0A600EEF09F054
:1012180010EF09F035EF09F0090E0B6416EF09F02D
:1012280018EF09F020EF09F01E0E0B641EEF09F00D
:1012380020EF09F030EF09F03B0E0B6426EF09F0C0
:1012480028EF09F035EF09F0510E0B602EEF09F089
:1012580030EF09F035EF09F0FF0E3EEC0BF038EFF8
:1012680009F0000E3EEC0BF00B2A7F0E0B643FEFEB
:1012780009F041EF09F000EF09F00A2A070E0A64A5
:1012880048EF09F04AEF09F0F5EF08F01200060000
:101298009EAA51EF09F053EF09F09CEF09F0AECF89
:1012A80002F0036A035009E1300E025CD8A05FEF38
:1012B80009F061EF09F072EF09F0035007E1370E0A
:1012C800025CD8B06AEF09F06CEF09F072EF09F030
:1012D800D00E0224286EFF0E0320296E035009E168
:1012E800610E025CD8A07BEF09F07DEF09F08CEF6E
:1012F80009F0035007E1680E025CD8B086EF09F0E8
:1013080088EF09F08CEF09F002C028F003C029F03B
:1013180002500310D8A493EF09F095EF09F099EF64
:1013280009F0000E296E000E286E025068EC0BF0D2
:101338002C921100000E0F6E000E106E000E116E32
:10134800000E126E0B500C100D100E10D8B4AFEF2B
:1013580009F0B1EF09F0E7EF09F0010E136EBBEFEA
:1013680009F0D8900B360C360D360E36132A0EAE11
:10137800C0EF09F0C2EF09F0B5EF09F0D8900F36C9
:101388001036113612360B50075C0C5008580D50A9
:1013980009580E500A58D8A0D4EF09F0D6EF09F032
:1013A800DFEF09F00B50075E0C50085A0D50095A30
:1013B8000E500A5A0F80D8900E320D320C320B3272
:1013C800132EC2EF09F00FC007F010C008F011C0CB
:1013D80009F012C00AF01200116A1150B00F4DEC5A
:1013E8000BF0000E4DEC0BF0100E4DEC0BF0106AEC
:1013F8001150800DF3CF0CF0F4CF0DF00C500A24EF
:101408000E6E0D500B200F6E10500E26000E0F2280
:101418000EC0F6FF0FC0F7FF0800F5503EEC0BF0CA
:10142800102A7F0E10641BEF0AF01DEF0AF0FCEF84
:1014380009F0100EE82EFED700D0112A070E11640D
:1014480028EF0AF02AEF0AF0F1EF09F01200280E4F
:10145800C66EC56A000E076E090E086E3D0E096E4F
:10146800000E0A6E14C018F015C019F016C01AF054
:1014780017C01BF0020ED890183619361A361B36CC
:10148800E82E3FEF0AF018C00BF019C00CF01AC094
:101498000DF01BC00EF09EEC09F00704C86EC76A79
:1014A800948694881200096E040E09605EEF0AF0B3
:1014B80060EF0AF080EF0AF0F40E075C010E08589E
:1014C800D8A069EF0AF06BEF0AF080EF0AF0C50EBA
:1014D800075C090E0858D8B074EF0AF076EF0AF0E6
:1014E80080EF0AF00950020DF3501E0FD96EDA6A28
:1014F80007C0DEFF08C0DDFF1200050E086EDC0E17
:10150800076E000E57EC0AF0050E086EDC0E076E2B
:10151800010E57EC0AF0030E0B6E080E0A6E770EDA
:10152800E82EFED70A2EFCD70B2EFAD70000050EA0
:10153800086EDC0E076E020E57EC0AF0050E086EF8
:10154800DC0E076E030E57EC0AF01200070E086E49
:10155800D00E076E020E57EC0AF0030E086EE80E66
:10156800076E030E57EC0AF0030E0B6E080E0A6E98
:10157800770EE82EFED70A2EFCD70B2EFAD70000DE
:10158800050E086EDC0E076E000E57EC0AF0050E0D
:10159800086EDC0E076E010E57EC0AF01200070EFB
:1015A800086ED00E076E000E57EC0AF0030E086E98
:1015B800E80E076E010E57EC0AF0030E0B6E080ECC
:1015C8000A6E770EE82EFED70A2EFCD70B2EFAD716
:1015D8000000030E086EE80E076E020E57EC0AF0C4
:1015E800070E086ED00E076E030E57EC0AF01200B5
:1015F8000A0EF66E170EF76E000EF86E00EE1EF06D
:1016080010EE08F00900F5CFEEFFE550E150FAE1E1
:101618002B6A2A6A296A286A276A266A2C902C92D9
:10162800000EF86E000178EF00F0086E08C0C9FFE0
:10163800C7B021EF0BF023EF0BF01CEF0BF0C5CF79
:1016480007F01F0E0716D8A42CEF0BF02EEF0BF0A7
:1016580023EF0BF01200948C948EAB8EAC8AAB887F
:101668009E889E8AAC98B896AC84190EAF6E9D8AF7
:101678009F8A1200096E7CEC0BF0780E19EC0BF0C7
:10168800400E19EC0BF0095019EC0BF073EC0BF051
:101698001200096E7CEC0BF0780E19EC0BF0000EC2
:1016A80019EC0BF0095019EC0BF073EC0BF012006D
:1016B800880ED56EFE0ED76E0C0ED66EF28AF28E9E
:1016C800F28CF194D08E1200016EACA26EEF0BF08A
:1016D80070EF0BF069EF0BF001C0ADFF1200C5848D
:1016E800C5B479EF0BF07BEF0BF074EF0BF0120041
:1016F800C580C5B082EF0BF084EF0BF07DEF0BF0E7
:0A1708001200DC05DC05DC05DC0541
:104BFE0000000000000000000000000000000000A7
:104C0E000000000000000000000000000000000096
:104C1E0000000000000000000080808080F0F0F0B6
:104C2E00F0F0000000000000000000000000000096
:104C3E00000000000000000000000000000000F076
:104C4E00F0F0F0F000000000000000000000000096
:104C5E000000000000000000000000000000000046
:104C6E000000000000000000000000000000000036
:104C7E000000000000000000000000000000000026
:104C8E000000000000000000000000000000000016
:104C9E00000000000000FEFEFEFFFFFFFFFFFFFF13
:104CAE00FFFF0000000000000000000000000000F8
:104CBE00000000000000000000000000000000FFE7
:104CCE00FFFFFFFFFFFFFFFFF0F0F0F0000000001E
:104CDE0000000000000000000000000000000000C6
:104CEE0000000000000000000000000000000000B6
:104CFE0000000000000000000000000000000000A6
:104D0E00000000000000000000000000000000F0A5
:104D1E00F0F0F0FFFFFFFFFFFFFFFFFFFFFFFFFFC2
:104D2E00FFFF000000000000000000000000000077
:104D3E00000000000000000000000000000000FF66
:104D4E00FFFFFFFFFFFFFFFFFFFFFFFFF8F8F8F881
:104D5E00F88080808000000000000000000000004D
:104D6E000000000000000000000000000000000035
:104D7E000000000000000000000000000000000025
:104D8E00000000000000000000808080F0F0F0FFC6
:104D9E00FFFFFFFFFFFFFFFFFFFFFFFFFFFFFFFF15
:104DAE00FFFF0000000000000000000000000000F7
:104DBE00000000000000000000000000000000FFE6
:104DCE00FFFFFFFFFFFFFFFFFFFFFFFFFFFFFFFFE5
:104DDE00FFFFFFFFFF8080808000000000000000CA
:104DEE0000000000000000000000000000000000B5
:104DFE0000000000000000000000000000000000A5
:104E0E000000000070FCFEFFFFDF8F8F8F8F8FDFA3
:104E1E00FFFFFFFFFF0F0F0F0F0F0F0F0F0F0F0FE4
:104E2E000F0F000000000000000000000000000056
:104E3E000000000000000000000000000000000F55
:104E4E000F0F0F0F0F0F0F0F0F0F0F0F0F7FFFFF14
:104E5E00FFFFDF8F8F8F8F8FDFFFFFFEFCF80000CD
:104E6E000000000000000000000000000000000034
:104E7E000000000000000000000000000000000024
:104E8E000000000000010307070F0F0F0F0F0F0F99
:104E9E0007070301000000000000000000000000F2
:104EAE0000000000000000000000000000000000F4
:104EBE0000000000000000000000000000000000E4
:104ECE0000000000000000000000000000000103D0
:104EDE0007070F0F0F0F0F0F0F070703010000003B
:104EEE0000000000000000000000000000000000B4
:104EFE0000000000000000000000000000000000A4
:104F0E000000000000000000000000000000000093
:104F1E0000000000000000000000000080C0E0F073
:104F2E00F8FCFCFCF8F0E0F0FCFEFE7EFCFCF8F079
:104F3E00F0F8FCFC7C7CFCFCF8F0E0F0FCFEFEFEE5
:104F4E00FCF8F0C08000000000000000000000002F
:104F5E000000000000000000000000000000000043
:104F6E000000000000000000000000000000000033
:104F7E000000000000000000000000000000000023
:104F8E000000000000000000000000000000000013
:104F9E0000000000000000000000000003070707EB
:104FAE0003010103070707070703000001030707B3
:104FBE0007070301000000030707070703010001AD
:104FCE0003070707030000000000000000000000B8
:104FDE0000000000000000000000000000000000C3
:104FEE0000000000000000000000000000000000B3
:104FFE0000000000000000000000000000000000A3
:10500E000000000000000000000000000000808092
:10501E008080808080000000000000000000000002
:10502E000000000000000000000000000000000072
:10503E000000000000000000000000000000000062
:10504E000000000000000000000000008080808052
:10505E0080808000000000000000000000000000C2
:10506E000000000000000000000000000000000032
:10507E000000000000000000000000000000000022
:10508E00000000000080C0F0FCFCFE7F7F3F3F1F51
:10509E001F1F1F1F3F7F7FFEFCFCF0C08000000023
:1050AE0000000000000000000000000000000000F2
:1050BE0000000000000000000000000000000000E2
:1050CE0000000080C0F0F8F8FC7E7E3E3F1F1F1FE0
:1050DE001F1F3F7E7EFCF8F8F0C08000000000002D
:1050EE0000000000000000000000000000000000B2
:1050FE0000000000000000000000000000000000A2
:10510E0000000000FCFFFFFFFF0F01000000000089
:10511E00000000000000000103FFFFFFFFFE000083
:10512E000000000000000000000000000000000071
:10513E000000000000000000000000000000000061
:10514E000000F8FFFFFFFF0F03000000000000004B
:10515E0000000000000307FFFFFFFFFC000000003F
:10516E000000000000000000000000000000000031
:10517E000000000000000000000000000000000021
:10518E0000000000031F3FFFFFFEFCE0E0C0808038
:10519E0080808080C0E0E0FCFEFFFF3F1F03000028
:1051AE0000000000000000000000000000000000F1
:1051BE0000000000000000000000000000000000E1
:1051CE000000071F3FFFFFFCF8E0E0C080808080FA
:1051DE008080C0E0E0F8FCFFFF3F1F0700000000EA
:1051EE0000000000000000000000000000000000B1
:1051FE0000000000000000000000000000000000A1
:10520E0000000000000000000101070F0F1F1F1F0C
:10521E001F1F1F1F1F0F0F070101000000000000BE
:10522E000080E0F0F0F0E0C0C08080808080808060
:10523E00C0C0C0C0C0E0E0E0E0E0C0000000000080
:10524E000000000000000303070F0F1F1F1F1F1F8A
:10525E001F1F1F0F0F0703030000000000000000B8
:10526E000000000000000000000000000000000030
:10527E000000000000000000000000000000000020
:10528E000000000000000000000000000000000010
:10529E000000000000000000000000000000000000
:1052AE000007FFFFFFFFFF0F0F0F0F0F0F0F0F0F67
:1052BE00070707070707030FFFFFFFFFF0000000B8
:1052CE0000000000000000000000000000000000D0
:1052DE0000000000000000000000000000000000C0
:1052EE0000000000000000000000000000000000B0
:1052FE0000000000000000000000000000000000A0
:10530E00000000000000000000000000000000008F
:10531E0000000000000000000000000000000080FF
:10532E00C0E0F8FFFFFF7F0F00000000000000004C
:10533E00000000000000000003FFFFFFFFFE000062
:10534E00000000000000000000000000000000004F
:10535E00000000000000000000000000000000003F
:10536E00000000000000000000000000000000002F
:10537E00000000000000000000000000000000001F
:10538E00000000000000000000000000000000000F
:10539E0000000000000000000000000000000307F5
:1053AE000F0F0F0F0F1F1F1F1F1F1F1F1F1F1F1F4F
:1053BE003E3E3E3E3E3F1F1F1F0F0F0F0F030000CE
:1053CE0000000000000000000000000000000000CF
:1053DE0000000000000000000000000000000000BF
:1053EE0000000000000000000000000000000000AF
:1053FE00000000000000000000000000000000009F
:10540E00000000000000000000000000000000008E
:10541E00000000000000000000000000000000007E
:10542E00000000000000000000000000000000006E
:10543E00000000000000000000000000000000005E
:10544E00000000000000000000000000000000004E
:10545E000000000000000000000000E0F0F0F0F09E
:10546E00F0F0F0F0F0F0F0F0E000000000000000CE
:10547E00000000000000000000000000000000001E
:10548E00000000000000000000000000000000000E
:10549E0000000000000000000000000000000000FE
:1054AE0000000000000000000000000000000000EE
:1054BE0000000000000000000000000000000000DE
:1054CE0000000000000000000000E0F0F0F0F0F03E
:1054DE00F0F0F0F0F0F0F0E00000E0F0F1F9FDFF98
:1054EE00FFFFFFFFEFE7E7E3E1E0E0C000000000B1
:1054FE00000000000000000000000000000000009E
:10550E00000000000000000000000000000000008D
:10551E00000000000000000000000000000000007D
:10552E00000000000000000000000000000000006D
:10553E00000000000000000000000000000000005D
:10554E00000000000000000000E0F0F1F9FDFFFF98
:10555E00FFFFFFEFE7E7E3E1E0E0C0010303030332
:10556E00030303030303030303030301000000000B
:10557E00000000000000000000000000000000001D
:10558E00000000000000000000000000000000000D
:10559E0000000000000000000000000000000000FD
:1055AE0000000000000000000000000000000000ED
:1055BE0000000000000000000000000000000000DD
:1055CE0000000000000000000000010303030303BD
:1055DE00030303030303030303030100000000009E
:1055EE0000000000000000000000000000000000AD
:1055FE00000000000000000000000000000070F835
:10560E00F8F8F8F8F8F8F8F8F8F8F8F8F8F8F8F80C
:10561E00F8F8F8F8F8F8F8F8F8F8F8F8F8F8F8F8FC
:10562E00F870000000000000000000000000000004
:10563E00000000000000000000000000000000005C
:10564E00000070F8F8F8F8F8F8F8F8F8F8F8F8F844
:10565E00F8F8F8F8F8F8F8F8F8F8F8F8F8F8F8F8BC
:10566E00F8F8F8F8F87000000000000000000000E4
:10567E00000000000000000000000000000000001C
:10568E00000000000000000000000000000000000C
:10569E0000000000000000000000000000000000FC
:1056AE0000000000000000000000000000000000EC
:1056BE0000000000000000000000000000000000DC
:1056CE0000000000000000000000000000000000CC
:1056DE0000000000000000000000000000000000BC
:1056EE0000000000000000000000000000000000AC
:1056FE00000000000000000000000000000000009C
:10570E00000000000000000000000000000000008B
:10571E00000000000000000000000000000000007B
:10572E000070F8F8F8FC7C7C7C7E3E3E3E3F1F1FEE
:10573E001F1F1F3F3E3E3E7EFCFCFCFCF8F8F8703F
:10574E00000000000000000000000000000000004B
:10575E00000000000000000000000000000000003B
:10576E00000000000000000000000000000000002B
:10577E00000000000000000000000000000000001B
:10578E00000000000000000000000000000000000B
:10579E0000000000000000000000000000000000FB
:1057AE0000000000000000000000000000000000EB
:1057BE000000000000000000070F0F0F07000000A0
:1057CE0000000000000000000000000000000000CB
:1057DE0000000000000000000000000000000000BB
:1057EE0000000000000000000000000000000000AB
:1057FE00000000000000000000000000000000009B
:10580E00000000000000000000000000000000008A
:10581E00000000000000000000000000000000007A
:10582E00000000000000000000000000000000006A
:10583E00000000000000000000000000000000005A
:10584E00000000000000000000000000000000004A
:10585E00000000000000000000000000000000003A
:10586E00000000000000000000000000000000002A
:10587E00000000000000000000000000000000001A
:10588E00000000000000000000000000000000000A
:10589E00000000000000000000E0E0E0E0E0E0E0DA
:1058AE00E0E0E0E0E0E0E0E0E0E0E0E0E0E0E0E0EA
:1058BE00E0E0E0000000000000000000000000003A
:1058CE000000000000000000E0E0E0E0E0E0E0E0CA
:1058DE00E0E0E0E0E0E0E0E0E0E0E0E0E0E0E0E0BA
:1058EE00E0E00000000000000000000000000000EA
:1058FE00000000000000000000000000000000009A
:10590E000000000000000000000000000000000089
:10591E00000000000000000000FFFFFFFFFFFFFF80
:10592E00FFFFFFFFFFFFFFFFFFFFFFFFFFFFFFFF79
:10593E00FFFFFF000000000000000000000000005C
:10594E000000000000000000FFFFFFFFFFFFFFFF51
:10595E00FFFFFFFFFFFFFFFFFFFFFFFFFFFFFFFF49
:10596E00FFFF00000000000000000000000000002B
:10597E000000000000000000000000000000000019
:10598E000000000000000000000000000000000009
:10599E00000000000000000000FFFFFFFFFFFFFF00
:1059AE00FFFFFFFFFFFFFFFFFFFFFFFFFFFFFFFFF9
:1059BE00FFFFFF00000000000000000000000000DC
:1059CE000000000000000000FFFFFFFFFFFFFFFFD1
:1059DE00FFFFFFFFFFFFFFFFFFFFFFFFFFFFFFFFC9
:1059EE00FFFF0000000000000000000000000000AB
:1059FE000000000000000000000000000000000099
:105A0E000000000000000000000000000000000088
:105A1E00000000000000000000FFFFFFFFFFFFFF7F
:105A2E00FFFFFFFFFFFFFFFFFFFFFFFFFFFFFFFF78
:105A3E00FFFFFF000000000000000000000000005B
:105A4E000000000000000000FFFFFFFFFFFFFFFF50
:105A5E00FFFFFFFFFFFFFFFFFFFFFFFFFFFFFFFF48
:105A6E00FFFF00000000000000000000000000002A
:105A7E000000000000000000000000000000000018
:105A8E000000000000000000000000000000000008
:105A9E00000000000000000000FFFFFFFFFFFFFFFF
:105AAE00FFFFFFFFFFFFFFFFFFFFFFFFFFFFFFFFF8
:105ABE00FFFFFF00000000000000000000000000DB
:105ACE000000000000000000FFFFFFFFFFFFFFFFD0
:105ADE00FFFFFFFFFFFFFFFFFFFFFFFFFFFFFFFFC8
:105AEE00FFFF0000000000000000000000000000AA
:105AFE000000000000000000000000000000000098
:105B0E000000000000000000000000000000000087
:105B1E000000000000000000003F3F3F3F3F3F3FBE
:105B2E003F3F3F3F3F3F3F3F3F3F3F3F3F3F3F3F77
:105B3E003F3F3F000000000000000000000000009A
:105B4E0000000000000000003F3F3F3F3F3F3F3F4F
:105B5E003F3F3F3F3F3F3F3F3F3F3F3F3F3F3F3F47
:105B6E003F3F0000000000000000000000000000A9
:105B7E000000000000000000000000000000000017
:105B8E000000000000000000000000000000000007
:105B9E0000000000000000000000000000000000F7
:105BAE0000000000000000000000000000000000E7
:105BBE0000000000000000000000000000000000D7
:105BCE0000000000000000000000000000000000C7
:105BDE0000000000000000000000000000000000B7
:105BEE0000000000000000000000000000000000A7
:105BFE000000000000000000000000000000000097
:105C0E000000000000000000000000000000000086
:105C1E000000000000000000000000000000000076
:105C2E000000000000000000000000000000000066
:105C3E000000000000000000000000000000000056
:105C4E000000000000000000000000000000000046
:105C5E000000000000000000000000000000000036
:105C6E000000000000000000000000000000000026
:105C7E000000000000000000000000000000000016
:105C8E000000000000000000000000000000000006
:105C9E000000E0E0E0E0E0E0E0E0E0E0E0E0E0E0B6
:105CAE00E0E0E0E0E0E0E0E0E0E0E0E00000000066
:105CBE0000000000000000000000000000000000D6
:105CCE0000E0E0E0E0E0E0E0E0E0E0E0E0E0E0E0A6
:105CDE00E0E0E0E0E0E0E0E0E0E0E0000000000016
:105CEE0000000000000000000000000000000000A6
:105CFE000000000000000000000000000000000096
:105D0E000000000000000000000000000000000085
:105D1E000000FFFFFFFFFFFFFFFFFFFFFFFFFFFF83
:105D2E00FFFFFFFFFFFFFFFFFFFFFFFF0000000071
:105D3E000000000000000000000000000000000055
:105D4E0000FFFFFFFFFFFFFFFFFFFFFFFFFFFFFF54
:105D5E00FFFFFFFFFFFFFFFFFFFFFF000000000040
:105D6E000000000000000000000000000000000025
:105D7E000000000000000000000000000000000015
:105D8E000000000000000000000000000000000005
:105D9E000000FFFFFFFFFFFFFFFFFFFFFFFFFFFF03
:105DAE00FFFFFFFFFFFFFFFFFFFFFFFF00000000F1
:105DBE0000000000000000000000000000000000D5
:105DCE0000FFFFFFFFFFFFFFFFFFFFFFFFFFFFFFD4
:105DDE00FFFFFFFFFFFFFFFFFFFFFF0000000000C0
:105DEE0000000000000000000000000000000000A5
:105DFE000000000000000000000000000000000095
:105E0E000000000000000000000000000000000084
:105E1E000000FFFFFFFFFFFFFFFFFFFFFFFFFFFF82
:105E2E00FFFFFFFFFFFFFFFFFFFFFFFF0000000070
:105E3E000000000000000000000000000000000054
:105E4E0000FFFFFFFFFFFFFFFFFFFFFFFFFFFFFF53
:105E5E00FFFFFFFFFFFFFFFFFFFFFF00000000003F
:105E6E000000000000000000000000000000000024
:105E7E000000000000000000000000000000000014
:105E8E000000000000000000000000000000000004
:105E9E000000FFFFFFFFFFFFFFFFFFFFFFFFFFFF02
:105EAE00FFFFFFFFFFFFFFFFFFFFFFFF00000000F0
:105EBE0000000000000000000000000000000000D4
:105ECE0000FFFFFFFFFFFFFFFFFFFFFFFFFFFFFFD3
:105EDE00FFFFFFFFFFFFFFFFFFFFFF0000000000BF
:105EEE0000000000000000000000000000000000A4
:105EFE000000000000000000000000000000000094
:105F0E000000000000000000000000000000000083
:105F1E0000003F3F3F3F3F3F3F3F3F3F3F3F3F3F01
:105F2E003F3F3F3F3F3F3F3F3F3F3F3F000000006F
:105F3E000000000000000000000000000000000053
:105F4E00003F3F3F3F3F3F3F3F3F3F3F3F3F3F3F92
:105F5E003F3F3F3F3F3F3F3F3F3F3F00000000007E
:105F6E000000000000000000000000000000000023
:105F7E000000000000000000000000000000000013
:105F8E000000000000000000000000000000000003
:105F9E0000000000000000000000000000000000F3
:105FAE0000000000000000000000000000000000E3
:105FBE0000000000000000000000000000000000D3
:105FCE0000000000000000000000000000000000C3
:105FDE0000000000000000000000000000000000B3
:105FEE0000000000000000000000000000000000A3
:105FFE000000000000000000000000000000000093
:10600E000000000000000000000000000000000082
:10601E000000000000000000000000000000000072
:10602E000000000000000000000000000000000062
:10603E000000000000000000000000000000000052
:10604E000000000000000000000000000000000042
:10605E000000000000000000000000000000000032
:10606E000000000000000000000000000000000022
:10607E000000000000000000000000000000000012
:10608E00E0E0E0E0E0E0E0E0E0E0E0E0E0E0E0E002
:10609E00E0E0E0E0E0E0E0E0E0E000000000000032
:1060AE00000000000000000000000000000000E002
:1060BE00E0E0E0E0E0E0E0E0E0E0E0E0E0E0E0E0D2
:1060CE00E0E0E0E0E0E0E0E0E000000000000000E2
:1060DE0000000000000000000000000000000000B2
:1060EE0000000000000000000000000000000000A2
:1060FE000000000000000000000000000000000092
:10610E00FFFFFFFFFFFFFFFFFFFFFFFFFFFFFFFF91
:10611E00FFFFFFFFFFFFFFFFFFFF0000000000007B
:10612E00000000000000000000000000000000FF62
:10613E00FFFFFFFFFFFFFFFFFFFFFFFFFFFFFFFF61
:10614E00FFFFFFFFFFFFFFFFFF000000000000004A
:10615E000000000000000000000000000000000031
:10616E000000000000000000000000000000000021
:10617E000000000000000000000000000000000011
:10618E00FFFFFFFFFFFFFFFFFFFFFFFFFFFFFFFF11
:10619E00FFFFFFFFFFFFFFFFFFFF000000000000FB
:1061AE00000000000000000000000000000000FFE2
:1061BE00FFFFFFFFFFFFFFFFFFFFFFFFFFFFFFFFE1
:1061CE00FFFFFFFFFFFFFFFFFF00000000000000CA
:1061DE0000000000000000000000000000000000B1
:1061EE0000000000000000000000000000000000A1
:1061FE000000000000000000000000000000000091
:10620E00FFFFFFFFFFFFFFFFFFFFFFFFFFFFFFFF90
:10621E00FFFFFFFFFFFFFFFFFFFF0000000000007A
:10622E00000000000000000000000000000000FF61
:10623E00FFFFFFFFFFFFFFFFFFFFFFFFFFFFFFFF60
:10624E00FFFFFFFFFFFFFFFFFF0000000000000049
:10625E000000000000000000000000000000000030
:10626E000000000000000000000000000000000020
:10627E000000000000000000000000000000000010
:10628E00FFFFFFFFFFFFFFFFFFFFFFFFFFFFFFFF10
:10629E00FFFFFFFFFFFFFFFFFFFF000000000000FA
:1062AE00000000000000000000000000000000FFE1
:1062BE00FFFFFFFFFFFFFFFFFFFFFFFFFFFFFFFFE0
:1062CE00FFFFFFFFFFFFFFFFFF00000000000000C9
:1062DE0000000000000000000000000000000000B0
:1062EE0000000000000000000000000000000000A0
:1062FE000000000000000000000000000000000090
:10630E003F3F3F3F3F3F3F3F3F3F3F3F3F3F3F3F8F
:10631E003F3F3F3F3F3F3F3F3F3F000000000000F9
:10632E000000000000000000000000000000003F20
:10633E003F3F3F3F3F3F3F3F3F3F3F3F3F3F3F3F5F
:10634E003F3F3F3F3F3F3F3F3F0000000000000008
:10635E00000000000000000000000000000000002F
:10636E00000000000000000000000000000000001F
:10637E00000000000000000000000000000000000F
:10638E0000000000000000000000000000000000FF
:10639E0000000000000000000000000000000000EF
:1063AE0000000000000000000000000000000000DF
:1063BE0000000000000000000000000000000000CF
:1063CE0000000000000000000000000000000000BF
:1063DE0000000000000000000000000000000000AF
:1063EE00000000000000000000000000000000009F
:1063FE00000000000000000000000000000000008F
:10640E00000000000000000000000000000000007E
:10641E00000000000000000000000000000000006E
:10642E00000000000000000000000000000000005E
:10643E00000000000000000000000000000000004E
:10644E00000000000000000000000000000000003E
:10645E00000000000000000000000000000000002E
:10646E00000000000000000000000000000000001E
:10647E00000000000000000000000000000000000E
:10648E00000000000000E0E0E0E0E0E0E0E0E0E03E
:10649E00E0E0E0E0E0E0E0E0E0E0E0E0E0E0E0E0EE
:1064AE0000000000000000000000000000000000DE
:1064BE000000000000E0E0E0E0E0E0E0E0E0E0E02E
:1064CE00E0E0E0E0E0E0E0E0E0E0E0E0E0E0E0009E
:1064DE0000000000000000000000000000000000AE
:1064EE00000000000000000000000000000000009E
:1064FE00000000000000000000000000000000008E
:10650E00000000000000FFFFFFFFFFFFFFFFFFFF87
:10651E00FFFFFFFFFFFFFFFFFFFFFFFFFFFFFFFF7D
:10652E00000000000000000000000000000000005D
:10653E000000000000FFFFFFFFFFFFFFFFFFFFFF58
:10654E00FFFFFFFFFFFFFFFFFFFFFFFFFFFFFF004C
:10655E00000000000000000000000000000000002D
:10656E00000000000000000000000000000000001D
:10657E00000000000000000000000000000000000D
:10658E00000000000000FFFFFFFFFFFFFFFFFFFF07
:10659E00FFFFFFFFFFFFFFFFFFFFFFFFFFFFFFFFFD
:1065AE0000000000000000000000000000000000DD
:1065BE000000000000FFFFFFFFFFFFFFFFFFFFFFD8
:1065CE00FFFFFFFFFFFFFFFFFFFFFFFFFFFFFF00CC
:1065DE0000000000000000000000000000000000AD
:1065EE00000000000000000000000000000000009D
:1065FE00000000000000000000000000000000008D
:10660E00000000000000FFFFFFFFFFFFFFFFFFFF86
:10661E00FFFFFFFFFFFFFFFFFFFFFFFFFFFFFFFF7C
:10662E00000000000000000000000000000000005C
:10663E000000000000FFFFFFFFFFFFFFFFFFFFFF57
:10664E00FFFFFFFFFFFFFFFFFFFFFFFFFFFFFF004B
:10665E00000000000000000000000000000000002C
:10666E00000000000000000000000000000000001C
:10667E00000000000000000000000000000000000C
:10668E00000000000000FFFFFFFFFFFFFFFFFFFF06
:10669E00FFFFFFFFFFFFFFFFFFFFFFFFFFFFFFFFFC
:1066AE0000000000000000000000000000000000DC
:1066BE000000000000FFFFFFFFFFFFFFFFFFFFFFD7
:1066CE00FFFFFFFFFFFFFFFFFFFFFFFFFFFFFF00CB
:1066DE0000000000000000000000000000000000AC
:1066EE00000000000000000000000000000000009C
:1066FE00000000000000000000000000000000008C
:10670E000000000000003F3F3F3F3F3F3F3F3F3F05
:10671E003F3F3F3F3F3F3F3F3F3F3F3F3F3F3F3F7B
:10672E00000000000000000000000000000000005B
:10673E0000000000003F3F3F3F3F3F3F3F3F3F3F96
:10674E003F3F3F3F3F3F3F3F3F3F3F3F3F3F3F008A
:10675E00000000000000000000000000000000002B
:10676E00000000000000000000000000000000001B
:10677E00000000000000000000000000000000000B
:10678E0000000000000000000000000000000000FB
:10679E0000000000000000000000000000000000EB
:1067AE0000000000000000000000000000000000DB
:1067BE0000000000000000000000000000000000CB
:1067CE0000000000000000000000000000000000BB
:1067DE0000000000000000000000000000000000AB
:1067EE00000000000000000000000000000000009B
:1067FE00000000000000000000000000000000008B
:10680E00000000000000000000000000000000007A
:10681E000000000000000307070F0F1F3F3F7E7CA4
:10682E00FCF8F8F0F0E0C0C0E0F8FCFCFC3800002A
:10683E000000000000000000008080C0C0E0F0F00A
:10684E00F8F8FC7C7E3E3F1F1F0F07070303010075
:10685E00000000000000000000000000000000002A
:10686E00000000000000000000000000000000001A
:10687E00000000000000000000000000000000000A
:10688E00000000000000000000000000000000807A
:10689E00000000000000008080E0F090004000004A
:1068AE00000001030307070F0F0F0F070100000081
:1068BE000000000000000000070F0F0F0707030382
:1068CE00010000000000C0C0800000800000000039
:1068DE0000000000000000000000000000000000AA
:1068EE00000000000000000000000000000000009A
:1068FE00000000000000000000000000000000008A
:10690E000000000000000000000000C0F0FCFFFFCF
:10691E00FEF0E0C0F0FCFFFFFFFFFFFFE280E0F0C3
:10692E00600080F0F0F2FE040000000000000000A5
:10693E00000000000000000000000000C080000009
:10694E00800070F8F8F870C9C1E3C7CFFFFEF8E019
:10695E00D8E0E0F9FFFEE0C00000000000000000FB
:10696E000000000000000000000000000000000019
:10697E000000000000000000000000000000000009
:10698E00000000000000000000001FFFFFFFFFFFDF
:10699E00FFFFFFFFFFFFFFFFFFFFFFFFFFFFFFFFF9
:1069AE00FEFEFFFFFFFF3F000000000000000000A2
:1069BE00000000000000000000000020FFFFFCFCB3
:1069CE00FFFEFCFCFFFFFFFFFFFFFFFFFFFFFFFFD0
:1069DE00FFFFFFFFFFFFFFFF3E0000000000000073
:1069EE000000000000000000000000000000000099
:1069FE000000000000000000000000000000000089
:106A0E000000000000000000000000030F0F3FFF19
:106A1E00FFFFFFFFFFFFFFFFFFFFFFFFFFFFFFFF78
:106A2E00FFFFFF3F0F03000000000000000000000A
:106A3E00000000000000000000000000010F1F1FFA
:106A4E007FFFFFFFFFFFFFFFFFFFFFFFFFFFFFFFC8
:106A5E00FFFFFFFFFF7F1F07000000000000000088
:106A6E000000000000000000000000000000000018
:106A7E000000000000000000000000000000000008
:106A8E0000000000000000000000000000000001F7
:106A9E00030707070F0F1F1F1F1F1F1F0F0F0707CC
:106AAE00070301000000000000808080808080804D
:106ABE00C0C0C0C0C0C0C0C0C08080000000000008
:106ACE00000103070F1F3F3F3F3F3F3F3F3F3F3F09
:106ADE001F0F07030100000000000000000000006F
:106AEE000000000000000000000000000000000098
:106AFE000000000000000000000000000000000088
:106B0E000000000000000000000000000000000077
:106B1E0000000000000000000000000000001C3E0D
:106B2E007EFEFEFFFFFFDFDFDFDFCF8F8F8F8F8FCA
:106B3E0087878787870707071F1FBFFFFEF8F8F0B5
:106B4E0080000000000000000000000000000000B7
:106B5E000000000000000000000000000000000027
:106B6E000000000000000000000000000000000017
:106B7E000000000000000000000000000000000007
:106B8E0000000000000000000000000000000000F7
:106B9E0000000000000000000000000000000000E7
:106BAE0000000103030707070707070F0F0F0F0F5B
:106BBE000F0F0F0F0F1F1F1F1F1F1F1F0F0F070777
:106BCE0003000000000000000000000000000000B4
:106BDE0000000000000000000000000000000000A7
:106BEE000000000000000000000000000000000097
:106BFE000000000000000000000000000000000087
:106C0E000000000000000000000000000000808076
:106C1E0080808080800000000000000000000000E6
:106C2E000000000000000000000000000000000056
:106C3E000000000000000000000000000000000046
:106C4E000000000000000000000000008080808036
:106C5E00808080000000001C3F3F3F1F0700031F85
:106C6E007FFFFFFEF0E0F0F8FEFF7FBFFFFFFFFFAC
:106C7E00FF00000000000000000000000000000007
:106C8E00000000000080C0F0FCFCFE7F7F3F3F1F35
:106C9E001F1F1F1F3F7F7FFEFCFCF0C08000000007
:106CAE0000000000000000000000000000000000D6
:106CBE0000000000000000000000000000000000C6
:106CCE0000000080C0F0F8F8FC7E7E3E3F1F1F1FC4
:106CDE001F1F3F7E7EFCF8F8F0C080000000000011
:106CEE0000010303030303030100F0FFFFFFFFDFB7
:106CFE008000000000000000000000000000000006
:106D0E0000000000FCFFFFFFFF0F0100000000006D
:106D1E00000000000000000103FFFFFFFFFE000067
:106D2E000000000000000000000000000000000055
:106D3E000000000000000000000000000000000045
:106D4E000000F8FFFFFFFF0F03000000000000002F
:106D5E0000000000000307FFFFFFFFFC0000000023
:106D6E0000000000000000000000010303070F8F69
:106D7E00DF00000000000000000000000000000026
:106D8E0000000000031F3FFFFFFEFCE0E0C080801C
:106D9E0080808080C0E0E0FCFEFFFF3F1F0300000C
:106DAE0000000000000000000000000000000000D5
:106DBE0000000000000000000000000000000000C5
:106DCE000000071F3FFFFFFCF8E0E0C080808080DE
:106DDE008080C0E0E0F8FCFFFF3F1F0700000000CE
:106DEE000000000000000000C0E0F0F8FCFE7F3F55
:106DFE001F00000000000000000000000000000066
:106E0E0000000000000000000101070F0F1F1F1FF0
:106E1E001F1F1F1F1F0F0F070101000000000000A2
:106E2E000080E0F0F0F0E0C0C08080808080808044
:106E3E00C0C0C0C0C0E0E0E0E0E0C0000000000064
:106E4E000000000000000303070F0F1F1F1F1F1F6E
:106E5E001F1F1F0F0F07030300000000000000009C
:106E6E000000000000000000010303030100000009
:106E7E000000000000000000000000000000000004
:106E8E0000000000000000000000000000000000F4
:106E9E0000000000000000000000000000000000E4
:106EAE000007FFFFFFFFFF0F0F0F0F0F0F0F0F0F4B
:106EBE00070707070707030FFFFFFFFFF00000009C
:106ECE0000000000000000000000000000000000B4
:106EDE0000000000000000000000000000000000A4
:106EEE000000000000000000000000000000000094
:106EFE000000000000000000000000000000000084
:106F0E000000000000000000000000000000000073
:106F1E0000000000000000000000000000000080E3
:106F2E00C0E0F8FFFFFF7F0F000000000000000030
:106F3E00000000000000000003FFFFFFFFFE000046
:106F4E000000000000000000000000000000000033
:106F5E000000000000000000000000000000000023
:106F6E000000000000000000000000000000000013
:106F7E000000000000000000000000000000000003
:106F8E0000000000000000000000000000000000F3
:106F9E0000000000000000000000000000000307D9
:106FAE000F0F0F0F0F1F1F1F1F1F1F1F1F1F1F1F33
:106FBE003E3E3E3E3E3F1F1F1F0F0F0F0F030000B2
:106FCE0000000000000000000000000000000000B3
:106FDE0000000000000000000000000000000000A3
:106FEE000000000000000000000000000000000093
:106FFE000000000000000000000000000000000083
:10700E000000000000000000000000000000000072
:10701E000000000000000000000000000000000062
:10702E000000000000000000000000000000000052
:10703E000000000000000000000000000000000042
:10704E000000000000000000000000000000000032
:10705E0080C0C0C0C0C0C0C0C0C0C0C0C080000022
:10706E000E1F9FDFFFFFFFFFFFFF7F7F3F1E000012
:10707E000000000000000000000000000000000002
:10708E0000000000000000000000000000000000F2
:10709E0000000000000000000000000000000000E2
:1070AE0000000000000000000000000000000000D2
:1070BE0000000000000000000000000000000000C2
:1070CE000000000000000000000000000000008032
:1070DE00C3C7E7F7FFFFFFFFFFBF9F9F8F87808E1E
:1070EE001F3F3F3F3F3F3F3F3F3E3E3E3E3E3E3EC9
:1070FE001C00000000000000000000000000000066
:10710E000000000000000000000000000000000071
:10711E000000000000000000000000000000000061
:10712E000000000000000000000000000000000051
:10713E000000000000000000000000000000000041
:10714E00000000000000000000000000000000032E
:10715E00070F0F0F0F0F0F0F0F0F0F0F0F0F0F0F39
:10716E00070000000000000000000000000000000A
:10717E000000000000000000000000000000000001
:10718E0000000000000000000000000000000000F1
:10719E0000000000000000000000000000000000E1
:1071AE0000000000000000000000000000000000D1
:1071BE0000000000000000000000000000000000C1
:1071CE0000000000000000000000000000000000B1
:1071DE0000000000000000000000000000000000A1
:1071EE000000000000000000000000000000000091
:1071FE00000000000000000000000000000070F819
:10720E00F8F8F8F8F8F8F8F8F8F8F8F8F8F8F8F8F0
:10721E00F8F8F8F8F8F8F8F8F8F8F8F8F8F8F8F8E0
:10722E00F8700000000000000000000000000000E8
:10723E000000000000000000000000000000000040
:10724E00000070F8F8F8F8F8F8F8F8F8F8F8F8F828
:10725E00F8F8F8F8F8F8F8F8F8F8F8F8F8F8F8F8A0
:10726E00F8F8F8F8F87000000000000000000000C8
:10727E000000000000000000000000000000000000
:10728E0000000000000000000000000000000000F0
:10729E0000000000000000000000000000000000E0
:1072AE0000000000000000000000000000000000D0
:1072BE0000000000000000000000000000000000C0
:1072CE0000000000000000000000000000000000B0
:1072DE0000000000000000000000000000000000A0
:1072EE000000000000000000000000000000000090
:1072FE000000000000000000000000000000000080
:10730E00000000000000000000000000000000006F
:10731E00000000000000000000000000000000005F
:10732E000070F8F8F8FC7C7C7C7E3E3E3E3F1F1FD2
:10733E001F1F1F3F3E3E3E7EFCFCFCFCF8F8F87023
:10734E00000000000000000000000000000000002F
:10735E00000000000000000000000000000000001F
:10736E00000000000000000000000000000000000F
:10737E0000000000000000000000000000000000FF
:10738E0000000000000000000000000000000000EF
:10739E0000000000000000000000000000000000DF
:1073AE0000000000000000000000000000000000CF
:1073BE000000000000000000070F0F0F0700000084
:1073CE0000000000000000000000000000000000AF
:1073DE00000000000000000000000000000000009F
:1073EE00000000000000000000000000000000008F
:1073FE00000000000000000000000000000000007F
:10740E00000000000000000000000000000000006E
:10741E00000000000000000000000000000000005E
:10742E00000000000000000000000000000000004E
:10743E00000000000000000000000000000000003E
:10744E00000000000000000000000000000000002E
:10745E0000000000000000000000000000001C3EC4
:10746E003EBEFEFEFEFEFEFEFEFE7E3C0000000068
:10747E0000000000000000000000000000000000FE
:10748E0000000000000000000000000000000000EE
:10749E0000000000000000000000000000000000DE
:1074AE0000000000000000000000000000000000CE
:1074BE0000000000000000000000000000000000BE
:1074CE000000000000000000000000387C7C7CFC06
:1074DE00FCFCFCFCFCFCFCFC78000000001C3E7E6E
:1074EE007F7F7F7F7F7F7F7D7C7C7C7C7C7C380078
:1074FE00000000000000000000000000000000007E
:10750E00000000000000000000000000000000006D
:10751E00000000000000000000000000000000005D
:10752E00000000000000000000000000000000004D
:10753E00000000000000000000000000000000003D
:10754E0000000000000000000000387CFCFEFFFF81
:10755E00FFFFFFFFFBF9F9F8F8F8F87000000000E4
:10756E00000000000000000000000000000000000D
:10757E0000000000000000000000000000000000FD
:10758E0000000000000000000000000000000000ED
:10759E0000000000000000000000000000000000DD
:1075AE0000000000000000000000000000000000CD
:1075BE0000000000000000000000000000000000BD
:1075CE0000000000000000000000000000000000AD
:1075DE00000000000000000000000000000000009D
:1075EE00000000000000000000000000000000008D
:1075FE00000000000000000000000000000070F815
:10760E00F8F8F8F8F8F8F8F8F8F8F8F8F8F8F8F8EC
:10761E00F8F8F8F8F8F8F8F8F8F8F8F8F8F8F8F8DC
:10762E00F8700000000000000000000000000000E4
:10763E00000000000000000000000000000000003C
:10764E00000070F8F8F8F8F8F8F8F8F8F8F8F8F824
:10765E00F8F8F8F8F8F8F8F8F8F8F8F8F8F8F8F89C
:10766E00F8F8F8F8F87000000000000000000000C4
:10767E0000000000000000000000000000000000FC
:10768E0000000000000000000000000000000000EC
:10769E0000000000000000000000000000000000DC
:1076AE0000000000000000000000000000000000CC
:1076BE0000000000000000000000000000000000BC
:1076CE0000000000000000000000000000000000AC
:1076DE00000000000000000000000000000000009C
:1076EE00000000000000000000000000000000008C
:1076FE00000000000000000000000000000000007C
:10770E00000000000000000000000000000000006B
:10771E00000000000000000000000000000000005B
:10772E000070F8F8F8FC7C7C7C7E3E3E3E3F1F1FCE
:10773E001F1F1F3F3E3E3E7EFCFCFCFCF8F8F8701F
:10774E00000000000000000000000000000000002B
:10775E00000000000000000000000000000000001B
:10776E00000000000000000000000000000000000B
:10777E0000000000000000000000000000000000FB
:10778E0000000000000000000000000000000000EB
:10779E0000000000000000000000000000000000DB
:1077AE0000000000000000000000000000000000CB
:1077BE000000000000000000070F0F0F0700000080
:1077CE0000000000000000000000000000000000AB
:1077DE00000000000000000000000000000000009B
:1077EE00000000000000000000000000000000008B
:1077FE00000000000000000000000000000000007B
:10780E00000000000000000000000000000000006A
:10781E00000000000000000000000000000000005A
:10782E00000000000000000000000000000000004A
:10783E00000000000000000000000000000000003A
:10784E00000000000000000000000000000000002A
:10785E00000000000000000000000000000000001A
:10786E00000000000000000000000000000000000A
:10787E0000000000000000000000000000000000FA
:10788E00000000E0F0F0F0E0E0C0808000000000BA
:10789E0000000000000000000000000000000000DA
:1078AE0000000000000000000000000000000000CA
:1078BE0000000000000000000000000000000000BA
:1078CE0000000000000000000000000000000000AA
:1078DE0000000000008080C0E0E0F0F0F0E000006A
:1078EE00000000000000000000000000000000008A
:1078FE00000000000000000000000000000000007A
:10790E000000000001010307070F0F1F3F3F7EFC21
:10791E00FCF8F8F0E0E0C0808000000000000000FD
:10792E000000000000000000000000000000000049
:10793E000000000000000000000000000000000039
:10794E0000000000000000008080C0E0E0F0F8F8C9
:10795E00FCFC7E3F3F1F0F0F0707030101000000D5
:10796E000000000000000000000000000000000009
:10797E0000000000000000000000000000000000F9
:10798E0000000000000000000000000000000000E9
:10799E000001010307878FCFFFFFFFFEFCFC78007D
:1079AE0000000000000000000000000000000000C9
:1079BE0000000000000000000000000000000000B9
:1079CE00000078FCFCFEFFFFFFCF8F87070301014D
:1079DE000000000000000000000000000000000099
:1079EE000000000000000000000000000000000089
:1079FE000000000000000000000000000000000079
:107A0E000000000000000000008080C0E0E0F0F800
:107A1E00F8FC7E7E3F1F1F0F0707030101000000C9
:107A2E000000000000000000000000000000000048
:107A3E000000000000000000000000000000000038
:107A4E000000000001010307070F1F1F3F7E7EFC91
:107A5E00F8F8F0E0E0C080800000000000000000B8
:107A6E000000000000000000000000000000000008
:107A7E0000000000000000000000000000000000F8
:107A8E00000070F8F8FC7E7E3F1F1F0F07070301F2
:107A9E0001000000000000000000000000000000D7
:107AAE000000001C3EFEFEFEFEFEFEBE3E3E3E3EC4
:107ABE003E3E3E3EBEFEFEFEFEFEFE3E1C000000B4
:107ACE0000000000000000000000000000000000A8
:107ADE0001010307070F1F1F3F7E7EFCF8F87000A1
:107AEE000000000000000000000000000000000088
:107AFE000000000000000000000000000000000078
:107B0E000000000000000000000000000000000067
:107B1E000000000000000000000000000000000057
:107B2E000000000000000103070F3F7FFFFEF8F08A
:107B3E00F0F8FEFF7F3F1F0703010000000000006A
:107B4E000000000000000000000000000000000027
:107B5E000000000000000000000000000000000017
:107B6E000000000000000000000000000000000007
:107B7E0000000000000000000000000000000000F7
:107B8E0000000000000000000000000000000000E7
:107B9E0000000000000000000000000000000000D7
:107BAE0000000000000000000000000000010707B8
:107BBE0007070300000000000000000000000000A6
:107BCE0000000000000000000000000000000000A7
:107BDE000000000000000000000000000000000097
:107BEE000000000000000000000000000000000087
:107BFE000000000000000000000000000000000077
:107C0E000000000000000000000000000000000066
:107C1E000000000000000000000000000000000056
:107C2E000000000000000000000000000000000046
:107C3E000000000000000000000000000000000036
:107C4E000000000000000000000000000000000026
:107C5E000000000000000000000000000000000016
:107C6E000000000000000000000000000000000006
:107C7E0000000000000000000000000000000000F6
:107C8E0000000000000000000000000000E0E0E046
:107C9E00E0E0E0E0E0E0E0E0E0E0E0E0E0E0E0E0D6
:107CAE00E0E0E0E0E0E0E0000000000000000000A6
:107CBE00000000000000000000000000E0E0E0E036
:107CCE00E0E0E0E0E0E0E0E0E0E0E0E0E0E0E0E0A6
:107CDE00E0E0E0E0E0E00000000000000000000056
:107CEE000000000000000000000000000000000086
:107CFE000000000000000000000000000000000076
:107D0E0000000000000000000000000000FFFFFF68
:107D1E00FFFFFFFFFFFFFFFFFFFFFFFFFFFFFFFF65
:107D2E00FFFFFFFFFFFFFF0000000000000000004C
:107D3E00000000000000000000000000FFFFFFFF39
:107D4E00FFFFFFFFFFFFFFFFFFFFFFFFFFFFFFFF35
:107D5E00FFFFFFFFFFFF000000000000000000001B
:107D6E000000000000000000000000000000000005
:107D7E0000000000000000000000000000000000F5
:107D8E0000000000000000000000000000FFFFFFE8
:107D9E00FFFFFFFFFFFFFFFFFFFFFFFFFFFFFFFFE5
:107DAE00FFFFFFFFFFFFFF000000000000000000CC
:107DBE00000000000000000000000000FFFFFFFFB9
:107DCE00FFFFFFFFFFFFFFFFFFFFFFFFFFFFFFFFB5
:107DDE00FFFFFFFFFFFF000000000000000000009B
:107DEE000000000000000000000000000000000085
:107DFE000000000000000000000000000000000075
:107E0E0000000000000000000000000000FFFFFF67
:107E1E00FFFFFFFFFFFFFFFFFFFFFFFFFFFFFFFF64
:107E2E00FFFFFFFFFFFFFF0000000000000000004B
:107E3E00000000000000000000000000FFFFFFFF38
:107E4E00FFFFFFFFFFFFFFFFFFFFFFFFFFFFFFFF34
:107E5E00FFFFFFFFFFFF000000000000000000001A
:107E6E000000000000000000000000000000000004
:107E7E0000000000000000000000000000000000F4
:107E8E0000000000000000000000000000FFFFFFE7
:107E9E00FFFFFFFFFFFFFFFFFFFFFFFFFFFFFFFFE4
:107EAE00FFFFFFFFFFFFFF000000000000000000CB
:107EBE00000000000000000000000000FFFFFFFFB8
:107ECE00FFFFFFFFFFFFFFFFFFFFFFFFFFFFFFFFB4
:107EDE00FFFFFFFFFFFF000000000000000000009A
:107EEE000000000000000000000000000000000084
:107EFE000000000000000000000000000000000074
:107F0E00000000000000000000000000003F3F3FA6
:107F1E003F3F3F3F3F3F3F3F3F3F3F3F3F3F3F3F63
:107F2E003F3F3F3F3F3F3F0000000000000000008A
:107F3E000000000000000000000000003F3F3F3F37
:107F4E003F3F3F3F3F3F3F3F3F3F3F3F3F3F3F3F33
:107F5E003F3F3F3F3F3F0000000000000000000099
:107F6E000000000000000000000000000000000003
:107F7E0000000000000000000000000000000000F3
:107F8E0000000000000000000000000000000000E3
:107F9E0000000000000000000000000000000000D3
:107FAE0000000000000000000000000000000000C3
:107FBE0000000000000000000000000000000000B3
:107FCE0000000000000000000000000000000000A3
:107FDE000000000000000000000000000000000093
:107FEE000000000000000000000000000000000083
:027FFE00000081
:020000040020DA
:08000000FFFFFFFFFFFFFFFF00
:020000040030CA
:0E000000FF081B1EFF8181FF0FC00FE00F40A5
:00000001FF
