:020000040000FA
:0400000007EF00F016
:10000800108222ED01F0F3EF01F0070E0A6ED00E18
:10001800096E000EACEC01F0050E0A6EDC0E096EDE
:10002800010EACEC01F0050E0A6EDC0E096E020E34
:10003800ACEC01F0030E0A6EED0E096E030EACEC8B
:1000480001F0140E0C6E7A0EE82EFED70C2EFCD79B
:10005800070E0A6ED00E096E000EACEC01F0070E0A
:100068000A6ED00E096E010EACEC01F0030E0A6E9A
:10007800ED0E096E020EACEC01F0030E0A6EED0EE9
:10008800096E030EACEC01F0140E0C6E7A0EE82E1D
:10009800FED70C2EFCD7050E0A6EDC0E096E000E7C
:1000A800ACEC01F0070E0A6ED00E096E010EACEC36
:1000B80001F0030E0A6EED0E096E020EACEC01F0B3
:1000C800050E0A6EDC0E096E030EACEC01F0140E80
:1000D8000C6E7A0EE82EFED70C2EFCD7050E0A6E93
:1000E800DC0E096E000EACEC01F0050E0A6EDC0E9B
:1000F800096E010EACEC01F0050E0A6EDC0E096EFD
:10010800020EACEC01F0050E0A6EDC0E096E030E51
:10011800ACEC01F0140E0C6E7A0EE82EFED70C2E05
:10012800FCD7050E0A6EDC0E096E000EACEC01F071
:10013800030E0A6EED0E096E010EACEC01F0070E0F
:100148000A6ED00E096E020EACEC01F0050E0A6EB6
:10015800DC0E096E030EACEC01F0140E0C6E7A0E78
:10016800E82EFED70C2EFCD7030E0A6EED0E096E94
:10017800000EACEC01F0030E0A6EED0E096E010ED6
:10018800ACEC01F0070E0A6ED00E096E020EACEC54
:1001980001F0070E0A6ED00E096E030EACEC01F0EA
:1001A800140E0C6E7A0EE82EFED70C2EFCD7030E1A
:1001B8000A6EED0E096E000EACEC01F0050E0A6E2B
:1001C800DC0E096E010EACEC01F0050E0A6EDC0EB9
:1001D800096E020EACEC01F0070E0A6ED00E096E25
:1001E800030EACEC01F0140E0C6E7A0EE82EFED75E
:1001F8000C2EFCD7050E0A6EDC0E096E000EACEC58
:1002080001F0050E0A6EDC0E096E010EACEC01F071
:10021800050E0A6EDC0E096E020EACEC01F0050E3E
:100228000A6EDC0E096E030EACEC01F0140E0C6EB7
:100238007A0EE82EFED70C2EFCD712000600F2A488
:1002480028EF01F02AEF01F07DEF01F0F294D76872
:10025800C10ED66EF40E0E26010E0F220E50015C52
:100268000F500258D8A03BEF01F03DEF01F040EFEE
:1002780001F08A8241EF01F08A920E50035C0F5020
:100288000458D8A04AEF01F04CEF01F04FEF01F00D
:100298008A8450EF01F08A940E50055C0F5006587E
:1002A800D8A059EF01F05BEF01F05EEF01F08A860C
:1002B8005FEF01F08A960E50075C0F500858D8A0DF
:1002C80068EF01F06AEF01F06DEF01F08A886EEFD8
:1002D80001F08A98200E0E5C4E0E0F58D8A077EFCA
:1002E80001F079EF01F07DEF01F0000E0F6E000EC6
:1002F8000E6E109211000CEC02F0010E936E816AE2
:10030800210E0D6E760EE82EFED70D2EFCD700D0EE
:1003180090EF01F009EC00F081B095EF01F097EF54
:1003280001F08EEF01F0D6EC01F0210E0D6E760E85
:10033800E82EFED70D2EFCD700D081B0A6EF01F035
:10034800A8EF01F0A1EF01F084EF01F007EF00F052
:100358000B6E040E0B60B3EF01F0B5EF01F0D5EFB3
:1003680001F0F40E095C010E0A58D8A0BEEF01F0A6
:10037800C0EF01F0D5EF01F0C50E095C090E0A586F
:10038800D8B0C9EF01F0CBEF01F0D5EF01F00B5079
:10039800020DF350010FD96EDA6A09C0DEFF0AC0F8
:1003A800DDFF1200050E0A6EDC0E096E000EACECC5
:1003B80001F0050E0A6EDC0E096E010EACEC01F0C0
:1003C800090E0A6EC40E096E020EACEC01F0010EA5
:1003D8000A6EF40E096E030EACEC01F012002A0E40
:1003E800F66E040EF76E000EF86E00EE01F010EED9
:1003F80008F00900F5CFEEFFE550E150FAE10F6A89
:100408000E6A10901092000EF86E00017FEF01F056
:10041800880ED56ED768C10ED66EF28AF28EF28C2F
:0A0428001200DC05DC05DC05DC0534
:107BFE000000000000000000000000000000000077
:107C0E0000000000000000000000000080C0E0E066
:107C1E00F0F8F8F8FCFCFCFCFCFCFCFCF8F8F8F0C6
:107C2E00E0E0C08000000000000000000000000046
:107C3E00000000000000000000000000000080C0F6
:107C4E00C0E0F0F0F0F8F8F8F8F8F8F8F8F0F0F026
:107C5E00E0C0C08000000000000000000000000036
:107C6E000000000000000000000000000000000006
:107C7E0000000000000000000000000000000000F6
:107C8E0000000000000000000000FCFFFFFFFFFFEF
:107C9E001F1F1F1F1F1F1F1FFFFFFFFFFFFFFFFFE6
:107CAE00FFFFFFFFFFFC00000000000000000000CF
:107CBE000000000000000000000000F8FEFFFFFFC3
:107CCE00FF0F0F0F0F0F0F0F0FFFFFFFFFFFFFFF36
:107CDE00FFFFFFFFFFFEF8000000000000000000A5
:107CEE000000000000000000000000000000000086
:107CFE000000000000000000000000000000000076
:107D0E0000000000000000000000FFFFFFFFFFFF6B
:107D1E00E0E0E0E0E0E0E0E0FFFFFFFFFFFFFFFF5D
:107D2E00FFFFFFFFFFFF000000000000000000004B
:107D3E000000000000000000000000FFFFFFFFFF3A
:107D4E00FFF0F0F0F0F0F0F0F0FFFFFFFFFFFFFFAD
:107D5E00FFFFFFFFFFFFFF0000000000000000001C
:107D6E000000000000000000000000000000000005
:107D7E0000000000000000000000000000000000F5
:107D8E0000000000000000000000FFFFFFFFFFFFEB
:107D9E00FFFFFFFFFFFFFFFFFFFFFFFFFFFFFFFFE5
:107DAE00FFFFFFFFFFFF00000000000000000000CB
:107DBE000000000000000000000000FFFFFFFFFFBA
:107DCE00FFFFFFFFFFFFFFFFFFFFFFFFFFFFFFFFB5
:107DDE00FFFFFFFFFFFFFF0000000000000000009C
:107DEE000000000000000000000000000000000085
:107DFE000000000000000000000000000000000075
:107E0E0000000000000000000000FFFFFFFFFFFF6A
:107E1E00FFFFFFFFFFFFFFFFFFFFFFFFFFFFFFFF64
:107E2E00FFFFFFFFFFFF000000000000000000004A
:107E3E000000000000000000000000FFFFFFFFFF39
:107E4E00FFFFFFFFFFFFFFFFFFFFFFFFFFFFFFFF34
:107E5E00FFFFFFFFFFFFFF0000000000000000001B
:107E6E000000000000000000000000000000000004
:107E7E0000000000000000000000000000000000F4
:107E8E0000000000000000000000FFFFFFFFFFFFEA
:107E9E00FFFFFFFFFFFFFFFFFFFFFFFFFFFFFFFFE4
:107EAE00FFFFFFFFFFFF00000000000000000000CA
:107EBE000000000000000000000000FFFFFFFFFFB9
:107ECE00FFFFFFFFFFFFFFFFFFFFFFFFFFFFFFFFB4
:107EDE00FFFFFFFFFFFFFF0000000000000000009B
:107EEE000000000000000000000000000000000084
:107EFE000000000000000000000000000000000074
:107F0E0000000000000000000000071F7FFFFFFFC1
:107F1E00FFFFFFFFFFFFFFFFFFFFFFFFFFFFFFFF63
:107F2E00FFFFFF7F1F0700000000000000000000A1
:107F3E0000000000000000000000000F3FFFFFFFE8
:107F4E00FFFFFFFFFFFFFFFFFFFFFFFFFFFFFFFF33
:107F5E00FFFFFFFFFF3F0F000000000000000000CA
:107F6E000000000000000000000000000000000003
:107F7E0000000000000000000000000000000000F3
:107F8E0000000000000000000000000000000001E2
:107F9E00010303070707070707070707070303037D
:107FAE0001000000000000000000000000000000C2
:107FBE0000000000000000000000000000000101B1
:107FCE00030307070F0F0F0F0F0F0F0F0F0F0707EB
:107FDE000703010100000000000000000000000087
:107FEE000000000000000000000000000000000083
:027FFE00000081
:020000040020DA
:08000000FFFFFFFFFFFFFFFF00
:020000040030CA
:0E000000FF081B1EFF8181FF0FC00FE00F40A5
:00000001FF
